:020000040800F2
:10000000F8490020B1010008B1050008A905000861
:10001000AD05000885030008F10700080000000096
:1000200000000000000000000000000019010008AE
:1000300081050008000000005D010008C9260008D5
:10004000CB010008CB010008CB010008CB01000860
:10005000CB010008CB01000885050008CB01000892
:10006000CB010008CB010008CB010008CB01000840
:10007000CB010008CB010008CB010008CB01000830
:10008000CB010008CB010008CB010008CB01000820
:10009000CB010008CB010008CB010008CB01000810
:1000A000CB010008E5060008CB010008CB010008E1
:1000B000CB01000859070008CB010008CB0100085C
:1000C000CB010008CB010008CB010008CB010008E0
:1000D000CB010008CB010008CB010008CB010008D0
:1000E000CB010008CB010008CB0100080000000094
:1000F0000000000000000000000000000000000000
:10010000CB010008DFF80CD000F0A8F80048004749
:100110006D100008F8490020224B19680868B0E803
:10012000F00F80F30988BFF36F8F4FF0000080F36A
:1001300011884EF00D0E7047000000000648006860
:10014000006880F3088862B661B6BFF34F8FBFF3D3
:100150006F8F00DF00BF00BF08ED00E0EFF3098004
:10016000BFF36F8F0F4B1A6820E9F00F106008B5CE
:100170004FF0BF0080F31188BFF34F8FBFF36F8F35
:1001800002F058FA4FF0000080F31188BDE80840F3
:1001900019680868B0E8F00F80F30988BFF36F8F23
:1001A000704700BFA8000020EFF3058070470000F3
:1001B0000648804706480047FEE7FEE7FEE7FEE701
:1001C000FEE7FEE7FEE7FEE7FEE7FEE78106000842
:1001D0000501000840EA01039B0703D009E008C9B4
:1001E000121F08C0042AFAD203E011F8013B00F8FC
:1001F000013B521EF9D270472DE9F05F0546002001
:1002000092469B4688460646814640241BE0284687
:1002100041464746224600F042F853465A46C01A25
:10022000914110D311461846224600F029F82D1AA4
:1002300067EB01084F4622460120002100F020F81C
:1002400017EB00094E41201EA4F10104DFDC4846F3
:1002500031462A464346BDE8F09F0000064C074D54
:1002600006E0E06840F0010394E807009847103486
:10027000AC42F6D3FFF74AFFE42C0008042D000837
:10028000202A04DB203A00FA02F100207047914056
:10029000C2F1200320FA03F3194390407047202A4B
:1002A00004DB203A21FA02F00021704721FA02F320
:1002B000D040C2F12002914008431946704770B502
:1002C0008C1810F8015B15F0070301D110F8013B01
:1002D0002A1106D110F8012B03E010F8016B01F888
:1002E000016B5B1EF9D12B0705D40023521E0DD4E0
:1002F00001F8013BFAE710F8013BCB1A921C03E02E
:1003000013F8015B01F8015B521EF9D5A142D8D365
:10031000002070BD1CB50020052103461022CDE948
:1003200000100CA10E4802F055FB002002210346EC
:100330008022CDE900100BA10D4802F04BFB0020FC
:10034000042103464022CDE900100AA10C4802F026
:1003500041FB1CBD765461736B41747461636B0027
:10036000A1230008696E6672617265640000000076
:1003700059240008765461736B436F726500000066
:100380001924000800BFFEE770B5044600F0F0F83D
:1003900044F0800000F058F9FF2000F055F90546C0
:1003A00000F0DEF8284670BD70B5044600F0E0F8B5
:1003B00044F0C00000F048F9FF2000F045F9054680
:1003C00000F0CEF8284670BD70B506460C460720F2
:1003D000FFF7DAFF20F003053146092000F042F86C
:1003E0006CB1012C02D145F0010508E0022C02D1CC
:1003F00045F0020503E0032C01D145F00305294631
:10040000072000F02FF870BD10B50446C4F3072193
:10041000042000F027F8E1B2052000F023F810BD19
:1004200010B5044600F0A4F8204600F00DF900F0E5
:1004300097F810BD2DE9F04105460E46174600F02D
:1004400097F845F0400000F0FFF8002404E0305D2C
:1004500000F0FAF8601CC4B2BC42F8DB00F080F88F
:10046000BDE8F08170B505460C4600F081F82846DD
:1004700000F0EAF8204600F0E7F800F071F870BDEF
:1004800010B500F0ABF800F073F800F069F800F078
:100490006FF8002401E0601CC4B2642CFBDB302048
:1004A000FFF7BEFF08E0002401E0601CC4B2642C2A
:1004B000FBDB1CA000F09EF92B20FFF765FF3F2817
:1004C000F1D100240AE01A4A02EB44025178184A9A
:1004D00012F81400FFF7C6FF601CC4B2162CF2DB42
:1004E00003210520FFF770FF48F29970FFF78CFF9A
:1004F00072211320FFF7B6FF08220E493E20FFF7B6
:1005000099FF3020FFF750FF044621460AA000F073
:1005100071F93120FFF748FF044621460BA000F097
:1005200069F910BD726573657474696E670D0A00B0
:10053000B82C000821010020504152544E554D2046
:100540003D203078253032780D0A00005645525350
:10055000494F4E203D203078253032780D0A00007A
:1005600010B58021014800F0BBFC10BD000C01401B
:1005700010B58021014800F0B1FC10BD000C014015
:100580007047000010B5012000F0EEFB48B1642276
:100590000121880701F09BFB01200249087000F04F
:1005A000DDFB10BD0C01002000BFFEE700BFFEE731
:1005B0007047000010B5002807DA0A07140E054A34
:1005C00000F00F031B1FD45403E00A07130E024A66
:1005D000135410BD18ED00E000E400E000B587B052
:1005E00040F2036001F05AF940F20F7001F056F941
:1005F000102303220421124800F0E6FC28230322E2
:1006000018210F4800F0E0FC002001904FF48270A8
:10061000009000200290032005904FF4007003909A
:1006200010200690002004906946064801F079F9F0
:10063000044801F08FF9034801F060F907B000BDEC
:10064000000C0140003C004010B5044621460B4818
:1006500001F05DF900BF0221084801F05AF90028B5
:10066000F9D000BF0121054801F053F90028F9D065
:10067000024801F048F9C0B210BD0000003C004043
:1006800010B51448006840F001001249086008469F
:100690004068114908400F494860084600680F4902
:1006A00008400C4908600846006820F48020086073
:1006B000084640680A4908400649486008460068FC
:1006C00006490840034908604FF41F00886001F0A4
:1006D000A9F910BD001002400C00FFE8FFFFF6FE74
:1006E000FFFF00F710B5ADF5BA4D0121134801F039
:1006F000FDFC00B3124801680068401C104B1860F4
:1007000034A8425C01210F4801F0E1FA0C4800686E
:10071000B0F5FA6F0BD3002009490860094801F0D1
:1007200069FC064801F066FC07A000F063F80121AF
:10073000024801F0D7FC0DF5BA4D10BD002C014068
:100740000801002000080040617564696F206F7621
:100750006572210D0A00000010B50121204801F04A
:10076000C5FCE0B31F480068401C1E4908601E48D5
:10077000006880B308460068B0F5617F17D008466E
:10078000006840F21451884211D01648006840F2C7
:100790004C5188420BD01348006840F2DC5188422B
:1007A00005D01048006840F2A451884213D10D488A
:1007B00000680E49086000231A460B48006802F0E2
:1007C00097F80848006840F2DC51884203D140F2B3
:1007D0001550044908600121014801F083FC10BD57
:1007E000000400400001002004000020040100205B
:1007F00000BFFEE70FB4054B10B503A9044A0298E9
:1008000000F018F810BC5DF814FB00008D0D000816
:100810002C01002002E008C8121F08C1002AFAD1EA
:1008200070477047002001E001C1121F002AFBD170
:10083000704700002DE9FF4F8DB00F46054600269A
:1008400006E025280BD0DDE90F1290476D1C761CC1
:1008500028780028F5D111B03046BDE8F08F00248B
:10086000A246A1460122EC4900E0044315F8013FED
:10087000203B02FA03F00842F7D128782A2810D04A
:100880006FF02F022878A0F13001092914D80AEB63
:100890008A0102EB410144F0020400EB010A6D1CE5
:1008A000F0E701CF5FEA000A03D544F40054CAF12F
:1008B000000A44F002046D1C28782E2817D115F880
:1008C000010F44F004042A280ED06FF02F0228787C
:1008D000A0F1300109290AD809EB890102EB410195
:1008E00000EB01096D1CF2E757F8049B6D1C28789A
:1008F0006C280FD006DC4C2817D068280DD06A2849
:1009000014D104E0742810D07A280FD10DE044F4FB
:1009100000140AE044F4801401E044F440146978BF
:10092000814202D104F580146D1C6D1C2A786E2A58
:100930001FD00CDC632A31D004DC002A8BD0582A6B
:1009400011D1A3E0642A68D0692A0CD165E0732A2A
:100950002ED004DC6F2A73D0702A04D19BE0752A54
:100960006FD0782A6ED01046DDE90F129047761CC2
:1009700050E1C4F30250022806D0032809D004280D
:1009800001CF09D0066045E101CFF117C0E9006150
:1009900040E101CF06803DE106703BE117F8040B12
:1009A0008DF8000000208DF80100EB46012003E0E7
:1009B00057F804BB4FF0FF3061074FF0000102D43D
:1009C0000DE008F10101884649450FDA8045F8DB62
:1009D0001BF808100029F4D108E008F1010188464D
:1009E0008142FADB1BF808100029F6D1DDE90F235C
:1009F000AAEB08008146214600F036F9304400EBAE
:100A0000080604E0DDE90F121BF8010B9047B8F16E
:100A10000108F7D221464846F7E00A21C4F3025301
:100A20004FF0000B0891022B04D001CFC117032B0C
:100A300009D00AE0FF1D27F00707F7E8020108E0E8
:100A400032E01FE020E000B2C117042B01D140B218
:100A5000C117031E71F1000307DA4FF0000CD0EB51
:100A60000C006CEB01012D2302E0230504D52B23A0
:100A70008DF82430012303E0E30701D02023F7E7BA
:100A8000984658E00A2110E010210EE010204FF0A7
:100A9000000B08900CE010214FF0000B44F0040410
:100AA0004FF00809089103E008214FF0000B08916E
:100AB000C4F30253022B04D001CF0021032B06D034
:100AC00006E0FF1D27F00707F7E8020103E080B208
:100AD000042B00D1C0B24FF0000823072BD5702A99
:100AE00007D0DDF820C08CF0100C5CEA0B0C05D0B0
:100AF0000EE040238DF82430012308E050EA010382
:100B000006D030238DF824308DF825200223984616
:100B1000DDF820C08CF0080C5CEA0B0C0BD150EA1D
:100B2000010301D1630706D530238DF824304FF03F
:100B30000108A9F10109582A04D038A20B9208AA89
:100B40000A920BE03AA2F9E75B46089AFFF754FBDA
:100B50000B9B9B5C0A9A521E0A92137050EA010288
:100B6000F2D10A98ADEB000000F1200B600702D52E
:100B700024F4803401E04FF00109D94502DDA9EBEE
:100B80000B0000E0002000EB0B0141440890AAEBB1
:100B9000010AE00306D4DDE90F232146504600F0A8
:100BA00063F806444FF0000908E009A911F80900AC
:100BB000DDE90F12904709F10109761CC145F4DB0C
:100BC000E0030CD5DDE90F232146504600F04CF838
:100BD000064404E0DDE90F1230209047761C0899A6
:100BE000481E08900029F5DC08E00A980A99007868
:100BF000491C0A91DDE90F129047761CBBF10001F8
:100C0000ABF1010BF1DC21465046DDE90F2300F08A
:100C100019F806446D1C1BE60928010030313233F7
:100C20003435363738396162636465660000000028
:100C30003031323334353637383941424344454612
:100C4000000000002DE9F041044600251E4617462D
:100C5000880404D405E039462020B0476D1C641E8A
:100C6000F9D52846BDE8F0812DE9F041044600257C
:100C70001E469046C80301D5302700E0202788048F
:100C800004D505E041463846B0476D1C641EF9D5D1
:100C90002846BDE8F081704710B50021084600F0F5
:100CA000CDF810BD10B52C4B1B6883432A4C236034
:100CB000231D1B688343241D2360231D1B6883435E
:100CC000241D2360231D1B688343241D236011B151
:100CD00001290ED105E0204B1B6803431E4C236005
:100CE00008E01D4B1B1D1B6803431B4C241D236088
:100CF00000E000BF00BF22B1012A0FD0022A27D195
:100D000019E0154B08331B680343134C0834236068
:100D1000231D1B688343241D23601AE00E4B0833F8
:100D20001B6883430C4C08342360231D1B6803435A
:100D3000241D23600DE0084B08331B680343064C59
:100D400008342360231D1B680343241D236000E037
:100D500000BF00BF10BD0000000401400149086051
:100D6000704700001404014001460748006800EA8B
:100D7000010205481438006800EA010312B10BB102
:100D8000012070470020FCE71404014070B50446C0
:100D90000D46E1B2054801F0FDF900BF0721034807
:100DA00001F049FA0028F9D0204670BD0038014012
:100DB00070B5054600241B48854200D100E001249F
:100DC000194931F8140000F069FD184931F8140090
:100DD00000F064FD164951F82430164951F82400FA
:100DE0000322182100F0F0F8134951F8243011497A
:100DF00051F824000322042100F0E6F8284601F00F
:100E0000CDF94FF4E131284601F07CF90421284660
:100E100001F020FA0821284601F024FA284601F0C2
:100E200005FA70BD00380140580000203C00002049
:100E300040000020500000204800002070B504460B
:100E40000D46174931F8140000F028FD4FF4C0603A
:100E500000F024FD134951F82430134951F82400BF
:100E60000322042100F0B0F8012D17D10F49085DCD
:100E70000022022100F02AF90D4A115D0D4A105D91
:100E800000F056F80C4951F8240001220021FFF728
:100E900009FF094951F82400FFF760FF70BD000009
:100EA000840000207400002064000020A4000020C2
:100EB000A00000209C0000208C00002010B50446FB
:100EC000044A52F82410044A52F8240000F0C6F8EC
:100ED00010BD0000740000206400002041617047D4
:100EE0000161704710B540F2026000F0D7FC4FF48A
:100EF000C06000F0D3FC0223032218210A4800F04E
:100F000063F840F2036000F0C9FC80230322102143
:100F1000064800F059F8302303224821024800F027
:100F200053F8FFF75BFB10BD00080140000C0140C7
:100F300010B500228B071C0F0F2303FA04F20429BB
:100F40000EDA204B9B6893431E4CA36023469B689C
:100F50008C07240F00FA04F423431A4CA3602FE0FB
:100F600008290EDA174BDB689343164CE3602346DF
:100F7000DB688C07240F00FA04F42343114CE36070
:100F80001EE00C290EDA0F4B1B6993430D4C2361B5
:100F900023461B698C07240F00FA04F42343094CF1
:100FA00023610DE0074B5B699343064C6361234665
:100FB0005B698C07240F00FA04F42343014C63613E
:100FC00010BD000000000140F0B5044616460025A3
:100FD000002201F00F0501F0100707B13543002092
:100FE00018E0012787401F4097B122684FEA800C24
:100FF0000F2707FA0CF7BA43870005FA07F73A43B9
:10100000282901D1636102E0482900D123612260CF
:10101000471CB8B20828E4D308201CE00127874009
:101020001F40B7B16268A0F108074FEA870C0F278D
:1010300007FA0CF7BA43A0F10807BF0005FA07F753
:101040003A43282901D1636102E0482900D1236194
:101050006260471CB8B21028E0D3F0BD0246906829
:10106000084008B1012070470020FCE700F004FCB4
:1010700000F0DCFC0A48FFF79BFEFFF733FFFFF7A9
:101080000BFE00F00FF800F063FEFFF7F9F9FFF731
:1010900002FEFFF73FF901F093FA00BFFEE7000000
:1010A0000038014010B54FF4C06000F061F8012233
:1010B00011461D2000F00AF84FF4C06000F058F807
:1010C00002220121192000F001F810BDF0B50B46F5
:1010D000002100240025244E366806F4E066B6F5AB
:1010E000E06F02D100BF042526E01F4E366806F4EB
:1010F000E066B6F5C06F02D1012403251CE01A4E4C
:10110000366806F4E066B6F5A06F02D10224022527
:1011100012E0154E366806F4E066B6F5806F02D12F
:101120000324012508E0104E366806F4E066B6F5A3
:10113000407F01D104240025C4F1040603FA06F11E
:10114000C5F104070F26FE40164031430901074E42
:10115000315400F01F070126BE404711BF0007F1C0
:10116000E027C7F80061F0BD0CED00E000E400E00E
:1011700002490143024A1160704700000000FA056D
:101180000CED00E02DE9F04105460E461C480768CD
:101190001C480068001D01F06DF850B9194800683E
:1011A00090F82C100120884017490968814316489F
:1011B0000160681C38B936B112480168091D13482E
:1011C00001F096F81AE07C190E4800684460BC42B1
:1011D00007D20C480168091D0D48006801F06EF83F
:1011E0000CE008480168091D0A48006801F066F82B
:1011F00009480068844201D207480460BDE8F081D4
:10120000BC000020A8000020C0000020E401002055
:10121000B0000020AC000020D800002010B504462B
:1012200001F072F823480068401C224908602248F7
:10123000006840B9204804600846006801280DD1C4
:1012400000F050F90AE01D48006838B91A480068F3
:10125000C06AE16A884201D81748046018480068EB
:10126000401C1749086094F82C100120884015494B
:101270000968084313490860E16A01EB8101124AD9
:1012800002EB8100211D01F033F801F04FF80B480B
:10129000006868B108480068C06AE16A884207D2FD
:1012A0004FF0805009490860BFF34F8FBFF36F8F35
:1012B00010BD0000B8000020A8000020C4000020DD
:1012C000D4000020C00000203001002004ED00E028
:1012D00070B523E001F0A6F91348006808B90120B1
:1012E00000E00020054601F073FCBDB901F00CF8E8
:1012F0000D48C068C468201D00F0BCFF0B480068A2
:10130000401E0A4908600A480068401E08490860F3
:1013100001F00CF8204600F057F800BF04480068C0
:101320000028D7D170BD0000D0010020B8000020F7
:10133000B400002070B504460D46206C70B1216CDD
:10134000E0680844E0606168E068884201D3206892
:10135000E0602846226CE168FEF73CFF70BD2DE995
:10136000F04104460F4615464FF00008A66B206C6E
:1013700028B37DB93946226CA068FEF72BFF216C9B
:10138000A0680844A060D4E90110884217D32068FF
:10139000A06014E03946226CE068FEF71BFF216C68
:1013A000E068401AE0602168E068884203D2216C5E
:1013B0006068401AE060022D01D106B1761E701CF3
:1013C000A0634046BDE8F08110B50446206B00F0F4
:1013D000BDFF204600F0BAFF10BD00000A4A22F00F
:1013E00007000A4A10600022084B5A6044F2F832A3
:1013F000074B5A6000221A60014644F2F8324A60F4
:101400001A460A607047000000020020E400002035
:10141000EC00002000BFFFF75BFF064800680128D2
:10142000F9D94FF0805004490860BFF34F8FBFF3E4
:101430006F8FF0E73001002004ED00E02DE9F0416E
:1014400006460D4617469846069C0DB9246000E0F6
:101450002760E66325640121204601F009FABDE812
:10146000F0812DE9FF5F80460E469146DDE90E7A58
:10147000109CA9F10100216B01EB800B2BF0070BF5
:10148000002507E0715D04F134004155705D00B93D
:1014900002E06D1C102DF5D300BF00214320015543
:1014A000052F00D30427E762201D00F004FF04F19C
:1014B000180000F000FF2461C7F10500A06164621C
:1014C0000020606484F8480041465846039A00F0C2
:1014D0000BF92060BAF1000F01D0CAF80040BDE856
:1014E000FF9F000010B5002407E004EB84010F4AC1
:1014F00002EB810000F0D2FE641C052CF5D30C48F1
:1015000000F0CCFE0B4800F0C9FE0B4800F0C6FE10
:101510000A4800F0C3FE0A4800F0C0FE044809492A
:10152000086004480849086010BD00003001002030
:1015300094010020A8010020BC010020D00100205F
:10154000E4010020AC000020B000002070B505468A
:1015500000F0DAFEA86B08B9012400E0002400F0D6
:10156000E5FE204670BD00000A490968096809B90E
:10157000012100E0002121B14FF0FF31064A116046
:1015800006E004490968C968C868034A41681160EF
:1015900070470000AC000020D800002000BFBF2032
:1015A00080F31188BFF34F8FBFF36F8F00BF00BF71
:1015B000FEE770B5044600F0A7FE94F9455010E030
:1015C000606A08B9012000E0002038B904F1240065
:1015D00001F0BEFA18B100F0D1FF00E003E0681E90
:1015E00045B2002DECDC00BFFF2084F8450000F080
:1015F0009DFE00F089FE94F9445010E0206908B97E
:10160000012000E0002048B904F1100001F0A0FA28
:1016100008B100F0B3FF681E45B200E001E0002D04
:10162000ECDC00BFFF2084F8440000F07FFE70BDBA
:101630002DE9F04104464FF0000800F0F3FF264882
:10164000006820B9FFF7CAFE01202349086044B1B1
:10165000083404F0070020B104F00700C0F10800CE
:101660000444002C32D044F2F83084422ED21B4F76
:101670003846056801E02F462D686868A04202D20E
:1016800028680028F7D1164885421FD0386800F135
:101690000808286838606868001B102810D92E19BF
:1016A0006868001B70606C6071680C4800E000683E
:1016B000026852688A42FAD302683260066000BF4C
:1016C000084968680968081A0649086001F080FA44
:1016D0004046BDE8F0810000F8000020E400002052
:1016E000EC000020F4000020001F4FF08073036026
:1016F000001F21F001030360001F034B0360143837
:1017000002602038704700009D1500080F4A51689C
:101710000F4A1140082814D2DFE800F0040506073C
:10172000130A130B00BF00BF00BF41EA803109E07C
:1017300000BF20F004004FF0805242EA8032114393
:1017400000E000BF00BF014A516070470010024036
:10175000FF3FFFEF2DE9F04F8BB0074600200990C7
:101760003EA090E8004CC068CDE905BECDF810A0C1
:1017700007900FF2EC0ADAE9000ACDE9020A0FF24B
:10178000E00ADAE9000ACDE9000A38484068C0F307
:1017900081000A900A9820B1012804D0022829D19A
:1017A00003E0334928E0324926E03048406800F43D
:1017B0008038B8F5803F09D12D4C2C48406800F4A2
:1017C0000039B9F5003F02D1641000E0294C2748E8
:1017D0004068C0F383422548406800F0006008B1CB
:1017E00042F010020F2A01D2921C00E0521C04FBAE
:1017F00002F101E01E4900BF00BF1C484068C0F371
:10180000031504A8465D21FA06F318484068C0F3A2
:10181000022502A8465D23FA06FC14484068C0F37E
:10182000C2251DF8056023FA06F0089037B1012F94
:1018300006D0022F06D0032F0AD106E0099108E056
:10184000099306E0CDF824C003E00898099000E071
:1018500000BF00BF09980BB0BDE8F08F000000008A
:1018600000000000010203040607080900100240FE
:1018700000127A0000093D0010B540F2076000F048
:101880000DF840F20A6000F009F840F2037000F031
:1018900005F80220FFF73AFF10BD0000064A02EBF0
:1018A0009011096800F01F0301229A401143024B76
:1018B00003EB90121160704700100240064A02EBE1
:1018C0009011096800F01F0301229A409143024BD6
:1018D00003EB90121160704700100240064A02EBC1
:1018E0009011096800F01F0301229A401143024B36
:1018F00003EB90121160704700100240016841F044
:101900004001016070470146C86880B27047C160FD
:10191000704702469068084008B1012070470020D7
:10192000FCE702460020106800F441500B681843A1
:101930004B6818438B681843CB6818430B691843EE
:101940004B6918438B6918431060D36923F4006313
:10195000D3617047016821F4807101607047000015
:10196000002000212C4A126842F480322A4B1A606F
:1019700000BF401C284A126802F4003119B94FF622
:10198000FF729042F5D1244A126802F400320AB97B
:1019900000BFFEE7204A52681F4B5A601A46526841
:1019A0005A601A46526842F480625A601A46526877
:1019B00022F440325A601A46526842F440325A6069
:1019C0001A465268154B1A40134B5A601A46526811
:1019D000134B1A43104B5A601A46126842F0807239
:1019E0001A6000BF0C4A126802F00072002AF9D097
:1019F000094A526822F00302074B5A601A4652689D
:101A000042F002025A6000BF034A526802F0080224
:101A1000002AF9D07047000000100240FFFFC3F712
:101A20000000280810B5FFF79BFF10BD10B5124845
:101A300000684FF47A71B0FBF1F4601EB0F1807F62
:101A400001D301200FE0601E4FF0E02148610F211B
:101A50004FF0FF30FEF7AEFD00204FF0E02188612F
:101A600007200861002008B100BFFEE70021481EE2
:101A7000FEF7A0FD10BD000018000020016841F035
:101A8000800101607047000010B531B101293FD0DD
:101A900002297DD003297CD1BFE0036A23F0010332
:101AA0000362036A146823430362036A23F0020398
:101AB0000362036AD488234303626C4B984202D0CA
:101AC0006B4B98421FD1036A23F004030362036A3D
:101AD000948823430362036A23F008030362036AC2
:101AE000148923430362436823F48073436043688B
:101AF000548923434360436823F40073436043687D
:101B0000948923434360836923F003038361ABE03B
:101B1000036A23F010030362036A146843EA0413A0
:101B20000362036A23F020030362036AD48843EA52
:101B3000041303624D4B984202D04D4B984223D17F
:101B4000036A23F040030362036A948843EA0413A0
:101B50000362036A23F080030362036A148943EA81
:101B600004130362436823F4806343604368548929
:101B700043EA84034360436823F40063436043689B
:101B8000948943EA84034360836923F4407301E04A
:101B900002E068E0836167E0036A23F48073036214
:101BA000036A146843EA04230362036A23F400739C
:101BB0000362036AD48843EA042303622B4B9842EE
:101BC00002D02B4B984223D1036A23F48063036233
:101BD000036A948843EA04230362036A23F40063DC
:101BE0000362036A148943EA04230362436823F40B
:101BF000805343604368548943EA04134360436855
:101C000023F4005343604368948943EA0413436018
:101C1000C36923F00303C36126E0036A23F48053FE
:101C20000362036A146843EA04330362036A23F419
:101C300000530362036AD48843EA043303620B4B04
:101C4000984202D00A4B984208D1436823F480435B
:101C500043604368548943EA84134360C36923F4AF
:101C60004073C36100E000BF00BF10BD002C014005
:101C70000034014031B101290CD0022913D00329CD
:101C800022D118E0836923F07003836183691343D1
:101C900083611AE0836923F4E0438361836943EA43
:101CA0000223836111E0C36923F07003C361C36938
:101CB0001343C36109E0C36923F4E043C361C3690B
:101CC00043EA0223C36100E000BF00BF704731B1A7
:101CD000012906D0022906D0032908D105E0426374
:101CE00006E0826304E0C26302E0026400E000BF39
:101CF00000BF704731B101290CD0022913D003294C
:101D000022D118E0836923F00803836183691343B8
:101D100083611AE0836923F400638361836943EA82
:101D20000223836111E0C36923F00803C361C3691F
:101D30001343C36109E0C36923F40063C361C3694A
:101D400043EA0223C36100E000BF00BF7047000008
:101D500000B589B04FF4E060FFF7A0FD40F20170DC
:101D6000FFF79CFD40F20270FFF798FD40F20B6018
:101D7000FFF794FD4FF0804000F0CEF8634800F08C
:101D8000CBF8634800F0C8F8624800F0C5F80920B5
:101D9000ADF804000020ADF80600ADF8080040F2F0
:101DA0001B1003900020ADF810008DF8120001A95F
:101DB0004FF0804000F028F90020ADF81A00012013
:101DC00005900020ADF81C00ADF81800ADF81E001D
:101DD000ADF8200005AA01218807FFF755FE002273
:101DE00001218807FFF773FF602201218807FFF7B1
:101DF00041FF002201218807FFF77CFF4FF0804060
:101E0000FFF73CFE0121880700F068F94FF08040A1
:101E100000F0F5F86B20ADF804000020ADF80600E6
:101E2000ADF80800092003900020ADF810008DF8EF
:101E3000120001A9354800F0E7F83448FFF71EFE0C
:101E40000121324800F04AF9304800F0D8F8062065
:101E5000ADF804000020ADF80600ADF80800FE2043
:101E600003900020ADF810008DF8120001A9284859
:101E700000F0CAF80020ADF81A00012005900020FB
:101E8000ADF81C00ADF81800ADF81E00ADF820004C
:101E900005AA01211E48FFF7F7FD002201211C4879
:101EA000FFF715FF602201211948FFF7E3FE00222A
:101EB00001211748FFF71EFF1548FFF7DFFD01213D
:101EC000134800F00BF9124800F094F80A20ADF81E
:101ED00004000020ADF80600ADF8080040F27930AB
:101EE00003900020ADF810008DF8120001A90948F8
:101EF00000F08AF80748FFF7C1FD0121054800F00E
:101F0000EDF8044800F076F809B000BD0004004088
:101F100000080040002C014010B504463349601A07
:101F20008C4244D00CDCB4F1804F1CD030482044AB
:101F300010B3B0F5806F28D0B0F5006F52D12DE00E
:101F4000B0F5806F3CD0B0F58E3F03D0B0F5923F36
:101F500048D13EE040F20B30FFF7C0FC40F20B30BE
:101F6000FFF7ACFC3FE04FF48060FFF7B7FC4FF4A5
:101F70008060FFF7A3FC36E040F20140FFF7AEFCC3
:101F800040F20140FFF79AFC2DE040F20240FFF7DB
:101F9000A5FC40F20240FFF791FC24E040F2034030
:101FA000FFF79CFC40F20340FFF788FC1BE040F287
:101FB0000440FFF793FC40F20440FFF77FFC12E07F
:101FC00040F20540FFF78AFC40F20540FFF776FC3F
:101FD00009E040F20D30FFF781FC40F20D30FFF7D1
:101FE0006DFC00E000BF00BF10BD0000001000400D
:101FF00000FCFFBF016821F001010160704701682A
:1020000041F00101016070470A888262264A9042CD
:1020100020D0B0F1804F1DD0244A90421AD0244ADB
:10202000904217D0234A904214D0234A904211D0B4
:10203000224A90420ED0224A90420BD0214A90422E
:1020400008D0214A904205D0204A904202D0204A2E
:1020500090420BD1026822F07002026002684B8845
:102060001A43026002688B881A4302608A68C2625F
:10207000184A90420AD0184A904207D0026822F4C7
:102080004072026002688B891A430260064A9042DD
:1020900002D0094A904201D18A7B0263426942F030
:1020A0000102426170470000002C01400004004022
:1020B00000080040000C004000340140004C01408A
:1020C000005001400054014000180040001C004036
:1020D000002000400010004000140040C2680A4385
:1020E000C260704702698A43026170470246D06845
:1020F00000EA01031069084010B10BB101207047DC
:102100000020FCE72DE9F04704460D460027B846BD
:10211000B94600261D49601A8C421CD006DC1C48BA
:10212000204470B1B0F5806F1FD10FE0B0F5806F23
:1021300016D0B0F56C4F18D10320FFF70BFB074604
:1021400014E00220FFF706FB07460FE00220FFF72E
:1021500001FB07460AE00220FFF7FCFA074605E00C
:102160000220FFF7F7FA074600E000BF00BF07EBC9
:102170005500B0FBF5F64FF6F07006EA000806F0E1
:102180000F0948EA0900A060BDE8F087004C004054
:1021900000BCFFBFC1F308024260704710B504469F
:1021A0002049601A8C4228D006DC1F48204490B198
:1021B000B0F5806F33D117E0B0F5806F26D0B0F561
:1021C0006C4F2CD140F20E30FFF788FB40F20E30FE
:1021D000FFF774FB24E040F21140FFF77FFB40F271
:1021E0001140FFF76BFB1BE040F21240FFF776FB5C
:1021F00040F21240FFF762FB12E040F21340FFF79B
:102200006DFB40F21340FFF759FB09E040F2144028
:10221000FFF764FB40F21440FFF750FB00E000BF03
:1022200000BF10BD004C004000BCFFBFC16841F4BE
:102230000051C160704710B5024602EB9110006872
:1022400001F01F040123A340184008B1012010BD74
:102250000020FCE70A460021C16821F00401114377
:10226000C16070470A460021C16821F0080111438E
:10227000C160704701460A69D1E901309860D1E92F
:10228000010358605068884201D18868506000207E
:1022900008611068401E10601068704700F1080166
:1022A00041604FF0FF31816000F10801C1600161C0
:1022B00000210160704700210161704710B502469E
:1022C0000B685C1C0CB9106907E002F1080000E023
:1022D0004068446824689C42FAD944684C604C6861
:1022E000A160886041600A611468641C146010BDBC
:1022F00042684A6093688B60936859609160086196
:1023000003685B1C0360704700BFBF2080F3118827
:10231000BFF34F8FBFF36F8F00BF03480068401CAF
:102320000149086070470000FC0000200648006872
:10233000401E054908600846006820B9002080F367
:10234000118800BF00BF7047FC00002070B5064632
:102350003546B6B1083D2C4600F064F9616809487D
:1023600000E00068026852688A42FAD3026822607C
:10237000046005496068096808440349086000F082
:1023800027FC70BDE4000020F400002003484FF05B
:10239000E021486107200861704700003F190100F3
:1023A00026E00020FEF78AFDF8B9142000F03AF884
:1023B0000020FEF783FDC0B900200E4908700E49C9
:1023C00008604FF08040FFF71AFE0C48FFF717FE39
:1023D0000B48FFF714FE0B48FFF711FE0AA0FEF7AB
:1023E00009FA4FF4757000F01DF8012000F01AF89A
:1023F000D7E700000C010020080100200004004085
:1024000000080040002C014049276D205461736B87
:102410003232320D0A00000003E04FF47A7000F00F
:1024200001F8FAE770B50446002544B100F0FAF867
:1024300000212046FEF7A6FE00F0CAFB05463DB986
:102440004FF0805003490860BFF34F8FBFF36F8F89
:1024500070BD000004ED00E008B500254FF4967053
:1024600000903D48047800220421012000F046F944
:102470003A4908606FE000231A4669463748006809
:1024800000F058F9012863D10098B0F5617F04D1BC
:10249000002201218807FFF71AFC40F2145100982E
:1024A000884204D1642201210007FFF710FC072DA8
:1024B00016DB002500200090274804780022012127
:1024C0008807FFF704FC2648FFF794FD4FF0804093
:1024D000FFF790FD00202349086023A0FEF78AF94A
:1024E00004F00100D0B140F24C510098884204D170
:1024F000002201218807FFF7EAFB40F2DC51009837
:10250000884225D1642201218807FFF7E0FB64108F
:10251000681CC5B240F21450009019E040F2A4517A
:102520000098884204D1002201210007FFF7CFFB69
:1025300040F2DC51009888420AD1642201218807C8
:10254000FFF7C5FB6410681CC5B240F21450009040
:102550000120FFF767FF8EE708000020040000203D
:10256000000400400001002073656E642061206D4E
:10257000657373616765210D0A0000000120014940
:1025800008607047CC00002070B505460C46054831
:10259000016818312846FFF791FE01212046FEF719
:1025A000F1FD70BDA80000200349096801600349DE
:1025B0000968416070470000D0000020BC00002086
:1025C0001CB5114800210B468022CDE900100FA157
:1025D000104800F0FFF90446012C14D100BFBF20C1
:1025E00080F31188BFF34F8FBFF36F8F00BF4FF0A1
:1025F000FF300949086001200849086000200849A7
:10260000086000F047F81CBDDC00002049444C4540
:102610000000000015140008D8000020C4000020AD
:10262000BC00002002480068401C01490860704757
:10263000E00000201248006818B10120114908602C
:102640001DE000200F4908600F480068B0FA80F0D4
:10265000C0F11F0101EB81020C4B03EB82004268C9
:102660005268426000F108024368934202D1426816
:10267000526842604268D268054B1A6000BF7047DA
:10268000E0000020CC000020C0000020300100202D
:10269000A800002010B50A48006840F47F000849EF
:1026A00008600846006840F07F400860FFF76EFE53
:1026B000002004490860FDF741FD002010BD000026
:1026C00020ED00E0FC00002010B500BFBF2080F32B
:1026D0001188BFF34F8FBFF36F8F00BF00F0AAF9CF
:1026E00018B14FF080500449086000BF002080F30B
:1026F000118800BF10BD000004ED00E02DE9F84393
:1027000007460D4690460DB9002601E007FB05F689
:1027100006F14800FEF78CFF044644B104F1480975
:1027200043464A46294638460094FEF787FE20462F
:10273000BDE8F8832DE9FF4782B0054689461E466D
:102740004FF0000A2C4600BFFFF7DEFDD4F83880BA
:10275000B8F1000F36D0E76849462046FEF7EAFD9B
:10276000B6B9A8F10100A063206908B9012000E012
:10277000002008BB04F1100000F0EAF9E0B14FF0CE
:1027800080503A490860BFF34F8FBFF36F8F13E05B
:10279000E760606A08B9012000E0002060B904F138
:1027A000240000F0D5F938B14FF080502F4908606F
:1027B000BFF34F8FBFF36F8FFFF7B8FD012006B057
:1027C000BDE8F087049818B9FFF7B0FD0020F6E7E0
:1027D000BAF1000F04D16846FFF7E6FE4FF0010A98
:1027E000FFF7A4FDFFF71EFFFFF78EFD94F94400ED
:1027F000401C10B9002084F8440094F94500401CA6
:1028000010B9002084F84500FFF790FD04A9684640
:1028100000F0B2F8F0B92046FEF798FEA0B104F13E
:1028200024000499FFF7B0FE2046FEF7C2FE00F038
:10283000CFF9002888D14FF080500C490860BFF3D1
:102840004F8FBFF36F8F7FE72046FEF7B2FE00F099
:10285000BFF979E72046FEF7ACFE00F0B9F9204653
:10286000FEF774FE0028EED00020A8E704ED00E09B
:1028700070B505460E462C46FFF746FDD4E90F120B
:10288000206801FB020060600020A0632068A06057
:10289000E06B401E226C216800FB0210E060FF200C
:1028A00084F8440084F845009EB9206908B90120E5
:1028B00000E00020A8B904F1100000F049F980B14F
:1028C0004FF0805009490860BFF34F8FBFF36F8FFF
:1028D00007E004F11000FFF7E1FC04F12400FFF72A
:1028E000DDFCFFF723FD012070BD000004ED00E0DA
:1028F0002DE9F05F05468A4616461F462C4600BF66
:10290000BF21EFF3118081F31188BFF34F8FBFF325
:102910006F8F00BF8146A06BE16B884201D3022F0D
:1029200020D194F945B03A4651462046FEF717FDAE
:102930000BF1010070B9606A08B9012000E00020C5
:1029400068B904F1240000F003F940B13EB1012060
:10295000306004E00BF1010040B284F845004FF014
:10296000010801E04FF0000800BF89F3118800BFA3
:102970004046BDE8F09F000070B504460D46FFF7E5
:10298000C3FC124802682868401C08B9002619E0F8
:102990000F4920680968884204D06068904201D8D5
:1029A00001260FE06068101A2968884209D2286859
:1029B0006168511A401A28602046FFF7F5FD00268D
:1029C00000E00126FFF7B2FC304670BDBC000020DD
:1029D000D00000202DE9FF4F85B08046894617467C
:1029E000DDE912ABB800FEF723FE064656B14C20D7
:1029F000FEF71EFE04460CB1266304E03046FFF7E6
:102A0000A5FC00E000247CB10020CDE900ABCDE9BD
:102A100002403A4649464046089BFEF722FD2046C2
:102A2000FEF7FCFB012501E04FF0FF35284609B019
:102A3000BDE8F08F2DE9F04100273A4800680028F2
:102A400063D139480068451C374805608DB937485F
:102A5000D0F8008036480068344908603448C0F82F
:102A6000008034480068401C32490860FEF77CFD55
:102A700000BF3148006885423BD300BF2B48006847
:102A8000006808B9012000E0002020B14FF0FF30BD
:102A9000294908602CE025480068C068C468666859
:102AA000B54202D22448066022E0201DFFF7E2FB77
:102AB000A06A18B104F11800FFF7DCFB94F82C10A1
:102AC000012088401D49096808431C490860E16AE3
:102AD00001EB81011A4A02EB8100211DFFF708FC7E
:102AE0001849E06A0968C96A8842C7D30127C5E75F
:102AF00000BF14480068C06A00EB8000104951F81C
:102B00002000012800D9012704E00F480068401C7C
:102B10000D4908600D48006800B101273846BDE83E
:102B2000F0810000E0000020BC000020AC0000208C
:102B3000B0000020D0000020D8000020C0000020FD
:102B400030010020A8000020C8000020CC00002098
:102B500070B50646F068C46804F11800FFF78AFBF8
:102B600015480068A8B9201DFFF784FB94F82C10C5
:102B70000120884011490968084310490860E16A4A
:102B800001EB81010E4A02EB8100211DFFF7B0FB32
:102B900004E004F118010B48FFF7AAFB0A49E06AB8
:102BA0000968C96A884204D90125012007490860DB
:102BB00000E00025284670BDE0000020C000002095
:102BC00030010020BC010020A8000020CC00002023
:102BD00070B500240026FFF797FB2E480068401EC2
:102BE0002C4908600846006800284FD12A48006830
:102BF00000284BD024E02948C068C46804F11800BC
:102C0000FFF738FB201DFFF735FB94F82C1001204F
:102C1000884023490968084321490860E16A01EBBB
:102C20008101204A02EB8100211DFFF761FB1E4953
:102C3000E06A0968C96A884202D301201B4908601A
:102C40001648006808B9012000E000200028D2D012
:102C50000CB1FEF789FC1648056865B100BFFFF7A7
:102C6000E9FE10B10120114908606D1E002DF6D15A
:102C700000200F4908600D48006838B10126300770
:102C80000C490860BFF34F8FBFF36F8FFFF74EFB08
:102C9000304670BDE0000020B8000020BC010020DC
:102CA000C000002030010020A8000020CC0000203F
:102CB000C800002004ED00E00206034708050A01F1
:102CC0000B060D0F0E620F7610F611431213151539
:102CD0001818191620FB23E9242A2500261F2C8109
:102CE0002D35173B042D00080000002030010000A6
:102CF000BE0200087C2D000830010020C8480000FA
:102D0000240800088102105814F36F063C1001409B
:102D1000044A180432013204290832023D0E061119
:102D200007092904291929041A082C19041E020666
:102D3000020604022901391429484A0C1C294011B1
:102D4000322022402A103F19284B03065869185197
:102D50001A0212130D0E044D06282863F8431AAA0E
:102D6000010110398411100B0A0B0C0D0E0F1011FC
:0C2D700012137009C0C8846068341D0E86
:0400000508000105E9
:00000001FF
