:020000040800F2
:10000000F8490020B1010008410300083903000845
:100010003D0300080D030008A104000800000000D3
:1000200000000000000000000000000019010008AE
:1000300011030008000000005D010008551E0008C3
:10004000CB010008CB010008CB010008CB01000860
:10005000CB010008CB01000815030008CB01000804
:10006000CB010008CB010008CB010008CB01000840
:10007000CB010008CB010008CB010008CB01000830
:10008000CB010008CB010008CB010008CB01000820
:10009000CB010008CB010008CB010008CB01000810
:1000A000CB010008A9030008CB010008CB01000820
:1000B000CB01000809040008CB010008CB010008AF
:1000C000CB010008CB010008CB010008CB010008E0
:1000D000CB010008CB010008CB010008CB010008D0
:1000E000CB010008CB010008CB0100080000000094
:1000F0000000000000000000000000000000000000
:10010000CB010008DFF80CD000F076F8004800477B
:10011000BD080008F8490020224B19680868B0E8BB
:10012000F00F80F30988BFF36F8F4FF0000080F36A
:1001300011884EF00D0E7047000000000648006860
:10014000006880F3088862B661B6BFF34F8FBFF3D3
:100150006F8F00DF00BF00BF08ED00E0EFF3098004
:10016000BFF36F8F0F4B1A6820E9F00F106008B5CE
:100170004FF0BF0080F31188BFF34F8FBFF36F8F35
:1001800001F01EFE4FF0000080F31188BDE808402A
:1001900019680868B0E8F00F80F30988BFF36F8F23
:1001A000704700BFA4000020EFF3058070470000F7
:1001B0000648804706480047FEE7FEE7FEE7FEE701
:1001C000FEE7FEE7FEE7FEE7FEE7FEE74503000881
:1001D0000501000840EA01039B0703D009E008C9B4
:1001E000121F08C0042AFAD203E011F8013B00F8FC
:1001F000013B521EF9D27047064C074D06E0E068FD
:1002000040F0010394E8070098471034AC42F6D35D
:10021000FFF77CFF442400086424000870B58C18A4
:1002200010F8015B15F0070301D110F8013B2A110A
:1002300006D110F8012B03E010F8016B01F8016BF7
:100240005B1EF9D12B0705D40023521E0DD401F8F3
:10025000013BFAE710F8013BCB1A921C03E013F8BC
:10026000015B01F8015B521EF9D5A142D8D30020F1
:1002700070BD00001CB50020052103464022CDE9D9
:10028000001011A1134801F06BFF0020022103466A
:100290004022CDE9001010A1124801F061FF0020BA
:1002A000042103464022CDE900100FA1124801F0BD
:1002B00057FF0020032103464022CDE900100FA183
:1002C000114801F04DFF1CBD765461736B4174748D
:1002D00061636B000D1B0008696E66726172656474
:1002E00000000000E51B0008765461736B42654115
:1002F000747461636B000000651B000876546173C1
:100300006B436F72650000008D1B000800BFFEE7A5
:100310007047000010B5012000F054F948B1642284
:100320000121880701F089F801200249087000F0D6
:1003300043F910BD0801002000BFFEE700BFFEE743
:100340007047000010B51448006840F001001249E1
:10035000086008464068114908400F49486008464F
:1003600000680F4908400C4908600846006820F4FE
:1003700080200860084640680A49084006494860ED
:100380000846006806490840034908604FF41F000A
:10039000886000F025FF10BD001002400C00FFE84F
:1003A000FFFFF6FEFFFF00F710B5ADF5BA4D0121D6
:1003B000124801F051FAE8B1114801680068401C88
:1003C0000F4B186034A8425C01210E4801F035F84B
:1003D0000B480068B0F5FA6F08D3002008490860A0
:1003E000084801F0BDF9054801F0BAF901210348B8
:1003F00001F02EFA0DF5BA4D10BD0000002C0140A1
:10040000040100200008004010B50121204801F03F
:1004100023FAE0B31F480068401C1E4908601E48CC
:10042000006880B308460068B0F5617F17D00846C1
:10043000006840F21451884211D01648006840F21A
:100440004C5188420BD01348006840F2DC5188427E
:1004500005D01048006840F2A451884213D10D48DD
:1004600000680E49086000231A460B48006801F036
:1004700005FE0848006840F2DC51884203D140F292
:100480001550044908600121014801F0E1F910BD4F
:1004900000040040FC0000200400002000010020B7
:1004A00000BFFEE7014A024900F013B8E905000861
:1004B0002801002002E008C8121F08C1002AFAD152
:1004C00070477047002001E001C1121F002AFBD1D4
:1004D00070472DE9F04116460F460446002503E01B
:1004E0003946B047641C6D1C20780028F8D1284696
:1004F000BDE8F08110B50021084600F0CDF810BD30
:1005000010B52C4B1B6883432A4C2360231D1B68AA
:100510008343241D2360231D1B688343241D236004
:10052000231D1B688343241D236011B101290ED1B3
:1005300005E0204B1B6803431E4C236008E01D4B65
:100540001B1D1B6803431B4C241D236000E000BFE0
:1005500000BF22B1012A0FD0022A27D119E0154B82
:1005600008331B680343134C08342360231D1B68A6
:100570008343241D23601AE00E4B08331B6883431A
:100580000C4C08342360231D1B680343241D236087
:100590000DE0084B08331B680343064C0834236006
:1005A000231D1B680343241D236000E000BF00BF20
:1005B00010BD0000000401400149086070470000C0
:1005C0001404014001460748006800EA010205489A
:1005D0001438006800EA010312B10BB10120704722
:1005E0000020FCE71404014070B504460D46E1B25A
:1005F000054801F085F900BF0721034801F0D1F952
:100600000028F9D0204670BD0038014070B505467D
:1006100000241B48854200D100E00124194931F82B
:10062000140000F04BFD184931F8140000F046FDAD
:10063000164951F82430164951F824000322182194
:1006400000F0EAF8134951F82430114951F8240018
:100650000322042100F0E0F8284601F055F94FF498
:10066000E131284601F004F90421284601F0A8F9F7
:100670000821284601F0ACF9284601F08DF970BD3B
:100680000038014054000020380000203C000020C9
:100690004C0000204400002070B504460D46174968
:1006A00031F8140000F00AFD4FF4C06000F006FDC0
:1006B000134951F82430134951F82400032204212E
:1006C00000F0AAF8012D17D10F49085D0022022180
:1006D00000F034F90D4A115D0D4A105D00F050F83C
:1006E0000C4951F8240001220021FFF709FF0949B4
:1006F00051F82400FFF760FF70BD0000800000206B
:100700007000002060000020A00000209C0000205D
:10071000980000208800002010B50446044A52F8D2
:100720002410044A52F8240000F0C0F810BD000064
:10073000700000206000002010B540F2026000F060
:10074000BDFC4FF4C06000F0B9FC02230322182165
:10075000094800F061F840F2036000F0AFFC80232C
:1007600003221021054800F057F8302303224821C6
:10077000014800F051F810BD00080140000C014094
:1007800010B500228B071C0F0F2303FA04F2042973
:100790000EDA204B9B6893431E4CA36023469B6854
:1007A0008C07240F00FA04F423431A4CA3602FE0B3
:1007B00008290EDA174BDB689343164CE360234697
:1007C000DB688C07240F00FA04F42343114CE36028
:1007D0001EE00C290EDA0F4B1B6993430D4C23616D
:1007E00023461B698C07240F00FA04F42343094CA9
:1007F00023610DE0074B5B699343064C636123461D
:100800005B698C07240F00FA04F42343014C6361F5
:1008100010BD000000000140F0B50446164600255A
:10082000002201F00F0501F0100707B13543002049
:1008300018E0012787401F4097B122684FEA800CDB
:100840000F2707FA0CF7BA43870005FA07F73A4370
:10085000282901D1636102E0482900D12361226087
:10086000471CB8B20828E4D308201CE001278740C1
:100870001F40B7B16268A0F108074FEA870C0F2745
:1008800007FA0CF7BA43A0F10807BF0005FA07F70B
:100890003A43282901D1636102E0482900D123614C
:1008A0006260471CB8B21028E0D3F0BD02469068E1
:1008B000084008B1012070470020FCE700F0F0FB81
:1008C0000B48FFF7A3FEFFF737FFFFF713FE00F01B
:1008D00021F800F0F3FD07A0FFF7E4FD09A0FFF702
:1008E000E1FDFFF7C7FC01F031FA00BFFEE70000B1
:1008F00000380140426567696E20616463210D0A1A
:100900000000000074657374206F766572210D0A13
:100910000000000010B54FF4C06000F061F8012243
:1009200011461D2000F00AF84FF4C06000F058F89E
:1009300002220121192000F001F810BDF0B50B468C
:10094000002100240025244E366806F4E066B6F542
:10095000E06F02D100BF042526E01F4E366806F482
:10096000E066B6F5C06F02D1012403251CE01A4EE3
:10097000366806F4E066B6F5A06F02D102240225BF
:1009800012E0154E366806F4E066B6F5806F02D1C7
:100990000324012508E0104E366806F4E066B6F53B
:1009A000407F01D104240025C4F1040603FA06F1B6
:1009B000C5F104070F26FE40164031430901074EDA
:1009C000315400F01F070126BE404711BF0007F158
:1009D000E027C7F80061F0BD0CED00E000E400E0A6
:1009E00002490143024A1160704700000000FA0505
:1009F0000CED00E02DE9F04105460E461C48076865
:100A00001C480068001D00F0EBFF50B91948006851
:100A100090F82C1001208840174909688143164836
:100A20000160681C38B936B112480168091D1348C5
:100A300001F014F81AE07C190E4800684460BC42CA
:100A400007D20C480168091D0D48006800F0ECFF52
:100A50000CE008480168091D0A48006800F0E4FF3E
:100A600009480068844201D207480460BDE8F0816B
:100A7000B8000020A4000020BC000020E0010020FD
:100A8000AC000020A8000020D400002010B50446CF
:100A900000F0F0FF23480068401C2249086022480B
:100AA000006840B9204804600846006801280DD15C
:100AB00000F050F90AE01D48006838B91A4800688B
:100AC000C06AE16A884201D8174804601848006883
:100AD000401C1749086094F82C10012088401549E3
:100AE0000968084313490860E16A01EB8101124A71
:100AF00002EB8100211D00F0B1FF00F0CDFF0B489B
:100B0000006868B108480068C06AE16A884207D294
:100B10004FF0805009490860BFF34F8FBFF36F8FCC
:100B200010BD0000B4000020A4000020C000002080
:100B3000D0000020BC0000202C01002004ED00E0CB
:100B400070B523E001F034F91348006808B90120BA
:100B500000E00020054601F001FCBDB900F08AFF6D
:100B60000D48C068C468201D00F03AFF0B480068BB
:100B7000401E0A4908600A480068401E084908608B
:100B800000F08AFF204600F057F800BF04480068D4
:100B90000028D7D170BD0000CC010020B400002097
:100BA000B000002070B504460D46206C70B1216C79
:100BB000E0680844E0606168E068884201D320682A
:100BC000E0602846226CE168FFF704FB70BD2DE968
:100BD000F04104460F4615464FF00008A66B206C06
:100BE00028B37DB93946226CA068FFF7F3FA216C6F
:100BF000A0680844A060D4E90110884217D3206897
:100C0000A06014E03946226CE068FFF7E3FA216C3B
:100C1000E068401AE0602168E068884203D2216CF5
:100C20006068401AE060022D01D106B1761E701C8A
:100C3000A0634046BDE8F08110B50446206B00F08B
:100C40003BFF204600F038FF10BD00000A4A22F0AA
:100C500007000A4A10600022084B5A6044F2F8323A
:100C6000074B5A6000221A60014644F2F8324A608B
:100C70001A460A6070470000FC010020E0000020D6
:100C8000E800002000BFFFF75BFF0648006801286E
:100C9000F9D94FF0805004490860BFF34F8FBFF37C
:100CA0006F8FF0E72C01002004ED00E02DE9F0410A
:100CB00006460D4617469846069C0DB9246000E08E
:100CC0002760E66325640121204601F097F9BDE81D
:100CD000F0812DE9FF5F80460E469146DDE90E7AF0
:100CE000109CA9F10100216B01EB800B2BF0070B8D
:100CF000002507E0715D04F134004155705D00B9D5
:100D000002E06D1C102DF5D300BF002143200155DA
:100D1000052F00D30427E762201D00F082FE04F1B6
:100D2000180000F07EFE2461C7F10500A061646236
:100D30000020606484F8480041465846039A00F059
:100D40000BF92060BAF1000F01D0CAF80040BDE8ED
:100D5000FF9F000010B5002407E004EB84010F4A58
:100D600002EB810000F050FE641C052CF5D30C480A
:100D700000F04AFE0B4800F047FE0B4800F044FE2E
:100D80000A4800F041FE0A4800F03EFE04480949C6
:100D9000086004480849086010BD00002C010020CC
:100DA00090010020A4010020B8010020CC01002007
:100DB000E0010020A8000020AC00002070B505462E
:100DC00000F058FEA86B08B9012400E0002400F0F0
:100DD00063FE204670BD00000A490968096809B928
:100DE000012100E0002121B14FF0FF31064A1160DE
:100DF00006E004490968C968C868034A4168116087
:100E000070470000A8000020D400002000BFBF20D1
:100E100080F31188BFF34F8FBFF36F8F00BF00BF08
:100E2000FEE770B5044600F025FE94F9455010E049
:100E3000606A08B9012000E0002038B904F12400FC
:100E400001F04CFA18B100F05FFF00E003E0681E0B
:100E500045B2002DECDC00BFFF2084F8450000F017
:100E60001BFE00F007FE94F9445010E0206908B919
:100E7000012000E0002048B904F1100001F02EFA32
:100E800008B100F041FF681E45B200E001E0002D0E
:100E9000ECDC00BFFF2084F8440000F0FDFD70BDD5
:100EA0002DE9F04104464FF0000800F081FF26488C
:100EB000006820B9FFF7CAFE01202349086044B149
:100EC000083404F0070020B104F00700C0F1080066
:100ED0000444002C32D044F2F83084422ED21B4F0E
:100EE0003846056801E02F462D686868A04202D2A6
:100EF00028680028F7D1164885421FD0386800F1CD
:100F00000808286838606868001B102810D92E1956
:100F10006868001B70606C6071680C4800E00068D5
:100F2000026852688A42FAD302683260066000BFE3
:100F3000084968680968081A0649086001F00EFA4D
:100F40004046BDE8F0810000F4000020E0000020F1
:100F5000E8000020F0000020001F4FF080730360C5
:100F6000001F21F001030360001F034B03601438CE
:100F700002602038704700000D0E00082DE9F04F88
:100F80008BB00746002009903EA090E8004CC06856
:100F9000CDE905BECDF810A007900FF2EC0ADAE912
:100FA000000ACDE9020A0FF2E00ADAE9000ACDE907
:100FB000000A38484068C0F381000A900A9820B1BE
:100FC000012804D0022829D103E0334928E032491E
:100FD00026E03048406800F48038B8F5803F09D1F9
:100FE0002D4C2C48406800F40039B9F5003F02D17F
:100FF000641000E0294C27484068C0F3834225482C
:10100000406800F0006008B142F010020F2A01D2DF
:10101000921C00E0521C04FB02F101E01E4900BFDB
:1010200000BF1C484068C0F3031504A8465D21FAC0
:1010300006F318484068C0F3022502A8465D23FA6B
:1010400006FC14484068C0F3C2251DF8056023FA69
:1010500006F0089037B1012F06D0022F06D0032FDB
:101060000AD106E0099108E0099306E0CDF824C012
:1010700003E00898099000E000BF00BF09980BB09A
:10108000BDE8F08F00000000000000000102030432
:10109000060708090010024000127A0000093D000E
:1010A00010B540F2076000F009F840F2037000F05C
:1010B00005F840F20E6000F001F810BD064A02EBA0
:1010C0009011096800F01F0301229A401143024B5E
:1010D00003EB90121160704700100240064A02EBC9
:1010E0009011096800F01F0301229A409143024BBE
:1010F00003EB90121160704700100240064A02EBA9
:101100009011096800F01F0301229A401143024B1D
:1011100003EB901211607047001002400020002184
:101120002C4A126842F480322A4B1A6000BF401CDD
:10113000284A126802F4003119B94FF6FF72904242
:10114000F5D1244A126802F400320AB900BFFEE762
:10115000204A52681F4B5A601A4652685A601A4613
:10116000526842F480625A601A46526822F4403251
:101170005A601A46526842F440325A601A4652681F
:10118000154B1A40134B5A601A465268134B1A43B8
:10119000104B5A601A46126842F080721A6000BF03
:1011A0000C4A126802F00072002AF9D0094A52680B
:1011B00022F00302074B5A601A46526842F00202BC
:1011C0005A6000BF034A526802F00802002AF9D0B0
:1011D0007047000000100240FFFFC3F7000028081E
:1011E00010B5FFF79BFF10BD016841F08001016061
:1011F0007047000010B531B101293FD002297DD0E0
:1012000003297CD1BFE0036A23F001030362036A70
:10121000146823430362036A23F002030362036A30
:10122000D488234303626C4B984202D06B4B9842A4
:101230001FD1036A23F004030362036A94882343E3
:101240000362036A23F008030362036A14892343D9
:101250000362436823F480734360436854892343E3
:101260004360436823F400734360436894892343D5
:101270004360836923F003038361ABE0036A23F0D7
:1012800010030362036A146843EA04130362036AE7
:1012900023F020030362036AD48843EA0413036241
:1012A0004D4B984202D04D4B984223D1036A23F014
:1012B00040030362036A948843EA04130362036AE7
:1012C00023F080030362036A148943EA0413036270
:1012D000436823F4806343604368548943EA84038A
:1012E0004360436823F4006343604368948943EA9E
:1012F00084034360836923F4407301E002E068E003
:10130000836167E0036A23F480730362036A1468ED
:1013100043EA04230362036A23F400730362036A4B
:10132000D48843EA042303622B4B984202D02B4B10
:10133000984223D1036A23F480630362036A94888A
:1013400043EA04230362036A23F400630362036A2B
:10135000148943EA04230362436823F480534360FF
:101360004368548943EA04134360436823F40053F9
:1013700043604368948943EA04134360C36923F0DC
:101380000303C36126E0036A23F480530362036A04
:10139000146843EA04330362036A23F400530362CC
:1013A000036AD48843EA043303620B4B984202D0A9
:1013B0000A4B984208D1436823F480434360436852
:1013C000548943EA84134360C36923F44073C361BF
:1013D00000E000BF00BF10BD002C01400034014000
:1013E00031B101290CD0022913D0032922D118E0F0
:1013F000836923F0700383618369134383611AE077
:10140000836923F4E0438361836943EA02238361B0
:1014100011E0C36923F07003C361C3691343C3615F
:1014200009E0C36923F4E043C361C36943EA0223CB
:10143000C36100E000BF00BF704731B1012906D091
:10144000022906D0032908D105E0426306E0826341
:1014500004E0C26302E0026400E000BF00BF704726
:1014600031B101290CD0022913D0032922D118E06F
:10147000836923F0080383618369134383611AE05E
:10148000836923F400638361836943EA02238361F0
:1014900011E0C36923F00803C361C3691343C36147
:1014A00009E0C36923F40063C361C36943EA02230B
:1014B000C36100E000BF00BF7047000000B589B005
:1014C0004FF4E060FFF7FAFD40F20170FFF7F6FD20
:1014D00040F20270FFF7F2FD40F20B60FFF7EEFD05
:1014E0004FF0804000F0CEF8634800F0CBF863483E
:1014F00000F0C8F8624800F0C5F80920ADF8040013
:101500000020ADF80600ADF8080040F21B10039073
:101510000020ADF810008DF8120001A94FF08040B6
:1015200000F028F90020ADF81A00012005900020F5
:10153000ADF81C00ADF81800ADF81E00ADF82000A5
:1015400005AA01218807FFF755FE0022012188071F
:10155000FFF773FF602201218807FFF741FF002298
:1015600001218807FFF77CFF4FF08040FFF73CFE2A
:101570000121880700F068F94FF0804000F0F5F88D
:101580006B20ADF804000020ADF80600ADF80800AF
:10159000092003900020ADF810008DF8120001A979
:1015A000354800F0E7F83448FFF71EFE01213248C5
:1015B00000F04AF9304800F0D8F80620ADF80400F1
:1015C0000020ADF80600ADF80800FE2003900020D2
:1015D000ADF810008DF8120001A9284800F0CAF8F3
:1015E0000020ADF81A00012005900020ADF81C0085
:1015F000ADF81800ADF81E00ADF8200005AA0121D5
:101600001E48FFF7F7FD002201211C48FFF715FFD8
:10161000602201211948FFF7E3FE0022012117484B
:10162000FFF71EFF1548FFF7DFFD0121134800F00B
:101630000BF9124800F094F80A20ADF804000020DD
:10164000ADF80600ADF8080040F2793003900020B4
:10165000ADF810008DF8120001A9094800F08AF8D1
:101660000748FFF7C1FD0121054800F0EDF80448E7
:1016700000F076F809B000BD00040040000800400A
:10168000002C014010B504463349601A8C4244D006
:101690000CDCB4F1804F1CD03048204410B3B0F5BE
:1016A000806F28D0B0F5006F52D12DE0B0F5806F7B
:1016B0003CD0B0F58E3F03D0B0F5923F48D13EE02C
:1016C00040F20B30FFF71AFD40F20B30FFF706FD3A
:1016D0003FE04FF48060FFF711FD4FF48060FFF7AB
:1016E000FDFC36E040F20140FFF708FD40F201400A
:1016F000FFF7F4FC2DE040F20240FFF7FFFC40F260
:101700000240FFF7EBFC24E040F20340FFF7F6FC59
:1017100040F20340FFF7E2FC1BE040F20440FFF719
:10172000EDFC40F20440FFF7D9FC12E040F2054026
:10173000FFF7E4FC40F20540FFF7D0FC09E040F27F
:101740000D30FFF7DBFC40F20D30FFF7C7FC00E087
:1017500000BF00BF10BD00000010004000FCFFBF34
:10176000016821F0010101607047016841F0010149
:10177000016070470A888262264A904220D0B0F108
:10178000804F1DD0244A90421AD0244A904217D04C
:10179000234A904214D0234A904211D0224A9042C8
:1017A0000ED0224A90420BD0214A904208D0214AC2
:1017B000904205D0204A904202D0204A90420BD15C
:1017C000026822F07002026002684B881A430260CD
:1017D00002688B881A4302608A68C262184A904283
:1017E0000AD0184A904207D0026822F44072026080
:1017F00002688B891A430260064A904202D0094A65
:10180000904201D18A7B0263426942F00102426147
:1018100070470000002C0140000400400008004018
:10182000000C004000340140004C014000500140D9
:101830000054014000180040001C004000200040FF
:101840000010004000140040C2680A43C2607047A4
:1018500002698A43026170470246D06800EA0103C8
:101860001069084010B10BB1012070470020FCE75F
:101870002DE9F04704460D460027B846B946002634
:101880001D49601A8C421CD006DC1C48204470B1F3
:10189000B0F5806F1FD10FE0B0F5806F16D0B0F5B6
:1018A0006C4F18D10320FFF769FB074614E00220B4
:1018B000FFF764FB07460FE00220FFF75FFB0746D8
:1018C0000AE00220FFF75AFB074605E00220FFF777
:1018D00055FB074600E000BF00BF07EB5500B0FB1B
:1018E000F5F64FF6F07006EA000806F00F0948EA30
:1018F0000900A060BDE8F087004C004000BCFFBFBD
:10190000C1F308024260704710B504462049601ACE
:101910008C4228D006DC1F48204490B1B0F5806F7F
:1019200033D117E0B0F5806F26D0B0F56C4F2CD1D5
:1019300040F20E30FFF7E2FB40F20E30FFF7CEFB35
:1019400024E040F21140FFF7D9FB40F21140FFF7CD
:10195000C5FB1BE040F21240FFF7D0FB40F2124003
:10196000FFF7BCFB12E040F21340FFF7C7FB40F269
:101970001340FFF7B3FB09E040F21440FFF7BEFB52
:1019800040F21440FFF7AAFB00E000BF00BF10BD0B
:10199000004C004000BCFFBFC16841F40051C16071
:1019A000704710B5024602EB9110006801F01F0469
:1019B0000123A340184008B1012010BD0020FCE71E
:1019C0000A460021C16821F004011143C16070473B
:1019D0000A460021C16821F008011143C160704727
:1019E00001460A69D1E901309860D1E901035860E4
:1019F0005068884201D188685060002008611068F2
:101A0000401E10601068704700F1080141604FF0FF
:101A1000FF31816000F10801C160016100210160B6
:101A2000704700210161704710B502460B685C1CCD
:101A30000CB9106907E002F1080000E04068446852
:101A400024689C42FAD944684C604C68A160886064
:101A500041600A611468641C146010BD42684A60E9
:101A600093688B60936859609160086103685B1CA0
:101A70000360704700BFBF2080F31188BFF34F8F12
:101A8000BFF36F8F00BF03480068401C0149086026
:101A900070470000F800002006480068401E054915
:101AA00008600846006820B9002080F3118800BF54
:101AB00000BF7047F800002070B506463546B6B145
:101AC000083D2C4600F074F96168094800E00068A0
:101AD000026852688A42FAD30268226004600549AB
:101AE0006068096808440349086000F037FC70BD6D
:101AF000E0000020F000002003484FF0E0214861A2
:101B000007200861704700003F1901001AE0032018
:101B1000FEF702FE98B94FF08040FFF726FE0A4814
:101B2000FFF723FE0948FFF720FE0948FFF71DFED7
:101B300008A0FEF7B7FC4FF4757000F039F80120EB
:101B400000F036F8E3E70000000400400008004021
:101B5000002C014049276D205461736B3232320DE5
:101B60000A00000006E004A0FEF79CFC4FF4FA70A7
:101B700000F01EF8F7E7000049276D205461736BF1
:101B800035353535353535350D0A000006E004A00C
:101B9000FEF788FC4FF47A7000F00AF8F7E70000CF
:101BA00049276D205461736B33333333330D0A008F
:101BB00070B50446002544B100F0FAF80021204633
:101BC000FEF718FF00F0CAFB05463DB94FF0805004
:101BD00003490860BFF34F8FBFF36F8F70BD0000E4
:101BE00004ED00E008B500254FF4967000903D48E4
:101BF000047800220421012000F046F93A490860E7
:101C00006FE000231A4669463748006800F058F92B
:101C1000012863D10098B0F5617F04D10022012131
:101C20008807FFF70AFC40F214510098884204D15B
:101C3000642201210007FFF700FC072D16DB0025B9
:101C40000020009027480478002201218807FFF730
:101C5000F4FB2648FFF784FD4FF08040FFF780FD3E
:101C600000202349086023A0FEF71CFC04F00100BB
:101C7000D0B140F24C510098884204D10022012199
:101C80008807FFF7DAFB40F2DC510098884225D143
:101C9000642201218807FFF7D0FB6410681CC5B2DD
:101CA00040F21450009019E040F2A451009888428C
:101CB00004D1002201210007FFF7BFFB40F2DC51F5
:101CC000009888420AD1642201218807FFF7B5FBFA
:101CD0006410681CC5B240F2145000900120FFF758
:101CE00067FF8EE708000020040000200004004089
:101CF000FC00002073656E642061206D6573736164
:101D00006765210D0A000000012001490860704745
:101D1000C800002070B505460C460548016818311A
:101D20002846FFF781FE01212046FEF763FE70BDC5
:101D3000A400002003490968016003490968416063
:101D400070470000CC000020B80000201CB51148EE
:101D500000210B468022CDE900100FA1104800F0B1
:101D6000FFF90446012C14D100BFBF2080F3118875
:101D7000BFF34F8FBFF36F8F00BF4FF0FF300949A4
:101D8000086001200849086000200849086000F048
:101D900047F81CBDD800002049444C450000000015
:101DA000850C0008D4000020C0000020B8000020EE
:101DB00002480068401C014908607047DC000020B0
:101DC0001248006818B10120114908601DE0002088
:101DD0000F4908600F480068B0FA80F0C0F11F0199
:101DE00001EB81020C4B03EB8200426852684260B7
:101DF00000F108024368934202D14268526842608F
:101E00004268D268054B1A6000BF7047DC000020B2
:101E1000C8000020BC0000202C010020A4000020ED
:101E200010B50A48006840F47F0008490860084679
:101E3000006840F07F400860FFF75EFE0020044924
:101E40000860FEF77BF9002010BD000020ED00E0E7
:101E5000F800002010B500BFBF2080F31188BFF349
:101E60004F8FBFF36F8F00BF00F0AAF918B14FF08A
:101E700080500449086000BF002080F3118800BF33
:101E800010BD000004ED00E02DE9F84307460D46C3
:101E900090460DB9002601E007FB05F606F1480063
:101EA000FEF7FEFF044644B104F1480943464A46A2
:101EB000294638460094FEF7F9FE2046BDE8F8832F
:101EC0002DE9FF4782B0054689461E464FF0000ABD
:101ED0002C4600BFFFF7CEFDD4F83880B8F1000FD4
:101EE00036D0E76849462046FEF75CFEB6B9A8F151
:101EF0000100A063206908B9012000E0002008BBB0
:101F000004F1100000F0EAF9E0B14FF080503A49D6
:101F10000860BFF34F8FBFF36F8F13E0E760606A15
:101F200008B9012000E0002060B904F1240000F0AD
:101F3000D5F938B14FF080502F490860BFF34F8F6B
:101F4000BFF36F8FFFF7A8FD012006B0BDE8F08753
:101F5000049818B9FFF7A0FD0020F6E7BAF1000FCA
:101F600004D16846FFF7E6FE4FF0010AFFF794FD43
:101F7000FFF71EFFFFF77EFD94F94400401C10B9E7
:101F8000002084F8440094F94500401C10B900205A
:101F900084F84500FFF780FD04A9684600F0B2F818
:101FA000F0B92046FEF70AFFA0B104F1240004991D
:101FB000FFF7B0FE2046FEF734FF00F0CFF900280F
:101FC00088D14FF080500C490860BFF34F8FBFF3AA
:101FD0006F8F7FE72046FEF724FF00F0BFF979E717
:101FE0002046FEF71EFF00F0B9F92046FEF7E6FE98
:101FF0000028EED00020A8E704ED00E070B505460B
:102000000E462C46FFF736FDD4E90F12206801FB7F
:10201000020060600020A0632068A060E06B401EAA
:10202000226C216800FB0210E060FF2084F844006D
:1020300084F845009EB9206908B9012000E000201D
:10204000A8B904F1100000F049F980B14FF08050B8
:1020500009490860BFF34F8FBFF36F8F07E004F1AA
:102060001000FFF7D1FC04F12400FFF7CDFCFFF7CF
:1020700013FD012070BD000004ED00E02DE9F05FCC
:1020800005468A4616461F462C4600BFBF21EFF381
:10209000118081F31188BFF34F8FBFF36F8F00BFA3
:1020A0008146A06BE16B884201D3022F20D194F9C5
:1020B00045B03A4651462046FEF789FD0BF1010036
:1020C00070B9606A08B9012000E0002068B904F125
:1020D000240000F003F940B13EB10120306004E07B
:1020E0000BF1010040B284F845004FF0010801E017
:1020F0004FF0000800BF89F3118800BF4046BDE8DB
:10210000F09F000070B504460D46FFF7B3FC12487F
:1021100002682868401C08B9002619E00F492068A9
:102120000968884204D06068904201D801260FE017
:102130006068101A2968884209D228686168511AB3
:10214000401A28602046FFF7F5FD002600E0012632
:10215000FFF7A2FC304670BDB8000020CC00002084
:102160002DE9FF4F85B0804689461746DDE912AB61
:10217000B800FEF795FE064656B14C20FEF790FEDD
:1021800004460CB1266304E03046FFF795FC00E0FE
:1021900000247CB10020CDE900ABCDE902403A46F5
:1021A00049464046089BFEF794FD2046FEF76EFC2C
:1021B000012501E04FF0FF35284609B0BDE8F08F5A
:1021C0002DE9F04100273A480068002863D13948DA
:1021D0000068451C374805608DB93748D0F8008045
:1021E00036480068344908603448C0F800803448F4
:1021F0000068401C32490860FEF7EEFD00BF314820
:10220000006885423BD300BF2B480068006808B9CE
:10221000012000E0002020B14FF0FF302949086084
:102220002CE025480068C068C4686668B54202D2E0
:102230002448066022E0201DFFF7D2FBA06A18B1F7
:1022400004F11800FFF7CCFB94F82C100120884013
:102250001D49096808431C490860E16A01EB8101D6
:102260001A4A02EB8100211DFFF7F8FB1849E06ACA
:102270000968C96A8842C7D30127C5E700BF144867
:102280000068C06A00EB8000104951F82000012866
:1022900000D9012704E00F480068401C0D49086080
:1022A0000D48006800B101273846BDE8F081000004
:1022B000DC000020B8000020A8000020AC000020B6
:1022C000CC000020D4000020BC0000202C01002005
:1022D000A4000020C4000020C800002070B50646FD
:1022E000F068C46804F11800FFF77AFB154800682D
:1022F000A8B9201DFFF774FB94F82C10012088402A
:1023000011490968084310490860E16A01EB81013D
:102310000E4A02EB8100211DFFF7A0FB04E004F14F
:1023200018010B48FFF79AFB0A49E06A0968C96A75
:10233000884204D9012501200749086000E00025F2
:10234000284670BDDC000020BC0000202C010020CD
:10235000B8010020A4000020C800002070B50024AF
:102360000026FFF787FB2E480068401E2C490860B6
:102370000846006800284FD12A48006800284BD042
:1023800024E02948C068C46804F11800FFF728FB5E
:10239000201DFFF725FB94F82C10012088402349CD
:1023A0000968084321490860E16A01EB8101204A7C
:1023B00002EB8100211DFFF751FB1E49E06A09680D
:1023C000C96A884202D301201B4908601648006888
:1023D00008B9012000E000200028D2D00CB1FEF79F
:1023E000FBFC1648056865B100BFFFF7E9FE10B1B8
:1023F0000120114908606D1E002DF6D100200F4903
:1024000008600D48006838B1012630070C490860A3
:10241000BFF34F8FBFF36F8FFFF73EFB304670BDAA
:10242000DC000020B4000020B8010020BC00002027
:102430002C010020A4000020C8000020C4000020BF
:1024400004ED00E064240008000000202C010000DE
:102450001C020008D82400082C010020CC480000F1
:10246000C4040008810210583C100140044A1804BA
:1024700032013204290832023D0E061107092904EF
:10248000291929041A082C19041E0206020604023E
:102490002901391429484A0C1C29401132204A408C
:1024A00007292A4B0306586918511A0212130D0EF8
:1024B000044D06282863F8431AAA01011039841133
:1024C000100B0A0B0C0D0E0F101112137009C0C85F
:0824D000846068341D0E000059
:0400000508000105E9
:00000001FF
