:020000040800F2
:10000000784B0020B1010008BD0600080D0500086E
:10001000B906000831030008550900080000000077
:1000200000000000000000000000000019010008AE
:10003000E5040008000000005D010008FD23000841
:10004000CB010008CB010008CB010008CB01000860
:10005000CB010008CB010008E9040008CB0100082F
:10006000CB010008CB010008CB010008CB01000840
:10007000CB010008CB010008CB010008CB01000830
:10008000CB010008CB010008CB010008CB01000820
:10009000CB010008CB010008CB010008CB01000810
:1000A000CB0100089D070008CB010008CB01000828
:1000B000CB010008FD070008CB010008CB010008B8
:1000C000CB010008CB010008CB010008CB010008E0
:1000D000CB010008CB010008CB010008CB010008D0
:1000E000CB010008CB010008CB0100080000000094
:1000F0000000000000000000000000000000000000
:10010000CB010008DFF80CD000F088F80048004769
:10011000790D0008784B0020224B19680868B0E878
:10012000F00F80F30988BFF36F8F4FF0000080F36A
:1001300011884EF00D0E7047000000000648006860
:10014000006880F3088862B661B6BFF34F8FBFF3D3
:100150006F8F00DF00BF00BF08ED00E0EFF3098004
:10016000BFF36F8F0F4B1A6820E9F00F106008B5CE
:100170004FF0BF0080F31188BFF34F8FBFF36F8F35
:1001800002F0F2F84FF0000080F31188BDE808405B
:1001900019680868B0E8F00F80F30988BFF36F8F23
:1001A000704700BFE0000020EFF3058070470000BB
:1001B0000648804706480047FEE7FEE7FEE7FEE701
:1001C000FEE7FEE7FEE7FEE7FEE7FEE73907000889
:1001D0000501000840EA01039B0703D009E008C9B4
:1001E000121F08C0042AFAD203E011F8013B00F8FC
:1001F000013B521EF9D27047D2B201E000F8012B48
:10020000491EFBD270470022F6E710B513460A4696
:1002100004461946FFF7F0FF204610BD064C074D77
:1002200006E0E06840F0010394E8070098471034C6
:10023000AC42F6D3FFF76AFFEC2900080C2A00084D
:1002400070B58C1810F8015B15F0070301D110F898
:10025000013B2A1106D110F8012B03E010F8016BC5
:1002600001F8016B5B1EF9D12B0705D40023521E48
:100270000DD401F8013BFAE710F8013BCB1A921CB0
:1002800003E013F8015B01F8015B521EF9D5A142AE
:10029000D8D3002070BD00001CB500200521034606
:1002A0004022CDE9001011A1134802F02DFA0020E0
:1002B000022103464022CDE9001010A1124802F0AD
:1002C00023FA0020042103464022CDE900100FA1AB
:1002D000124802F019FA0020032103464022CDE91A
:1002E00000100FA1114802F00FFA1CBD7654617383
:1002F0006B41747461636B00E91F0008696E66727C
:1003000061726564000000008D21000876546173FD
:100310006B426541747461636B0000004920000802
:10032000765461736B436F7265000000B92000085A
:1003300000BFFEE710B500F050F83B2000F067F872
:1003400010BD70B5044600F09BF844F0800000F04A
:10035000D7F9FF2000F0D4F9054600F089F82846C7
:1003600070BD2DE9F04107460D4616460EB9002432
:1003700005E0012E03D10920FFF7E3FF0446FFF754
:10038000D9FF0720FFF7DDFF20F0030048B1681C0C
:10039000C1B23F2000F05DF821463F2000F059F83F
:1003A00003E029463F2000F054F82A4639463F2012
:1003B00000F037F8002000F015F800BF032000F02F
:1003C00005FC0028FAD100BF032000F0FFFB002845
:1003D000FAD0FFF7AFFFBDE8F08110B5362000F08E
:1003E00016F810BD10B504463CB94621022000F0B5
:1003F00030F8352000F00BF808E0012C06D146213A
:10040000022000F026F8342000F001F810BD10B5ED
:10041000044600F035F8204600F072F900F028F8A4
:1004200010BD2DE9F04105460E46174600F028F8AC
:1004300045F0400000F064F9002404E0305D00F075
:100440005FF9601CC4B2BC42F8DB00F011F8BDE8F3
:10045000F08170B505460C4600F012F8284600F011
:100460004FF9204600F04CF900F002F870BD000092
:1004700010B58021014800F0BBFB10BD000C01400D
:1004800010B58021014800F0B1FB10BD000C014007
:1004900001200E49087064204870012088700846C9
:1004A00040780B4908720B480068086000204860DB
:1004B00008480068084908600120087100200749C1
:1004C000086008710120064908707047000000208C
:1004D0006C01002018000020040000200C00002007
:1004E000140000207047000010B5012000F0C4FA8D
:1004F00048B164220121880701F00DFA0120024968
:10050000087000F0B3FA10BD4A01002000BFFEE7FA
:1005100000F4004100297DD05049C989002960DDDF
:100520004E498989B1F5487F18DD4C498989B1F573
:100530007A7F13DA4949C989B1F5967F0EDD4749BB
:10054000C989B1F5FA7F09DA4449097C002948D103
:100550000121424A11740021117242E03F49097C95
:10056000D9B13E498989382917DD3C49C9893829DB
:1005700013DD3A4909684900384A11601146097A81
:10058000491C117211468989D289354B1A4491420E
:1005900027DD0021314A117423E03049097C01B381
:1005A0002E49898938291CDD2C49C989A02918DDE3
:1005B0002A4909684900294A11601146096841F031
:1005C000010111601146097A491C1172114689898D
:1005D000D28944F620631A44914202DD00211F4A69
:1005E00011741E49097A1F291FDB1C4909681D4A1D
:1005F00011601146096841F0004111600021174A5D
:10060000117411721749098889B2174A126811606A
:10061000144900E017E009780021134A12681171AB
:10062000114909680831104A11600C49C98940F61E
:10063000C412914202DD0021084AD18100F07F01FD
:10064000064A918108E00549C8818989B1F5FA6FA8
:1006500002DD0021014A11747047000048020020A9
:10066000400D03003C0000203800002000210E4A0D
:10067000116011749181D1819172517251745182C2
:100680001172002008E00021084A42F8301002EB05
:10069000C0021171411CC8B20A28F4DB0349044AA4
:1006A0001160044A1160704748020020F8010020E0
:1006B000340000203800002000BFFEE77047000033
:1006C0002DE9F04391B004460D4600260027B046C0
:1006D000B14644216846FFF796FD0122294620468F
:1006E000FFF73FFE0120FFF77DFE4FF448700349FE
:1006F00008800126012011B0BDE8F08350010020E0
:1007000010B5044621460B4800F06CFF00BF0221E3
:10071000084800F069FF0028F9D000BF0121054812
:1007200000F062FF0028F9D0024800F057FFC0B285
:1007300010BD00000030014010B51448006840F0C2
:1007400001001249086008464068114908400F49F5
:100750004860084600680F4908400C490860084690
:10076000006820F480200860084640680A49084074
:100770000649486008460068064908400349086081
:100780004FF41F00886000F099FF10BD0010024078
:100790000C00FFE8FFFFF6FEFFFF00F710B5ADF518
:1007A000BA4D0121124801F0C5FAE8B111480168BB
:1007B0000068401C0F4B186034A8425C01210E48B1
:1007C00001F0A9F80B480068B0F5FA6F08D30020D3
:1007D00008490860084801F031FA054801F02EFA8E
:1007E0000121034801F0A2FA0DF5BA4D10BD000039
:1007F000002C0140400100200008004010B50121FC
:100800004B4801F097FA00287ED04A480078C0B3E0
:1008100049480068401C484908604848006880B35F
:1008200008460068B0F5617F17D00846006840F2BE
:100830001451884211D04048006840F24C5188421F
:100840000BD03D48006840F2DC51884205D03A4860
:10085000006840F2A451884213D1374800683849F3
:10086000086000231A463548006801F0DBFE324874
:10087000006840F2DC51884203D140F215502E4905
:100880000860102000F0A2F928B32E48008880B13B
:100890002C480088C0F30E002A49088008460288C8
:1008A000294801780078401C274B1870274820F809
:1008B000112000202349088025480088401C244935
:1008C00008800846008847F6FF7188422ADB00202E
:1008D0001F49088026E01E48008880B11C48008817
:1008E00040F400401A4908800846028816480178FA
:1008F0000078401C144B1870144820F81120002078
:10090000134908800F4800E010E00088401C0D49A2
:1009100008800846008847F6FF71884202DB002005
:10092000084908800121024801F000FA10BD0000CA
:100930000004004048010020380100202000002071
:100940003C010020460100204901002024470020EE
:100950004401002000BFFEE7014A024900F013B83D
:100960009D0A00086801002002E008C8121F08C1A3
:10097000002AFAD170477047002001E001C1121F20
:10098000002AFBD170472DE9F04116460F46044678
:10099000002503E03946B047641C6D1C2078002810
:1009A000F8D12846BDE8F08110B50021084600F0D6
:1009B000CDF810BD10B52C4B1B6883432A4C236027
:1009C000231D1B688343241D2360231D1B68834351
:1009D000241D2360231D1B688343241D236011B144
:1009E00001290ED105E0204B1B6803431E4C2360F8
:1009F00008E01D4B1B1D1B6803431B4C241D23607B
:100A000000E000BF00BF22B1012A0FD0022A27D187
:100A100019E0154B08331B680343134C083423605B
:100A2000231D1B688343241D23601AE00E4B0833EB
:100A30001B6883430C4C08342360231D1B6803434D
:100A4000241D23600DE0084B08331B680343064C4C
:100A500008342360231D1B680343241D236000E02A
:100A600000BF00BF10BD0000000401400149086044
:100A7000704700001404014001460748006800EA7E
:100A8000010205481438006800EA010312B10BB1F5
:100A9000012070470020FCE71404014070B50446B3
:100AA0000D46E1B2054801F099F900BF072103485E
:100AB00001F0E5F90028F9D0204670BD003801406A
:100AC00070B5054600241B48854200D100E0012492
:100AD000194931F8140000F051FD184931F814009B
:100AE00000F04CFD164951F82430164951F8240005
:100AF0000322182100F0EEF8134951F8243011496F
:100B000051F824000322042100F0E4F8284601F003
:100B100069F94FF4E131284601F018F9042128461B
:100B200001F0BCF90821284601F0C0F9284601F07F
:100B3000A1F970BD003801407C0000206000002059
:100B400064000020740000206C00002070B5044692
:100B50000D46174931F8140000F010FD4FF4C06045
:100B600000F00CFD134951F82430134951F82400CA
:100B70000322042100F0AEF8012D17D10F49085DC2
:100B80000022022100F03AF90D4A115D0D4A105D74
:100B900000F054F80C4951F8240001220021FFF71D
:100BA00009FF094951F82400FFF760FF70BD0000FC
:100BB000B00000209C00002088000020DA00002007
:100BC000D5000020D0000020BC00002010B5044655
:100BD000044A52F82410044A52F8240000F0C4F8E1
:100BE00010BD00009C00002088000020416170477B
:100BF0000161704710B540F2026000F0BFFC4FF495
:100C0000C06000F0BBFC022303221821094800F059
:100C100061F840F2036000F0B1FC80230322102150
:100C2000054800F057F8302303224821014800F01E
:100C300051F810BD00080140000C014010B5002221
:100C40008B071C0F0F2303FA04F204290EDA204B42
:100C50009B6893431E4CA36023469B688C07240F1C
:100C600000FA04F423431A4CA3602FE008290EDA9B
:100C7000174BDB689343164CE3602346DB688C0715
:100C8000240F00FA04F42343114CE3601EE00C2906
:100C90000EDA0F4B1B6993430D4C236123461B69EE
:100CA0008C07240F00FA04F42343094C23610DE060
:100CB000074B5B699343064C636123465B698C0772
:100CC000240F00FA04F42343014C636110BD0000BB
:100CD00000000140F0B5044616460025002201F050
:100CE0000F0501F0100707B13543002018E0012778
:100CF00087401F4097B122684FEA800C0F2707FA00
:100D00000CF7BA43870005FA07F73A43282901D1BF
:100D1000636102E0482900D123612260471CB8B218
:100D20000828E4D308201CE0012787401F40B7B102
:100D30006268A0F108074FEA870C0F2707FA0CF743
:100D4000BA43A0F10807BF0005FA07F73A4328297C
:100D500001D1636102E0482900D123616260471C30
:100D6000B8B21028E0D3F0BD02469068084008B140
:100D7000012070470020FCE700F0F2FB0C48FFF771
:100D80009FFEFFF737FFFFF70FFE00F023F800F09C
:100D900003FEFFF77DFB07A0FFF7DEFD09A0FFF7CD
:100DA000DBFDFFF779FA01F0A5FA00BFFEE70000CE
:100DB00000380140426567696E20616463210D0A55
:100DC0000000000074657374206F766572210D0A4F
:100DD0000000000010B54FF4C06000F061F801227F
:100DE00011461D2000F00AF84FF4C06000F058F8DA
:100DF00002220121192000F001F810BDF0B50B46C8
:100E0000002100240025244E366806F4E066B6F57D
:100E1000E06F02D100BF042526E01F4E366806F4BD
:100E2000E066B6F5C06F02D1012403251CE01A4E1E
:100E3000366806F4E066B6F5A06F02D102240225FA
:100E400012E0154E366806F4E066B6F5806F02D102
:100E50000324012508E0104E366806F4E066B6F576
:100E6000407F01D104240025C4F1040603FA06F1F1
:100E7000C5F104070F26FE40164031430901074E15
:100E8000315400F01F070126BE404711BF0007F193
:100E9000E027C7F80061F0BD0CED00E000E400E0E1
:100EA00002490143024A1160704700000000FA0540
:100EB0000CED00E02DE9F04105460E461C480768A0
:100EC0001C480068001D00F0F9FF50B9194800687F
:100ED00090F82C1001208840174909688143164872
:100EE0000160681C38B936B112480168091D134801
:100EF00001F022F81AE07C190E4800684460BC42F8
:100F000007D20C480168091D0D48006800F0FAFF7F
:100F10000CE008480168091D0A48006800F0F2FF6B
:100F200009480068844201D207480460BDE8F081A6
:100F3000F4000020E0000020F80000201003002052
:100F4000E8000020E40000201001002010B5044655
:100F500000F0FEFF23480068401C22490860224838
:100F6000006840B9204804600846006801280DD197
:100F700000F050F90AE01D48006838B91A480068C6
:100F8000C06AE16A884201D81748046018480068BE
:100F9000401C1749086094F82C100120884015491E
:100FA0000968084313490860E16A01EB8101124AAC
:100FB00002EB8100211D00F0BFFF00F0DBFF0B48BA
:100FC000006868B108480068C06AE16A884207D2D0
:100FD0004FF0805009490860BFF34F8FBFF36F8F08
:100FE00010BD0000F0000020E0000020FC00002008
:100FF0000C010020F80000205C02002004ED00E05D
:1010000070B523E001F0A8F91348006808B9012081
:1010100000E00020054601F075FCBDB900F098FF26
:101020000D48C068C468201D00F048FF0B480068E8
:10103000401E0A4908600A480068401E08490860C6
:1010400000F098FF204600F057F800BF0448006801
:101050000028D7D170BD0000FC020020F000002065
:10106000EC00002070B504460D46206C70B1216C78
:10107000E0680844E0606168E068884201D3206865
:10108000E0602846226CE168FFF7A4F870BD2DE906
:10109000F04104460F4615464FF00008A66B206C41
:1010A00028B37DB93946226CA068FFF793F8216C0C
:1010B000A0680844A060D4E90110884217D32068D2
:1010C000A06014E03946226CE068FFF783F8216CD9
:1010D000E068401AE0602168E068884203D2216C31
:1010E0006068401AE060022D01D106B1761E701CC6
:1010F000A0634046BDE8F08110B50446206B00F0C7
:1011000049FF204600F046FF10BD00000A4A22F0C9
:1011100007000A4A10600022084B5A6044F2F83275
:10112000074B5A6000221A60014644F2F8324A60C6
:101130001A460A60704700002C0300201C010020A2
:101140002401002000BFFFF75BFF0648006801286C
:10115000F9D94FF0805004490860BFF34F8FBFF3B7
:101160006F8FF0E75C02002004ED00E02DE9F04114
:1011700006460D4617469846069C0DB9246000E0C9
:101180002760E66325640121204601F00BFABDE8E3
:10119000F0812DE9FF5F80460E469146DDE90E7A2B
:1011A000109CA9F10100216B01EB800B2BF0070BC8
:1011B000002507E0715D04F134004155705D00B910
:1011C00002E06D1C102DF5D300BF00214320015516
:1011D000052F00D30427E762201D00F090FE04F1E4
:1011E000180000F08CFE2461C7F10500A061646264
:1011F0000020606484F8480041465846039A00F095
:101200000BF92060BAF1000F01D0CAF80040BDE828
:10121000FF9F000010B5002407E004EB84010F4A93
:1012200002EB810000F05EFE641C052CF5D30C4837
:1012300000F058FE0B4800F055FE0B4800F052FE3F
:101240000A4800F04FFE0A4800F04CFE04480949E5
:10125000086004480849086010BD00005C020020D6
:10126000C0020020D4020020E8020020FC0200207E
:1012700010030020E4000020E800002070B50546BF
:1012800000F066FEA86B08B9012400E0002400F01D
:1012900071FE204670BD00000A490968096809B955
:1012A000012100E0002121B14FF0FF31064A116019
:1012B00006E004490968C968C868034A41681160C2
:1012C00070470000E40000201001002000BFBF2094
:1012D00080F31188BFF34F8FBFF36F8F00BF00BF44
:1012E000FEE770B5044600F033FE94F9455010E077
:1012F000606A08B9012000E0002038B904F1240038
:1013000001F0C0FA18B100F0D3FF00E003E0681E5E
:1013100045B2002DECDC00BFFF2084F8450000F052
:1013200029FE00F015FE94F9445010E0206908B938
:10133000012000E0002048B904F1100001F0A2FAF9
:1013400008B100F0B5FF681E45B200E001E0002DD5
:10135000ECDC00BFFF2084F8440000F00BFE70BD01
:101360002DE9F04104464FF0000800F0F5FF264853
:10137000006820B9FFF7CAFE01202349086044B184
:10138000083404F0070020B104F00700C0F10800A1
:101390000444002C32D044F2F83084422ED21B4F49
:1013A0003846056801E02F462D686868A04202D2E1
:1013B00028680028F7D1164885421FD0386800F108
:1013C0000808286838606868001B102810D92E1992
:1013D0006868001B70606C6071680C4800E0006811
:1013E000026852688A42FAD302683260066000BF1F
:1013F000084968680968081A0649086001F082FA15
:101400004046BDE8F0810000300100201C010020B2
:10141000240100202C010020001F4FF08073036086
:10142000001F21F001030360001F034B0360143809
:101430000260203870470000CD1200082DE9F04FFF
:101440008BB00746002009903EA090E8004CC06891
:10145000CDE905BECDF810A007900FF2EC0ADAE94D
:10146000000ACDE9020A0FF2E00ADAE9000ACDE942
:10147000000A38484068C0F381000A900A9820B1F9
:10148000012804D0022829D103E0334928E0324959
:1014900026E03048406800F48038B8F5803F09D134
:1014A0002D4C2C48406800F40039B9F5003F02D1BA
:1014B000641000E0294C27484068C0F38342254867
:1014C000406800F0006008B142F010020F2A01D21B
:1014D000921C00E0521C04FB02F101E01E4900BF17
:1014E00000BF1C484068C0F3031504A8465D21FAFC
:1014F00006F318484068C0F3022502A8465D23FAA7
:1015000006FC14484068C0F3C2251DF8056023FAA4
:1015100006F0089037B1012F06D0022F06D0032F16
:101520000AD106E0099108E0099306E0CDF824C04D
:1015300003E00898099000E000BF00BF09980BB0D5
:10154000BDE8F08F0000000000000000010203046D
:10155000060708090010024000127A0000093D0049
:1015600010B540F2076000F009F840F2037000F097
:1015700005F840F20E6000F001F810BD064A02EBDB
:101580009011096800F01F0301229A401143024B99
:1015900003EB90121160704700100240064A02EB04
:1015A0009011096800F01F0301229A409143024BF9
:1015B00003EB90121160704700100240064A02EBE4
:1015C0009011096800F01F0301229A401143024B59
:1015D00003EB901211607047001002400146C8688A
:1015E00080B27047C160704702469068084008B1F9
:1015F000012070470020FCE7002000212C4A1268DF
:1016000042F480322A4B1A6000BF401C284A1268FC
:1016100002F4003119B94FF6FF729042F5D1244A15
:10162000126802F400320AB900BFFEE7204A52688D
:101630001F4B5A601A4652685A601A46526842F462
:1016400080625A601A46526822F440325A601A4642
:10165000526842F440325A601A465268154B1A409A
:10166000134B5A601A465268134B1A43104B5A6078
:101670001A46126842F080721A6000BF0C4A126863
:1016800002F00072002AF9D0094A526822F00302DF
:10169000074B5A601A46526842F002025A6000BF75
:1016A000034A526802F00802002AF9D0704700008D
:1016B00000100240FFFFC3F70000280810B5FFF735
:1016C0009BFF10BD016841F0800101607047000080
:1016D00010B531B101293FD002297DD003297CD139
:1016E000BFE0036A23F001030362036A1468234323
:1016F0000362036A23F002030362036AD48823436C
:1017000003626C4B984202D06B4B98421FD1036A24
:1017100023F004030362036A948823430362036A89
:1017200023F008030362036A1489234303624368B6
:1017300023F48073436043685489234343604368C0
:1017400023F40073436043689489234343608369AF
:1017500023F003038361ABE0036A23F01003036209
:10176000036A146843EA04130362036A23F0200344
:101770000362036AD48843EA041303624D4B984220
:1017800002D04D4B984223D1036A23F040030362F9
:10179000036A948843EA04130362036A23F0800314
:1017A0000362036A148943EA04130362436823F45F
:1017B000806343604368548943EA84034360436819
:1017C00023F4006343604368948943EA84034360DD
:1017D000836923F4407301E002E068E0836167E01D
:1017E000036A23F480730362036A146843EA0423E0
:1017F0000362036A23F400730362036AD48843EA32
:10180000042303622B4B984202D02B4B984223D1E6
:10181000036A23F480630362036A948843EA04231F
:101820000362036A23F400630362036A148943EAD0
:1018300004230362436823F480534360436854895C
:1018400043EA04134360436823F40053436043684E
:10185000948943EA04134360C36923F00303C3611B
:1018600026E0036A23F480530362036A146843EAA0
:1018700004330362036A23F400530362036AD488C7
:1018800043EA043303620B4B984202D00A4B98425E
:1018900008D1436823F4804343604368548943EA92
:1018A00084134360C36923F44073C36100E000BF45
:1018B00000BF10BD002C01400034014031B10129AE
:1018C0000CD0022913D0032922D118E0836923F018
:1018D000700383618369134383611AE0836923F48E
:1018E000E0438361836943EA0223836111E0C369B2
:1018F00023F07003C361C3691343C36109E0C36983
:1019000023F4E043C361C36943EA0223C36100E0F7
:1019100000BF00BF704731B1012906D0022906D0AF
:10192000032908D105E0426306E0826304E0C26354
:1019300002E0026400E000BF00BF704731B101293E
:101940000CD0022913D0032922D118E0836923F097
:10195000080383618369134383611AE0836923F475
:1019600000638361836943EA0223836111E0C369F1
:1019700023F00803C361C3691343C36109E0C3696A
:1019800023F40063C361C36943EA0223C36100E037
:1019900000BF00BF7047000000B589B04FF4E060A1
:1019A000FFF7ECFD40F20170FFF7E8FD40F2027036
:1019B000FFF7E4FD40F20B60FFF7E0FD4FF08040E1
:1019C00000F0CEF8634800F0CBF8634800F0C8F8A8
:1019D000624800F0C5F80920ADF804000020ADF819
:1019E0000600ADF8080040F21B1003900020ADF88F
:1019F00010008DF8120001A94FF0804000F028F986
:101A00000020ADF81A00012005900020ADF81C0060
:101A1000ADF81800ADF81E00ADF8200005AA0121B0
:101A20008807FFF755FE002201218807FFF773FFA3
:101A3000602201218807FFF741FF0022012188076A
:101A4000FFF77CFF4FF08040FFF73CFE0121880745
:101A500000F068F94FF0804000F0F5F86B20ADF829
:101A600004000020ADF80600ADF80800092003903E
:101A70000020ADF810008DF8120001A9354800F0E3
:101A8000E7F83448FFF71EFE0121324800F04AF91A
:101A9000304800F0D8F80620ADF804000020ADF87A
:101AA0000600ADF80800FE2003900020ADF81000FD
:101AB0008DF8120001A9284800F0CAF80020ADF8FE
:101AC0001A00012005900020ADF81C00ADF81800A8
:101AD000ADF81E00ADF8200005AA01211E48FFF751
:101AE000F7FD002201211C48FFF715FF60220121AC
:101AF0001948FFF7E3FE002201211748FFF71EFFF8
:101B00001548FFF7DFFD0121134800F00BF91248DB
:101B100000F094F80A20ADF804000020ADF80600AB
:101B2000ADF8080040F2793003900020ADF81000C5
:101B30008DF8120001A9094800F08AF80748FFF75C
:101B4000C1FD0121054800F0EDF8044800F076F8E9
:101B500009B000BD0004004000080040002C014016
:101B600010B504463349601A8C4244D00CDCB4F101
:101B7000804F1CD03048204410B3B0F5806F28D07F
:101B8000B0F5006F52D12DE0B0F5806F3CD0B0F5CC
:101B90008E3F03D0B0F5923F48D13EE040F20B308B
:101BA000FFF70CFD40F20B30FFF7F8FC3FE04FF47D
:101BB0008060FFF703FD4FF48060FFF7EFFC36E035
:101BC00040F20140FFF7FAFC40F20140FFF7E6FC6B
:101BD0002DE040F20240FFF7F1FC40F20240FFF737
:101BE000DDFC24E040F20340FFF7E8FC40F2034054
:101BF000FFF7D4FC1BE040F20440FFF7DFFC40F2AB
:101C00000440FFF7CBFC12E040F20540FFF7D6FCA2
:101C100040F20540FFF7C2FC09E040F20D30FFF74B
:101C2000CDFC40F20D30FFF7B9FC00E000BF00BF73
:101C300010BD00000010004000FCFFBF016821F053
:101C4000010101607047016841F0010101607047C6
:101C50000A888262264A904220D0B0F1804F1DD07F
:101C6000244A90421AD0244A904217D0234A9042E4
:101C700014D0234A904211D0224A90420ED0224AD8
:101C800090420BD0214A904208D0214A904205D080
:101C9000204A904202D0204A90420BD1026822F0A2
:101CA0007002026002684B881A43026002688B88E7
:101CB0001A4302608A68C262184A90420AD0184ADF
:101CC000904207D0026822F44072026002688B8959
:101CD0001A430260064A904202D0094A904201D15A
:101CE0008A7B0263426942F0010242617047000050
:101CF000002C01400004004000080040000C00409F
:101D000000340140004C01400050014000540140AB
:101D100000180040001C004000200040001000405F
:101D200000140040C2680A43C260704702698A43D7
:101D3000026170470246D06800EA0103106908405A
:101D400010B10BB1012070470020FCE72DE9F047EE
:101D500004460D460027B846B94600261D49601ABC
:101D60008C421CD006DC1C48204470B1B0F5806F5A
:101D70001FD10FE0B0F5806F16D0B0F56C4F18D1C1
:101D80000320FFF75BFB074614E00220FFF756FB3A
:101D900007460FE00220FFF751FB07460AE002204A
:101DA000FFF74CFB074605E00220FFF747FB07461D
:101DB00000E000BF00BF07EB5500B0FBF5F64FF6A3
:101DC000F07006EA000806F00F0948EA0900A06072
:101DD000BDE8F087004C004000BCFFBFC1F3080223
:101DE0004260704710B504462049601A8C4228D0E2
:101DF00006DC1F48204490B1B0F5806F33D117E066
:101E0000B0F5806F26D0B0F56C4F2CD140F20E307B
:101E1000FFF7D4FB40F20E30FFF7C0FB24E040F2A6
:101E20001140FFF7CBFB40F21140FFF7B7FB1BE07F
:101E300040F21240FFF7C2FB40F21240FFF7AEFB48
:101E400012E040F21340FFF7B9FB40F21340FFF7F6
:101E5000A5FB09E040F21440FFF7B0FB40F214404C
:101E6000FFF79CFB00E000BF00BF10BD004C00402E
:101E700000BCFFBFC16841F40051C160704710B59C
:101E8000024602EB9110006801F01F040123A340F9
:101E9000184008B1012010BD0020FCE70A460021CF
:101EA000C16821F004011143C16070470A46002156
:101EB000C16821F008011143C160704701460A69F9
:101EC000D1E901309860D1E9010358605068884237
:101ED00001D188685060002008611068401E1060C1
:101EE0001068704700F1080141604FF0FF318160D8
:101EF00000F10801C160016100210160704700210B
:101F00000161704710B502460B685C1C0CB9106982
:101F100007E002F1080000E04068446824689C4241
:101F2000FAD944684C604C68A160886041600A61DD
:101F30001468641C146010BD42684A6093688B602A
:101F4000936859609160086103685B1C0360704787
:101F500000BFBF2080F31188BFF34F8FBFF36F8F97
:101F600000BF03480068401C01490860704700003A
:101F70003401002006480068401E054908600846F4
:101F8000006820B9002080F3118800BF00BF7047AF
:101F90003401002070B506463546B6B1083D2C46E2
:101FA00000F0DAF96168094800E0006802685268E8
:101FB0008A42FAD3026822600460054960680968B1
:101FC00008440349086000F09DFC70BD1C0100201E
:101FD0002C01002003484FF0E021486107200861F0
:101FE000704700003F1901001DE00F480078B8B1AC
:101FF0000320FEF7EBFD98B94FF08040FFF723FE7A
:1020000001200A4908700A48FFF71DFE0948FFF73A
:102010001AFE09A0FEF7A0FC4FF4757000F09CF8C2
:10202000012000F099F8E0E71400002048010020AA
:1020300000080040002C014049276D205461736B5B
:102040003232320D0A000000FEF710FB22E0FFF7EB
:102050007FFF11480478FFF78DFF10E00F49897A60
:102060000F4A505CFEF754FA0C48807A401C0B492A
:1020700088720846807A282801DB00208872074889
:10208000807AA042EAD107A0FEF766FC4FF4FA700E
:1020900000F062F8DBE70000490100204802002060
:1020A0002447002049276D205461736B3535353541
:1020B000353535350D0A000039E02CE01C484078F4
:1020C0001C4909680979884208DB19484078194990
:1020D00009680979401A1649487002E0002014493D
:1020E00048701348407810B9002013490870104810
:1020F0004078124908721248006808600D4800686C
:10210000006848600C210D48FEF7DAFA09480068BB
:10211000083008490860074800680A490968884289
:10212000CCD109A0FEF718FC0A2000F015F8C4E78E
:102130000000002034000020140000206C0100206A
:10214000180000203800002049276D205461736B6F
:1021500033333333330D0A0070B50446002544B1E0
:1021600000F0FAF800212046FEF7A4FE00F0CAFBBA
:1021700005463DB94FF0805003490860BFF34F8FCB
:10218000BFF36F8F70BD000004ED00E008B50025BF
:102190004FF4967000903D480478002204210120FD
:1021A00000F046F93A4908606FE000231A46694694
:1021B0003748006800F058F9012863D10098B0F55D
:1021C000617F04D1002201218807FFF7A4FB40F2C0
:1021D00014510098884204D1642201210007FFF7BE
:1021E0009AFB072D16DB0025002000902748047875
:1021F000002201218807FFF78EFB00202549087087
:102200004FF08040FFF71AFD00202349086023A00B
:10221000FEF7A2FB04F00100D0B140F24C5100984F
:10222000884204D1002201218807FFF774FB40F2A5
:10223000DC510098884225D1642201218807FFF7EC
:102240006AFB6410681CC5B240F21450009019E09B
:1022500040F2A4510098884204D1002201210007D5
:10226000FFF759FB40F2DC51009888420AD1642202
:1022700001218807FFF74FFB6410681CC5B240F2CC
:10228000145000900120FFF767FF8EE72400002024
:1022900020000020480100203801002073656E6492
:1022A0002061206D657373616765210D0A00000070
:1022B00001200149086070470401002070B50546FF
:1022C0000C460548016818312846FFF71BFE01211E
:1022D0002046FEF7EFFD70BDE000002003490968CD
:1022E000016003490968416070470000080100204F
:1022F000F40000201CB5114800210B468022CDE9D6
:1023000000100FA1104800F0FFF90446012C14D171
:1023100000BFBF2080F31188BFF34F8FBFF36F8FD3
:1023200000BF4FF0FF3009490860012008490860EC
:1023300000200849086000F047F81CBD1401002087
:1023400049444C45000000004511000810010020E0
:10235000FC000020F400002002480068401C0149F5
:1023600008607047180100201248006818B1012069
:10237000114908601DE000200F4908600F480068FF
:10238000B0FA80F0C0F11F0101EB81020C4B03EBAE
:10239000820042685268426000F10802436893423A
:1023A00002D14268526842604268D268054B1A60A6
:1023B00000BF70471801002004010020F800002031
:1023C0005C020020E000002010B50A48006840F4DC
:1023D0007F00084908600846006840F07F400860B8
:1023E000FFF7F8FD002004490860FDF7A7FE002074
:1023F00010BD000020ED00E03401002010B500BF4A
:10240000BF2080F31188BFF34F8FBFF36F8F00BFE2
:1024100000F0AAF918B14FF080500449086000BFDD
:10242000002080F3118800BF10BD000004ED00E023
:102430002DE9F84307460D4690460DB9002601E008
:1024400007FB05F606F14800FEF78AFF044644B193
:1024500004F1480943464A46294638460094FEF7A7
:1024600085FE2046BDE8F8832DE9FF4782B005468A
:1024700089461E464FF0000A2C4600BFFFF768FD54
:10248000D4F83880B8F1000F36D0E76849462046C6
:10249000FEF7E8FDB6B9A8F10100A063206908B90C
:1024A000012000E0002008BB04F1100000F0EAF970
:1024B000E0B14FF080503A490860BFF34F8FBFF34F
:1024C0006F8F13E0E760606A08B9012000E0002028
:1024D00060B904F1240000F0D5F938B14FF0805014
:1024E0002F490860BFF34F8FBFF36F8FFFF742FD97
:1024F000012006B0BDE8F087049818B9FFF73AFD4F
:102500000020F6E7BAF1000F04D16846FFF7E6FEB7
:102510004FF0010AFFF72EFDFFF71EFFFFF718FD32
:1025200094F94400401C10B9002084F8440094F948
:102530004500401C10B9002084F84500FFF71AFD43
:1025400004A9684600F0B2F8F0B92046FEF796FEFE
:10255000A0B104F124000499FFF7B0FE2046FEF775
:10256000C0FE00F0CFF9002888D14FF080500C4910
:102570000860BFF34F8FBFF36F8F7FE72046FEF7F2
:10258000B0FE00F0BFF979E72046FEF7AAFE00F0A2
:10259000B9F92046FEF772FE0028EED00020A8E729
:1025A00004ED00E070B505460E462C46FFF7D0FC62
:1025B000D4E90F12206801FB020060600020A063D4
:1025C0002068A060E06B401E226C216800FB0210B6
:1025D000E060FF2084F8440084F845009EB920693B
:1025E00008B9012000E00020A8B904F1100000F0B3
:1025F00049F980B14FF0805009490860BFF34F8F0F
:10260000BFF36F8F07E004F11000FFF76BFC04F1DC
:102610002400FFF767FCFFF7ADFC012070BD000050
:1026200004ED00E02DE9F05F05468A4616461F4698
:102630002C4600BFBF21EFF3118081F31188BFF357
:102640004F8FBFF36F8F00BF8146A06BE16B884255
:1026500001D3022F20D194F945B03A465146204685
:10266000FEF715FD0BF1010070B9606A08B9012091
:1026700000E0002068B904F1240000F003F940B143
:102680003EB10120306004E00BF1010040B284F85B
:1026900045004FF0010801E04FF0000800BF89F34A
:1026A000118800BF4046BDE8F09F000070B50446A9
:1026B0000D46FFF74DFC124802682868401C08B917
:1026C000002619E00F4920680968884204D0606834
:1026D000904201D801260FE06068101A29688842EC
:1026E00009D228686168511A401A28602046FFF70D
:1026F000F5FD002600E00126FFF73CFC304670BDEA
:10270000F4000020080100202DE9FF4F85B080462D
:1027100089461746DDE912ABB800FEF721FE0646F2
:1027200056B14C20FEF71CFE04460CB1266304E0B3
:102730003046FFF72FFC00E000247CB10020CDE9FB
:1027400000ABCDE902403A4649464046089BFEF7B9
:1027500020FD2046FEF7FAFB012501E04FF0FF3592
:10276000284609B0BDE8F08F2DE9F04100273A482E
:102770000068002863D139480068451C3748056067
:102780008DB93748D0F80080364800683449086071
:102790003448C0F8008034480068401C3249086062
:1027A000FEF77AFD00BF3148006885423BD300BF89
:1027B0002B480068006808B9012000E0002020B123
:1027C0004FF0FF30294908602CE025480068C068B8
:1027D000C4686668B54202D22448066022E0201D23
:1027E000FFF76CFBA06A18B104F11800FFF766FB55
:1027F00094F82C10012088401D49096808431C49A1
:102800000860E16A01EB81011A4A02EB8100211D97
:10281000FFF792FB1849E06A0968C96A8842C7D382
:102820000127C5E700BF14480068C06A00EB8000BC
:10283000104951F82000012800D9012704E00F4871
:102840000068401C0D4908600D48006800B1012770
:102850003846BDE8F081000018010020F400002097
:10286000E4000020E8000020080100201001002002
:10287000F80000205C020020E000002000010020A1
:102880000401002070B50646F068C46804F1180021
:10289000FFF714FB15480068A8B9201DFFF70EFBD1
:1028A00094F82C1001208840114909680843104908
:1028B0000860E16A01EB81010E4A02EB8100211DF3
:1028C000FFF73AFB04E004F118010B48FFF734FB73
:1028D0000A49E06A0968C96A884204D901250120C9
:1028E0000749086000E00025284670BD1801002057
:1028F000F80000205C020020E8020020E000002038
:102900000401002070B500240026FFF721FB2E48AB
:102910000068401E2C4908600846006800284FD116
:102920002A48006800284BD024E02948C068C468C1
:1029300004F11800FFF7C2FA201DFFF7BFFA94F860
:102940002C10012088402349096808432149086068
:10295000E16A01EB8101204A02EB8100211DFFF7B2
:10296000EBFA1E49E06A0968C96A884202D301206D
:102970001B4908601648006808B9012000E00020E3
:102980000028D2D00CB1FEF787FC1648056865B167
:1029900000BFFFF7E9FE10B10120114908606D1E6C
:1029A000002DF6D100200F4908600D48006838B1AD
:1029B000012630070C490860BFF34F8FBFF36F8FBC
:1029C000FFF7D8FA304670BD18010020F000002053
:1029D000E8020020F80000205C020020E000002057
:1029E000040100200001002004ED00E00C2A000892
:1029F000000000206C01000040020008842A00084A
:102A00006C0100200C4A0000780900080124021C17
:102A1000583C100140044A1804320132042908329B
:102A2000023D0E061107092904291929041A082C48
:102A300019041E0206020604022901391429484A13
:102A40000C1C290429441132204A40072A10471936
:102A500030630306A920912A0216230D0E044F06A7
:102A6000282863F8431AAA010116399211100B0A9B
:102A70000B0C0D0E0F101112131808C0C8846068DB
:042A8000341D8F3141
:0400000508000105E9
:00000001FF
