:020000040800F2
:10000000F8490020B1010008C5040008BD0400083B
:10001000C1040008E5020008C9060008000000004D
:1000200000000000000000000000000019010008AE
:1000300095040008000000005D010008E5200008AC
:10004000CB010008CB010008CB010008CB01000860
:10005000CB010008CB01000899040008CB0100087F
:10006000CB010008CB010008CB010008CB01000840
:10007000CB010008CB010008CB010008CB01000830
:10008000CB010008CB010008CB010008CB01000820
:10009000CB010008CB010008CB010008CB01000810
:1000A000CB010008D1050008CB010008CB010008F6
:1000B000CB01000831060008CB010008CB01000885
:1000C000CB010008CB010008CB010008CB010008E0
:1000D000CB010008CB010008CB010008CB010008D0
:1000E000CB010008CB010008CB0100080000000094
:1000F0000000000000000000000000000000000000
:10010000CB010008DFF80CD000F076F8004800477B
:10011000ED0A0008F8490020224B19680868B0E889
:10012000F00F80F30988BFF36F8F4FF0000080F36A
:1001300011884EF00D0E7047000000000648006860
:10014000006880F3088862B661B6BFF34F8FBFF3D3
:100150006F8F00DF00BF00BF08ED00E0EFF3098004
:10016000BFF36F8F0F4B1A6820E9F00F106008B5CE
:100170004FF0BF0080F31188BFF34F8FBFF36F8F35
:1001800001F066FF4FF0000080F31188BDE80840E1
:1001900019680868B0E8F00F80F30988BFF36F8F23
:1001A000704700BFA4000020EFF3058070470000F7
:1001B0000648804706480047FEE7FEE7FEE7FEE701
:1001C000FEE7FEE7FEE7FEE7FEE7FEE76D05000857
:1001D0000501000840EA01039B0703D009E008C9B4
:1001E000121F08C0042AFAD203E011F8013B00F8FC
:1001F000013B521EF9D27047064C074D06E0E068FD
:1002000040F0010394E8070098471034AC42F6D35D
:10021000FFF77CFF002700082027000870B58C1826
:1002200010F8015B15F0070301D110F8013B2A110A
:1002300006D110F8012B03E010F8016B01F8016BF7
:100240005B1EF9D12B0705D40023521E0DD401F8F3
:10025000013BFAE710F8013BCB1A921C03E013F8BC
:10026000015B01F8015B521EF9D5A142D8D30020F1
:1002700070BD00001CB50020052103461022CDE909
:1002800000100CA10E4802F0B3F800200221034632
:100290008022CDE900100BA10D4802F0A9F8002042
:1002A000042103464022CDE900100AA10C4802F0C7
:1002B0009FF81CBD765461736B41747461636B006D
:1002C000A51D0008696E6672617265640000000019
:1002D000751E0008765461736B436F7265000000F1
:1002E0001D1E000800BFFEE770B5044600F0CAF806
:1002F00044F0800000F01EF9FF2000F01BF90546D5
:1003000000F0B8F8284670BD70B5044600F0BAF8A1
:1003100044F0C00000F00EF9FF2000F00BF9054694
:1003200000F0A8F8284670BD70B506460C460720B8
:10033000FFF7DAFF20F003053146092000F042F80C
:100340006CB1012C02D145F0010508E0022C02D16C
:1003500045F0020503E0032C01D145F003052946D1
:10036000072000F02FF870BD10B50446C4F3072134
:10037000042000F027F8E1B2052000F023F810BDBA
:1003800010B5044600F07EF8204600F0D3F800F0E7
:1003900071F810BD2DE9F04105460E46174600F0F4
:1003A00071F845F0400000F0C5F8002404E0305D2D
:1003B00000F0C0F8601CC4B2BC42F8DB00F05AF890
:1003C000BDE8F08170B505460C4600F05BF82846A4
:1003D00000F0B0F8204600F0ADF800F04BF870BD2A
:1003E00010B500F071F800F04DF800F043F800F09F
:1003F00049F8002400E0641CB4F57A7FFBD3302078
:10040000FFF7BEFF04E0002400E0641C642CFCD372
:100410002B20FFF769FF3F28F5D1002409E0134A9C
:1004200002EB44025178114A12F81400FFF7CAFF98
:10043000641C162CF3D303210520FFF775FF48F247
:100440009970FFF791FF72211320FFF7BBFF08227D
:1004500007493E20FFF79EFF3020FFF755FF044677
:100460003120FFF751FF044610BD0000D4260008DC
:100470001D01002010B58021014800F073FA10BD65
:10048000000C014010B58021014800F069FA10BD50
:10049000000C01407047000010B5012000F0A6F9E3
:1004A00048B164220121880701F013F901200249B3
:1004B000087000F095F910BD0801002000BFFEE7AC
:1004C00000BFFEE77047000000B587B040F2026051
:1004D00000F00EFF40F20C6000F00AFF4023032200
:1004E0000421124800F0B0FAA023032218210F487B
:1004F00000F0AAFA002001904FF4827000900020D2
:100500000290032005904FF4007003901020069095
:10051000002004906946064800F02DFF044800F0D2
:1005200043FF034800F014FF07B000BD000801407E
:100530000030014010B5044621460B4800F011FF81
:1005400000BF0221084800F00EFF0028F9D000BFCC
:100550000121054800F007FF0028F9D0024800F00B
:10056000FCFEC0B210BD00000030014010B51448C0
:10057000006840F0010012490860084640681149CF
:1005800008400F494860084600680F4908400C4978
:1005900008600846006820F480200860084640682B
:1005A0000A4908400649486008460068064908406C
:1005B000034908604FF41F00886000F05DFF10BD24
:1005C000001002400C00FFE8FFFFF6FEFFFF00F7FF
:1005D00010B5ADF5BA4D0121124801F089FAE8B124
:1005E000114801680068401C0F4B186034A8425C39
:1005F00001210E4801F06DF80B480068B0F5FA6F64
:1006000008D3002008490860084801F0F5F90548BA
:1006100001F0F2F90121034801F066FA0DF5BA4D37
:1006200010BD0000002C0140040100200008004023
:1006300010B50121204801F05BFAE0B31F480068C3
:10064000401C1E4908601E48006880B308460068C8
:10065000B0F5617F17D00846006840F21451884217
:1006600011D01648006840F24C5188420BD0134814
:10067000006840F2DC51884205D01048006840F222
:10068000A451884213D10D4800680E490860002328
:100690001A460B48006801F039FE0848006840F22D
:1006A000DC51884203D140F2155004490860012111
:1006B000014801F019FA10BD00040040FC000020C0
:1006C000040000200001002000BFFEE7014A0249AB
:1006D00000F013B8110800082801002002E008C843
:1006E000121F08C1002AFAD170477047002001E0AC
:1006F00001C1121F002AFBD170472DE9F0411646B7
:100700000F460446002503E03946B047641C6D1CC3
:1007100020780028F8D12846BDE8F08110B50021E6
:10072000084600F0CDF810BD10B52C4B1B68834374
:100730002A4C2360231D1B688343241D2360231D33
:100740001B688343241D2360231D1B688343241DD2
:10075000236011B101290ED105E0204B1B68034332
:100760001E4C236008E01D4B1B1D1B6803431B4CE4
:10077000241D236000E000BF00BF22B1012A0FD07A
:10078000022A27D119E0154B08331B680343134C89
:1007900008342360231D1B688343241D23601AE053
:1007A0000E4B08331B6883430C4C08342360231D15
:1007B0001B680343241D23600DE0084B08331B68AE
:1007C0000343064C08342360231D1B680343241D88
:1007D000236000E000BF00BF10BD00000004014026
:1007E00001490860704700001404014001460748B1
:1007F000006800EA010205481438006800EA0103B5
:1008000012B10BB1012070470020FCE71404014035
:1008100070B504460D46E1B2054801F0BDF900BFD0
:100820000721034801F009FA0028F9D0204670BDDD
:100830000038014070B5054600241B48854200D1B0
:1008400000E00124194931F8140000F051FD184965
:1008500031F8140000F04CFD164951F824301649C7
:1008600051F824000322182100F0EEF8134951F842
:100870002430114951F824000322042100F0E4F847
:10088000284601F08DF94FF4E131284601F03CF99A
:100890000421284601F0E0F90821284601F0E4F996
:1008A000284601F0C5F970BD003801405400002011
:1008B000380000203C0000204C00002044000020B4
:1008C00070B504460D46174931F8140000F010FDCC
:1008D0004FF4C06000F00CFD134951F82430134967
:1008E00051F824000322042100F0AEF8012D17D1A5
:1008F0000F49085D0022022100F03AF90D4A115D0E
:100900000D4A105D00F054F80C4951F82400012202
:100910000021FFF709FF094951F82400FFF760FFA4
:1009200070BD0000800000207000002060000020EA
:10093000A00000209C0000209800002088000020DB
:1009400010B50446044A52F82410044A52F8240010
:1009500000F0C4F810BD000070000020600000200E
:10096000416170470161704710B540F2026000F0CC
:10097000BFFC4FF4C06000F0BBFC0223032218212F
:10098000094800F061F840F2036000F0B1FC8023F8
:1009900003221021054800F057F830230322482194
:1009A000014800F051F810BD00080140000C014062
:1009B00010B500228B071C0F0F2303FA04F2042941
:1009C0000EDA204B9B6893431E4CA36023469B6822
:1009D0008C07240F00FA04F423431A4CA3602FE081
:1009E00008290EDA174BDB689343164CE360234665
:1009F000DB688C07240F00FA04F42343114CE360F6
:100A00001EE00C290EDA0F4B1B6993430D4C23613A
:100A100023461B698C07240F00FA04F42343094C76
:100A200023610DE0074B5B699343064C63612346EA
:100A30005B698C07240F00FA04F42343014C6361C3
:100A400010BD000000000140F0B504461646002528
:100A5000002201F00F0501F0100707B13543002017
:100A600018E0012787401F4097B122684FEA800CA9
:100A70000F2707FA0CF7BA43870005FA07F73A433E
:100A8000282901D1636102E0482900D12361226055
:100A9000471CB8B20828E4D308201CE0012787408F
:100AA0001F40B7B16268A0F108074FEA870C0F2713
:100AB00007FA0CF7BA43A0F10807BF0005FA07F7D9
:100AC0003A43282901D1636102E0482900D123611A
:100AD0006260471CB8B21028E0D3F0BD02469068AF
:100AE000084008B1012070470020FCE700F0F2FB4D
:100AF0000C48FFF79FFEFFF737FFFFF70FFE00F0F0
:100B000023F800F027FEFFF76BFC07A0FFF7DEFDE0
:100B100009A0FFF7DBFDFFF7ADFB01F05FFA00BFB7
:100B2000FEE7000000380140426567696E2061649D
:100B300063210D0A0000000074657374206F7665F0
:100B400072210D0A0000000010B54FF4C06000F0E3
:100B500061F8012211461D2000F00AF84FF4C06030
:100B600000F058F802220121192000F001F810BD10
:100B7000F0B50B46002100240025244E366806F40B
:100B8000E066B6F5E06F02D100BF042526E01F4EF7
:100B9000366806F4E066B6F5C06F02D1012403257D
:100BA0001CE01A4E366806F4E066B6F5A06F02D176
:100BB0000224022512E0154E366806F4E066B6F50A
:100BC000806F02D10324012508E0104E366806F438
:100BD000E066B6F5407F01D104240025C4F1040687
:100BE00003FA06F1C5F104070F26FE401640314313
:100BF0000901074E315400F01F070126BE4047117E
:100C0000BF0007F1E027C7F80061F0BD0CED00E080
:100C100000E400E002490143024A1160704700000D
:100C20000000FA050CED00E02DE9F04105460E4606
:100C30001C4807681C480068001D01F01DF850B9E9
:100C40001948006890F82C1001208840174909685D
:100C5000814316480160681C38B936B112480168F2
:100C6000091D134801F046F81AE07C190E48006887
:100C70004460BC4207D20C480168091D0D48006859
:100C800001F01EF80CE008480168091D0A480068D8
:100C900001F016F809480068844201D20748046050
:100CA000BDE8F081B8000020A4000020BC000020B6
:100CB000E0010020AC000020A8000020D4000020AB
:100CC00010B5044601F022F823480068401C224970
:100CD00008602248006840B920480460084600685F
:100CE00001280DD100F050F90AE01D48006838B91C
:100CF0001A480068C06AE16A884201D8174804604F
:100D000018480068401C1749086094F82C1001200E
:100D1000884015490968084313490860E16A01EBF6
:100D20008101124A02EB8100211D00F0E3FF00F077
:100D3000FFFF0B48006868B108480068C06AE16AB4
:100D4000884207D24FF0805009490860BFF34F8FA7
:100D5000BFF36F8F10BD0000B4000020A40000207E
:100D6000C0000020D0000020BC0000202C0100208A
:100D700004ED00E070B523E001F062F9134800686B
:100D800008B9012000E00020054601F02FFCBDB9A4
:100D900000F0BCFF0D48C068C468201D00F06CFF67
:100DA0000B480068401E0A4908600A480068401E57
:100DB0000849086000F0BCFF204600F057F800BF6B
:100DC000044800680028D7D170BD0000CC01002085
:100DD000B4000020B000002070B504460D46206C21
:100DE00070B1216CE0680844E0606168E0688842A6
:100DF00001D32068E0602846226CE168FFF7EAF939
:100E000070BD2DE9F04104460F4615464FF000082D
:100E1000A66B206C28B37DB93946226CA068FFF719
:100E2000D9F9216CA0680844A060D4E90110884277
:100E300017D32068A06014E03946226CE068FFF701
:100E4000C9F9216CE068401AE0602168E0688842D6
:100E500003D2216C6068401AE060022D01D106B116
:100E6000761E701CA0634046BDE8F08110B50446B4
:100E7000206B00F06DFF204600F06AFF10BD0000FF
:100E80000A4A22F007000A4A10600022084B5A6002
:100E900044F2F832074B5A6000221A60014644F2CD
:100EA000F8324A601A460A6070470000FC010020D0
:100EB000E0000020E800002000BFFFF75BFF0648CD
:100EC00000680128F9D94FF0805004490860BFF349
:100ED0004F8FBFF36F8FF0E72C01002004ED00E08F
:100EE0002DE9F04106460D4617469846069C0DB979
:100EF000246000E02760E66325640121204601F0BC
:100F0000C5F9BDE8F0812DE9FF5F80460E469146A8
:100F1000DDE90E7A109CA9F10100216B01EB800B39
:100F20002BF0070B002507E0715D04F134004155FB
:100F3000705D00B902E06D1C102DF5D300BF0021DB
:100F400043200155052F00D30427E762201D00F040
:100F5000B4FE04F1180000F0B0FE2461C7F10500F2
:100F6000A06164620020606484F8480041465846ED
:100F7000039A00F00BF92060BAF1000F01D0CAF813
:100F80000040BDE8FF9F000010B5002407E004EB1F
:100F900084010F4A02EB810000F082FE641C052CE4
:100FA000F5D30C4800F07CFE0B4800F079FE0B48AE
:100FB00000F076FE0A4800F073FE0A4800F070FE6A
:100FC00004480949086004480849086010BD000049
:100FD0002C01002090010020A4010020B801002075
:100FE000CC010020E0010020A8000020AC0000207F
:100FF00070B5054600F08AFEA86B08B9012400E030
:10100000002400F095FE204670BD00000A490968E2
:10101000096809B9012100E0002121B14FF0FF3139
:10102000064A116006E004490968C968C868034AAD
:101030004168116070470000A8000020D400002023
:1010400000BFBF2080F31188BFF34F8FBFF36F8FB6
:1010500000BF00BFFEE770B5044600F057FE94F9EC
:10106000455010E0606A08B9012000E0002038B95E
:1010700004F1240001F07AFA18B100F08DFF00E0CD
:1010800003E0681E45B2002DECDC00BFFF2084F8B1
:10109000450000F04DFE00F039FE94F9445010E098
:1010A000206908B9012000E0002048B904F11000CF
:1010B00001F05CFA08B100F06FFF681E45B200E075
:1010C00001E0002DECDC00BFFF2084F8440000F0BC
:1010D0002FFE70BD2DE9F04104464FF0000800F0EE
:1010E000AFFF2648006820B9FFF7CAFE0120234958
:1010F000086044B1083404F0070020B104F0070090
:10110000C0F108000444002C32D044F2F83084428C
:101110002ED21B4F3846056801E02F462D686868BF
:10112000A04202D228680028F7D1164885421FD075
:10113000386800F10808286838606868001B1028C3
:1011400010D92E196868001B70606C6071680C48BB
:1011500000E00068026852688A42FAD3026832608E
:10116000066000BF084968680968081A06490860EF
:1011700001F03CFA4046BDE8F0810000F400002098
:10118000E0000020E8000020F0000020001F4FF0E9
:1011900080730360001F21F001030360001F034BF5
:1011A00003601438026020387047000041100008C6
:1011B0002DE9F04F8BB00746002009903EA090E843
:1011C000004CC068CDE905BECDF810A007900FF225
:1011D000EC0ADAE9000ACDE9020A0FF2E00ADAE9DC
:1011E000000ACDE9000A38484068C0F381000A903F
:1011F0000A9820B1012804D0022829D103E03349FC
:1012000028E0324926E03048406800F48038B8F5DC
:10121000803F09D12D4C2C48406800F40039B9F5C5
:10122000003F02D1641000E0294C27484068C0F319
:1012300083422548406800F0006008B142F0100287
:101240000F2A01D2921C00E0521C04FB02F101E0C3
:101250001E4900BF00BF1C484068C0F3031504A826
:10126000465D21FA06F318484068C0F3022502A83B
:10127000465D23FA06FC14484068C0F3C2251DF8F9
:10128000056023FA06F0089037B1012F06D0022F2F
:1012900006D0032F0AD106E0099108E0099306E081
:1012A000CDF824C003E00898099000E000BF00BF1B
:1012B00009980BB0BDE8F08F0000000000000000AE
:1012C00001020304060708090010024000127A0018
:1012D00000093D0010B540F2076000F009F840F247
:1012E000037000F005F840F20E6000F001F810BD48
:1012F000064A02EB9011096800F01F0301229A4090
:101300001143024B03EB9012116070470010024032
:10131000064A02EB9011096800F01F0301229A406F
:101320009143024B03EB9012116070470010024092
:10133000064A02EB9011096800F01F0301229A404F
:101340001143024B03EB90121160704700100240F2
:10135000016841F04001016070470146C86880B2F1
:101360007047C160704702469068084008B101208C
:1013700070470020FCE702460020106800F441504E
:101380000B6818434B6818438B681843CB681843A5
:101390000B6918434B6918438B6918431060D36974
:1013A00023F40063D3617047016841F480710160E8
:1013B00070470000002000212C4A126842F480325D
:1013C0002A4B1A6000BF401C284A126802F4003100
:1013D00019B94FF6FF729042F5D1244A126802F40F
:1013E00000320AB900BFFEE7204A52681F4B5A601C
:1013F0001A4652685A601A46526842F480625A602D
:101400001A46526822F440325A601A46526842F430
:1014100040325A601A465268154B1A40134B5A60B4
:101420001A465268134B1A43104B5A601A461268F8
:1014300042F080721A6000BF0C4A126802F000721B
:10144000002AF9D0094A526822F00302074B5A6079
:101450001A46526842F002025A6000BF034A5268BC
:1014600002F00802002AF9D0704700000010024084
:10147000FFFFC3F70000280810B5FFF79BFF10BD62
:10148000016841F0800101607047000010B531B182
:1014900001293FD002297DD003297CD1BFE0036A16
:1014A00023F001030362036A146823430362036A9F
:1014B00023F002030362036AD488234303626C4B64
:1014C000984202D06B4B98421FD1036A23F0040369
:1014D0000362036A948823430362036A23F00803C8
:1014E0000362036A148923430362436823F480730D
:1014F00043604368548923434360436823F4007383
:1015000043604368948923434360836923F0030362
:101510008361ABE0036A23F010030362036A14687B
:1015200043EA04130362036A23F020030362036A9D
:10153000D48843EA041303624D4B984202D04D4BCA
:10154000984223D1036A23F040030362036A94881C
:1015500043EA04130362036A23F080030362036A0D
:10156000148943EA04130362436823F480634360ED
:101570004368548943EA84034360436823F4006367
:1015800043604368948943EA84034360836923F496
:10159000407301E002E068E0836167E0036A23F4DE
:1015A00080730362036A146843EA04230362036AD4
:1015B00023F400730362036AD48843EA04230362BA
:1015C0002B4B984202D02B4B984223D1036A23F431
:1015D00080630362036A948843EA04230362036A14
:1015E00023F400630362036A148943EA0423036259
:1015F000436823F4805343604368548943EA0413E7
:101600004360436823F4005343604368948943EA8A
:1016100004134360C36923F00303C36126E0036A34
:1016200023F480530362036A146843EA04330362B9
:10163000036A23F400530362036AD48843EA043341
:1016400003620B4B984202D00A4B984208D1436880
:1016500023F4804343604368548943EA841343601E
:10166000C36923F44073C36100E000BF00BF10BD35
:10167000002C01400034014031B101290CD0022975
:1016800013D0032922D118E0836923F0700383610A
:101690008369134383611AE0836923F4E043836120
:1016A000836943EA0223836111E0C36923F0700375
:1016B000C361C3691343C36109E0C36923F4E04311
:1016C000C361C36943EA0223C36100E000BF00BFF6
:1016D000704731B1012906D0022906D0032908D16B
:1016E00005E0426306E0826304E0C26302E0026454
:1016F00000E000BF00BF704731B101290CD00229C2
:1017000013D0032922D118E0836923F008038361F1
:101710008369134383611AE0836923F4006383615F
:10172000836943EA0223836111E0C36923F008035C
:10173000C361C3691343C36109E0C36923F4006350
:10174000C361C36943EA0223C36100E000BF00BF75
:101750007047000000B589B04FF4E060FFF7C8FDA6
:1017600040F20170FFF7C4FD40F20270FFF7C0FDC8
:1017700040F20B60FFF7BCFD4FF0804000F0CEF868
:10178000634800F0CBF8634800F0C8F8624800F006
:10179000C5F80920ADF804000020ADF80600ADF84A
:1017A000080040F21B1003900020ADF810008DF8E7
:1017B000120001A94FF0804000F028F90020ADF898
:1017C0001A00012005900020ADF81C00ADF81800AB
:1017D000ADF81E00ADF8200005AA01218807FFF72B
:1017E00055FE002201218807FFF773FF60220121C7
:1017F0008807FFF741FF002201218807FFF77CFFE0
:101800004FF08040FFF73CFE0121880700F068F9A7
:101810004FF0804000F0F5F86B20ADF80400002098
:10182000ADF80600ADF80800092003900020ADF8DF
:1018300010008DF8120001A9354800F0E7F834488F
:10184000FFF71EFE0121324800F04AF9304800F04F
:10185000D8F80620ADF804000020ADF80600ADF879
:101860000800FE2003900020ADF810008DF8120053
:1018700001A9284800F0CAF80020ADF81A0001209C
:1018800005900020ADF81C00ADF81800ADF81E0062
:10189000ADF8200005AA01211E48FFF7F7FD002240
:1018A00001211C48FFF715FF602201211948FFF7AD
:1018B000E3FE002201211748FFF71EFF1548FFF73E
:1018C000DFFD0121134800F00BF9124800F094F8F5
:1018D0000A20ADF804000020ADF80600ADF80800BD
:1018E00040F2793003900020ADF810008DF812001E
:1018F00001A9094800F08AF80748FFF7C1FD012156
:10190000054800F0EDF8044800F076F809B000BD95
:101910000004004000080040002C014010B50446BF
:101920003349601A8C4244D00CDCB4F1804F1CD097
:101930003048204410B3B0F5806F28D0B0F5006F68
:1019400052D12DE0B0F5806F3CD0B0F58E3F03D082
:10195000B0F5923F48D13EE040F20B30FFF7E8FC93
:1019600040F20B30FFF7D4FC3FE04FF48060FFF70C
:10197000DFFC4FF48060FFF7CBFC36E040F2014023
:10198000FFF7D6FC40F20140FFF7C2FC2DE040F229
:101990000240FFF7CDFC40F20240FFF7B9FC24E023
:1019A00040F20340FFF7C4FC40F20340FFF7B0FCF5
:1019B0001BE040F20440FFF7BBFC40F20440FFF79D
:1019C000A7FC12E040F20540FFF7B2FC40F20540F0
:1019D000FFF79EFC09E040F20D30FFF7A9FC40F252
:1019E0000D30FFF795FC00E000BF00BF10BD000008
:1019F0000010004000FCFFBF016821F00101016000
:101A00007047016841F00101016070470A888262F5
:101A1000264A904220D0B0F1804F1DD0244A9042F7
:101A20001AD0244A904217D0234A904214D0234A15
:101A3000904211D0224A90420ED0224A90420BD0BE
:101A4000214A904208D0214A904205D0204A904233
:101A500002D0204A90420BD1026822F0700202604C
:101A600002684B881A43026002688B881A4302603E
:101A70008A68C262184A90420AD0184A904207D037
:101A8000026822F44072026002688B891A43026085
:101A9000064A904202D0094A904201D18A7B0263F1
:101AA000426942F00102426170470000002C01408F
:101AB0000004004000080040000C004000340140D9
:101AC000004C01400050014000540140001800400B
:101AD000001C0040002000400010004000140040A6
:101AE000C2680A43C260704702698A430261704754
:101AF0000246D06800EA01031069084010B10BB13A
:101B0000012070470020FCE72DE9F04704460D4610
:101B10000027B846B94600261D49601A8C421CD0E1
:101B200006DC1C48204470B1B0F5806F1FD10FE077
:101B3000B0F5806F16D0B0F56C4F18D10320FFF7C9
:101B400037FB074614E00220FFF732FB07460FE0A1
:101B50000220FFF72DFB07460AE00220FFF728FBD3
:101B6000074605E00220FFF723FB074600E000BF21
:101B700000BF07EB5500B0FBF5F64FF6F07006EA34
:101B8000000806F00F0948EA0900A060BDE8F087E8
:101B9000004C004000BCFFBFC1F308024260704728
:101BA00010B504462049601A8C4228D006DC1F4834
:101BB000204490B1B0F5806F33D117E0B0F5806F5D
:101BC00026D0B0F56C4F2CD140F20E30FFF7B0FBB1
:101BD00040F20E30FFF79CFB24E040F21140FFF78B
:101BE000A7FB40F21140FFF793FB1BE040F21240CD
:101BF000FFF79EFB40F21240FFF78AFB12E040F233
:101C00001340FFF795FB40F21340FFF781FB09E01B
:101C100040F21440FFF78CFB40F21440FFF778FBD2
:101C200000E000BF00BF10BD004C004000BCFFBF83
:101C3000C16841F40051C160704710B5024602EB23
:101C40009110006801F01F040123A340184008B15F
:101C5000012010BD0020FCE70A460021C16821F0E8
:101C600004011143C16070470A460021C16821F098
:101C700008011143C160704701460A69D1E901308A
:101C80009860D1E9010358605068884201D18868A2
:101C90005060002008611068401E10601068704796
:101CA00000F1080141604FF0FF31816000F108014F
:101CB000C16001610021016070470021016170472E
:101CC00010B502460B685C1C0CB9106907E002F104
:101CD000080000E04068446824689C42FAD94468DF
:101CE0004C604C68A160886041600A611468641CA3
:101CF000146010BD42684A6093688B6093685960B5
:101D00009160086103685B1C0360704700BFBF20DF
:101D100080F31188BFF34F8FBFF36F8F00BF03486D
:101D20000068401C0149086070470000F80000206E
:101D300006480068401E054908600846006820B94A
:101D4000002080F3118800BF00BF7047F80000201A
:101D500070B506463546B6B1083D2C4600F070F920
:101D60006168094800E00068026852688A42FAD354
:101D700002682260046005496068096808440349F4
:101D8000086000F033FC70BDE0000020F00000208F
:101D900003484FF0E02148610720086170470000C8
:101DA0003F19010026E00020FEF7CAFDF8B9142013
:101DB00000F046F80020FEF7C3FDC0B900200E4930
:101DC00008700E4908604FF08040FFF71AFE0C487B
:101DD000FFF717FE0B48FFF714FE0B48FFF711FE45
:101DE0000AA0FEF773FC4FF4757000F029F801208B
:101DF00000F026F8D7E700000801002004010020C9
:101E00000004004000080040002C014049276D20DC
:101E10005461736B3232320D0A00000006E004A0F8
:101E2000FEF754FC4FF47A7000F00AF8F7E7000070
:101E300049276D205461736B33333333330D0A00FC
:101E400070B50446002544B100F0FAF800212046A0
:101E5000FEF7EAFE00F0CAFB05463DB94FF08050A0
:101E600003490860BFF34F8FBFF36F8F70BD000051
:101E700004ED00E008B500254FF4967000903D4851
:101E8000047800220421012000F046F93A49086054
:101E90006FE000231A4669463748006800F058F999
:101EA000012863D10098B0F5617F04D1002201219F
:101EB0008807FFF70EFC40F214510098884204D1C5
:101EC000642201210007FFF704FC072D16DB002523
:101ED0000020009027480478002201218807FFF79E
:101EE000F8FB2648FFF788FD4FF08040FFF784FDA0
:101EF00000202349086023A0FEF7E8FB04F001005E
:101F0000D0B140F24C510098884204D10022012106
:101F10008807FFF7DEFB40F2DC510098884225D1AC
:101F2000642201218807FFF7D4FB6410681CC5B246
:101F300040F21450009019E040F2A45100988842F9
:101F400004D1002201210007FFF7C3FB40F2DC515E
:101F5000009888420AD1642201218807FFF7B9FB63
:101F60006410681CC5B240F2145000900120FFF7C5
:101F700067FF8EE7080000200400002000040040F6
:101F8000FC00002073656E642061206D65737361D1
:101F90006765210D0A0000000120014908607047B3
:101FA000C800002070B505460C4605480168183188
:101FB0002846FFF785FE01212046FEF735FE70BD5D
:101FC000A4000020034909680160034909684160D1
:101FD00070470000CC000020B80000201CB511485C
:101FE00000210B468022CDE900100FA1104800F01F
:101FF000FFF90446012C14D100BFBF2080F31188E3
:10200000BFF34F8FBFF36F8F00BF4FF0FF30094911
:10201000086001200849086000200849086000F0B5
:1020200047F81CBDD800002049444C450000000082
:10203000B90E0008D4000020C0000020B800002025
:1020400002480068401C014908607047DC0000201D
:102050001248006818B10120114908601DE00020F5
:102060000F4908600F480068B0FA80F0C0F11F0106
:1020700001EB81020C4B03EB820042685268426024
:1020800000F108024368934202D1426852684260FC
:102090004268D268054B1A6000BF7047DC00002020
:1020A000C8000020BC0000202C010020A40000205B
:1020B00010B50A48006840F47F00084908600846E7
:1020C000006840F07F400860FFF762FE002004498E
:1020D0000860FEF733F8002010BD000020ED00E09E
:1020E000F800002010B500BFBF2080F31188BFF3B7
:1020F0004F8FBFF36F8F00BF00F0AAF918B14FF0F8
:1021000080500449086000BF002080F3118800BFA0
:1021100010BD000004ED00E02DE9F84307460D4630
:1021200090460DB9002601E007FB05F606F14800D0
:10213000FEF7D0FF044644B104F1480943464A463D
:10214000294638460094FEF7CBFE2046BDE8F883CA
:102150002DE9FF4782B0054689461E464FF0000A2A
:102160002C4600BFFFF7D2FDD4F83880B8F1000F3D
:1021700036D0E76849462046FEF72EFEB6B9A8F1EC
:102180000100A063206908B9012000E0002008BB1D
:1021900004F1100000F0EAF9E0B14FF080503A4944
:1021A0000860BFF34F8FBFF36F8F13E0E760606A83
:1021B00008B9012000E0002060B904F1240000F01B
:1021C000D5F938B14FF080502F490860BFF34F8FD9
:1021D000BFF36F8FFFF7ACFD012006B0BDE8F087BD
:1021E000049818B9FFF7A4FD0020F6E7BAF1000F34
:1021F00004D16846FFF7E6FE4FF0010AFFF798FDAD
:10220000FFF71EFFFFF782FD94F94400401C10B950
:10221000002084F8440094F94500401C10B90020C7
:1022200084F84500FFF784FD04A9684600F0B2F881
:10223000F0B92046FEF7DCFEA0B104F124000499B9
:10224000FFF7B0FE2046FEF706FF00F0CFF90028AA
:1022500088D14FF080500C490860BFF34F8FBFF317
:102260006F8F7FE72046FEF7F6FE00F0BFF979E7B3
:102270002046FEF7F0FE00F0B9F92046FEF7B8FE62
:102280000028EED00020A8E704ED00E070B5054678
:102290000E462C46FFF73AFDD4E90F12206801FBE9
:1022A000020060600020A0632068A060E06B401E18
:1022B000226C216800FB0210E060FF2084F84400DB
:1022C00084F845009EB9206908B9012000E000208B
:1022D000A8B904F1100000F049F980B14FF0805026
:1022E00009490860BFF34F8FBFF36F8F07E004F118
:1022F0001000FFF7D5FC04F12400FFF7D1FCFFF735
:1023000017FD012070BD000004ED00E02DE9F05F35
:1023100005468A4616461F462C4600BFBF21EFF3EE
:10232000118081F31188BFF34F8FBFF36F8F00BF10
:102330008146A06BE16B884201D3022F20D194F932
:1023400045B03A4651462046FEF75BFD0BF10100D1
:1023500070B9606A08B9012000E0002068B904F192
:10236000240000F003F940B13EB10120306004E0E8
:102370000BF1010040B284F845004FF0010801E084
:102380004FF0000800BF89F3118800BF4046BDE848
:10239000F09F000070B504460D46FFF7B7FC1248E9
:1023A00002682868401C08B9002619E00F49206817
:1023B0000968884204D06068904201D801260FE085
:1023C0006068101A2968884209D228686168511A21
:1023D000401A28602046FFF7F5FD002600E00126A0
:1023E000FFF7A6FC304670BDB8000020CC000020EE
:1023F0002DE9FF4F85B0804689461746DDE912ABCF
:10240000B800FEF767FE064656B14C20FEF762FEA6
:1024100004460CB1266304E03046FFF799FC00E067
:1024200000247CB10020CDE900ABCDE902403A4662
:1024300049464046089BFEF766FD2046FEF740FCF5
:10244000012501E04FF0FF35284609B0BDE8F08FC7
:102450002DE9F04100273A480068002863D1394847
:102460000068451C374805608DB93748D0F80080B2
:1024700036480068344908603448C0F80080344861
:102480000068401C32490860FEF7C0FD00BF3148BB
:10249000006885423BD300BF2B480068006808B93C
:1024A000012000E0002020B14FF0FF3029490860F2
:1024B0002CE025480068C068C4686668B54202D24E
:1024C0002448066022E0201DFFF7D6FBA06A18B161
:1024D00004F11800FFF7D0FB94F82C10012088407D
:1024E0001D49096808431C490860E16A01EB810144
:1024F0001A4A02EB8100211DFFF7FCFB1849E06A34
:102500000968C96A8842C7D30127C5E700BF1448D4
:102510000068C06A00EB8000104951F820000128D3
:1025200000D9012704E00F480068401C0D490860ED
:102530000D48006800B101273846BDE8F081000071
:10254000DC000020B8000020A8000020AC00002023
:10255000CC000020D4000020BC0000202C01002072
:10256000A4000020C4000020C800002070B506466A
:10257000F068C46804F11800FFF77EFB1548006896
:10258000A8B9201DFFF778FB94F82C100120884093
:1025900011490968084310490860E16A01EB8101AB
:1025A0000E4A02EB8100211DFFF7A4FB04E004F1B9
:1025B00018010B48FFF79EFB0A49E06A0968C96ADF
:1025C000884204D9012501200749086000E0002560
:1025D000284670BDDC000020BC0000202C0100203B
:1025E000B8010020A4000020C800002070B500241D
:1025F0000026FFF78BFB2E480068401E2C49086020
:102600000846006800284FD12A48006800284BD0AF
:1026100024E02948C068C46804F11800FFF72CFBC7
:10262000201DFFF729FB94F82C1001208840234936
:102630000968084321490860E16A01EB8101204AE9
:1026400002EB8100211DFFF755FB1E49E06A096876
:10265000C96A884202D301201B49086016480068F5
:1026600008B9012000E000200028D2D00CB1FEF70C
:10267000CDFC1648056865B100BFFFF7E9FE10B153
:102680000120114908606D1E002DF6D100200F4970
:1026900008600D48006838B1012630070C49086011
:1026A000BFF34F8FBFF36F8FFFF742FB304670BD14
:1026B000DC000020B4000020B8010020BC00002095
:1026C0002C010020A4000020C8000020C40000202D
:1026D00004ED00E00206034708050A010B060D0F92
:1026E0000E620F7610F611431213151518181916ED
:1026F00020FB23E9242A2500261F2C812D35173B9A
:1027000020270008000000202C0100001C02000807
:10271000942700082C010020CC480000EC0600089B
:10272000810210583C100140044A1804320132045E
:10273000290832023D0E0611070929042919290426
:102740001A082C19041E0206020604022901391473
:1027500029484A0C1C29401132201A4063293F198C
:10276000284B0306586918511A0212130D0E044D16
:1027700006282863F8431AAA010110398411100BA6
:102780000A0B0C0D0E0F101112137009C0C88460D3
:0427900068341D0E7E
:0400000508000105E9
:00000001FF
