:020000040800F2
:10000000D04D0020B1010008E506000805050008F4
:10001000E106000831030008050C0008000000009C
:1000200000000000000000000000000019010008AE
:10003000DD040008000000005D010008D52A00086A
:10004000CB010008CB010008CB010008CB01000860
:10005000CB010008CB010008E1040008CB01000837
:10006000CB010008CB010008CB010008CB01000840
:10007000CB010008CB010008CB010008CB01000830
:10008000CB010008CB010008CB010008CB01000820
:10009000CB010008CB010008CB010008CB01000810
:1000A000CB010008B1070008CB010008CB01000814
:1000B000CB010008CB01000855090008CB0100085E
:1000C000CB010008CB010008CB010008CB010008E0
:1000D000CB010008CB010008CB010008CB010008D0
:1000E000CB010008CB010008CB0100080000000094
:1000F0000000000000000000000000000000000000
:10010000CB010008DFF80CD000F088F80048004769
:1001100085110008D04D0020224B19680868B0E80E
:10012000F00F80F30988BFF36F8F4FF0000080F36A
:1001300011884EF00D0E7047000000000648006860
:10014000006880F3088862B661B6BFF34F8FBFF3D3
:100150006F8F00DF00BF00BF08ED00E0EFF3098004
:10016000BFF36F8F0F4B1A6820E9F00F106008B5CE
:100170004FF0BF0080F31188BFF34F8FBFF36F8F35
:1001800002F05EFC4FF0000080F31188BDE80840EB
:1001900019680868B0E8F00F80F30988BFF36F8F23
:1001A000704700BF10010020EFF30580704700008A
:1001B0000648804706480047FEE7FEE7FEE7FEE701
:1001C000FEE7FEE7FEE7FEE7FEE7FEE74D07000875
:1001D0000501000840EA01039B0703D009E008C9B4
:1001E000121F08C0042AFAD203E011F8013B00F8FC
:1001F000013B521EF9D27047D2B201E000F8012B48
:10020000491EFBD270470022F6E710B513460A4696
:1002100004461946FFF7F0FF204610BD064C074D77
:1002200006E0E06840F0010394E8070098471034C6
:10023000AC42F6D3FFF76AFFD8300008F830000868
:1002400070B58C1810F8015B15F0070301D110F898
:10025000013B2A1106D110F8012B03E010F8016BC5
:1002600001F8016B5B1EF9D12B0705D40023521E48
:100270000DD401F8013BFAE710F8013BCB1A921CB0
:1002800003E013F8015B01F8015B521EF9D5A142AE
:10029000D8D3002070BD00001CB500200621034605
:1002A0004022CDE9001011A1134802F099FD002071
:1002B000052103464022CDE9001010A1124802F0AA
:1002C0008FFD0020032103464022CDE900100FA13D
:1002D000124802F085FD0020042103464022CDE9AA
:1002E00000100FA1114802F07BFD1CBD7654617314
:1002F0006B41747461636B007D260008696E6672E1
:10030000617265640000000055280008765461732E
:100310006B426541747461636B000000CD26000878
:10032000765461736B436F72650000006D2700089F
:1003300000BFFEE710B500F050F83B2000F067F872
:1003400010BD70B5044600F09BF844F0800000F04A
:10035000E1F9FF2000F0DEF9054600F089F82846B3
:1003600070BD2DE9F04107460D4616460EB9002432
:1003700005E0012E03D10920FFF7E3FF0446FFF754
:10038000D9FF0720FFF7DDFF20F0030048B1681C0C
:10039000C1B23F2000F05DF821463F2000F059F83F
:1003A00003E029463F2000F054F82A4639463F2012
:1003B00000F037F8002000F015F800BF032000F02F
:1003C000F3FD0028FAD100BF032000F0EDFD002866
:1003D000FAD0FFF7AFFFBDE8F08110B5362000F08E
:1003E00016F810BD10B504463CB94621022000F0B5
:1003F00030F8352000F00BF808E0012C06D146213A
:10040000022000F026F8342000F001F810BD10B5ED
:10041000044600F035F8204600F07CF900F028F89A
:1004200010BD2DE9F04105460E46174600F028F8AC
:1004300045F0400000F06EF9002404E0305D00F06B
:1004400069F9601CC4B2BC42F8DB00F011F8BDE8E9
:10045000F08170B505460C4600F012F8284600F011
:1004600059F9204600F056F900F002F870BD00007E
:1004700010B58021014800F0A9FD10BD000C01401D
:1004800010B58021014800F09FFD10BD000C014017
:1004900001200D49087064204870012088700846CA
:1004A00040780A49087243200860002048604320D1
:1004B000074908600120087100200649086008719A
:1004C000054908707047000000000020B0010020BE
:1004D000040000200C0000201400002070470000E1
:1004E00010B5012000F0B6FC48B164220121880754
:1004F00001F067FC01200249087000F0A5FC10BD66
:100500008D01002000BFFEE710B504465E48046080
:1005100004F4004000287DD15C48C06800281BD04E
:100520005A480069B0F5487F1CD958480069B0F5B1
:100530007A7F17D25548C068B0F5967F12D95348D4
:10054000C068B0F5FA7F0DD25048007D28B901206F
:100550004E490875002008727EE000204B4908755E
:10056000086079E049480069B0F5E17F16D947484D
:10057000006940F2EE21884210D24448007D0128F3
:1005800008D10020414908750846006840F0004045
:10059000086061E000203D4908605DE03B48007D67
:1005A00018B33A48006928281FD9384800695028EC
:1005B0001BD23648C068282817D93448C06850284C
:1005C00013D2324800684000304908600846007A7B
:1005D000401C087208460069C9682D4A11448842C7
:1005E0003AD900202949087536E02848007D58B3DB
:1005F00026480069282827D924480069502823D292
:100600002248C06864281FD92048C068FA281BD235
:100610001E4800E02CE0006840001C4908600846C5
:10062000006840F0010008600846007A401C08722B
:1006300008460069C96844F62062114488420BD913
:1006400000201249087507E00020104908750022B3
:100650000121880701F0B5FB0C48C06840F6C411C1
:10066000884202D900200949C860084804610AE0AC
:10067000C4F30E000549C86008460069B0F5FA6F7A
:1006800001D90020087510BD44000020DC020020C4
:10069000400D030000210E4A11601175D1601161F7
:1006A000917251725175D1821172002008E00021BF
:1006B000084A42F8301002EBC0021171411CC8B266
:1006C0000A28F4DB0349044A1160044A11607047A8
:1006D000DC0200208C020020380000203C000020BA
:1006E00000BFFEE770472DE9F04391B004460D4688
:1006F00000260027B046B14644216846FFF783FD37
:10070000012229462046FFF72CFE0126012011B0C8
:10071000BDE8F08310B5044621460B4801F076F998
:1007200000BF0221084801F073F90028F9D000BF8A
:100730000121054801F06CF90028F9D0024801F0C8
:1007400061F9C0B210BD00000030014010B514487E
:10075000006840F0010012490860084640681149ED
:1007600008400F494860084600680F4908400C4996
:1007700008600846006820F4802008600846406849
:100780000A4908400649486008460068064908408A
:10079000034908604FF41F00886001F0A3F910BD01
:1007A000001002400C00FFE8FFFFF6FEFFFF00F71D
:1007B00010B50121624801F006FEF8B161480078E9
:1007C00000F08000D0B15F48007820F010005D4953
:1007D00008700846007800F00F0020B9084600783D
:1007E00040F0400008705748007800F00F000E28D5
:1007F00005DA54480078401C524908700AE0514814
:10080000007820F080004F4908700846007800F01A
:10081000F000087002214A4801F0D5FD002812D0EE
:10082000042000F0C1FB78B102220021444801F00D
:1008300084FD0021424801F0F9FB4248007840F075
:1008400010004049087076E000213D4801F053F95E
:100850003D49088000221146394801F06EFD3948B3
:10086000007800F0100000285FD03648007800F0D3
:100870008000E8B334480088B0F5967F0DDD32483B
:100880000088B0F5487F08DA3048006840002F49FA
:10089000086008460068086047E02B480088B0F50B
:1008A000AF6F0FDD28480088B0F5E16F0ADA2748FE
:1008B00000684000254908600846006840F00100D3
:1008C000086032E02048008840F69801884213DD35
:1008D0001D48008840F6282188420DDA1C4800781F
:1008E000401C1B4908701748007800F0F00000E039
:1008F00006E01449087018E000201249087014E05E
:100900001148008841F2680188420EDD0E480088D7
:1009100041F25C21884208DA0A48007840F0800001
:100920000849087000200A4908700648007820F03D
:100930001000044908700321014801F040FD10BD7A
:10094000002C014082010020840100208801002049
:100950008C01002010B501219C4801F034FD0028D5
:100960007DD09B48007800287AD1062000F01CFB3F
:1009700000283DD09748007840B3974800680F287A
:1009800024D300209549964A1278885494480078D8
:10099000401CC0B29249087010B9012091490870FA
:1009A0008D48006828280ED300208C498C4A127884
:1009B00088548B480078401CC0B28949087010B92F
:1009C000012088490870002082490870002082496F
:1009D000086085480068401C834908600846006834
:1009E00047F6FF71884202D300207F490860E7E0A4
:1009F0007848007840BB7C4800680F2824D3012049
:100A00007649774A1278885475480078401CC0B2FD
:100A10007349087010B90120724908707248006863
:100A200028280ED301206D496D4A127888546C48ED
:100A30000078401CC0B26A49087010B901206949A9
:100A40000870012063490870002067490860624807
:100A50000068401C604908600846006801E0B3E097
:100A600007E047F6FF718842C1D300205A49086069
:100A7000A6E05E480078E8B35D480068401C5C4929
:100A800008605C480068A8B308460068B0F5617F5C
:100A90001CD00846006840F21451884216D05448D1
:100AA000006840F24C51884210D05148006840F232
:100AB000EC5188420AD04E48006840F28451884286
:100AC00004D04B480068B0F5E16F1AD94848006877
:100AD0004949086000231A464648006802F00EF9AA
:100AE00043480068B0F5E16F0BD900203F4908701A
:100AF0003F4900E005E0086000220121880701F07D
:100B000060F9042000F050FA68B3334800682828E0
:100B100017D331480088C0F30E002F4908600846FB
:100B20000168364802780078401C344B187034480D
:100B300040F8221018460078642802DB002019468D
:100B4000087000202449086027480068401C264996
:100B500008600846006847F6FF71884230D30020DD
:100B6000214908602CE020480068282817D31E4837
:100B7000006840F400401C490860084601681F48AE
:100B800002780078401C1D4B18701D4840F8221058
:100B900018460078642802DB0020194608700020FF
:100BA000114908600C480068401C0B490860084661
:100BB000006847F6FF71884202D3002006490860AA
:100BC0000121024801F0FBFB10BD000000080040BD
:100BD0007E01002081010020780100204C49002086
:100BE0007F01002080010020740100207C01002092
:100BF00068010020240000206C0100207D010020FD
:100C0000BC47002000BFFEE7014A024900F013B8CC
:100C1000790E0008AC01002002E008C8121F08C1CC
:100C2000002AFAD170477047002001E001C1121F6D
:100C3000002AFBD170472DE9F04116460F460446C5
:100C4000002503E03946B047641C6D1C207800285D
:100C5000F8D12846BDE8F0817EB50020014686E047
:100C6000002209E08818444E305C444EB65CB04225
:100C700000D003E0501CC2B2122AF3DB00BF122ADC
:100C800072D101F11200C1B200243BE00025002323
:100C9000002221E05806030E3748405C58B9364E12
:100CA000481C305C012806D103F0FE03042A0FDA49
:100CB000681CC5B20CE03048405C012806D12E4EBD
:100CC000481C305C10B943F0010301E000207EBDF8
:100CD000881CC1B2501CC2B2052ADBDB58100DF8CB
:100CE000040003F00103284605EBD0767610A5EB4F
:100CF0004606F5B20A2C03DA9D4201D00020E6E751
:100D0000601CC4B20B2CC1DB2ED19DF803009DF8F2
:100D1000026040EA06101A4E30709DF805009DF8FA
:100D2000046040EA0610164E70709DF807009DF8AA
:100D3000066040EA0610124EB0709DF809009DF85A
:100D4000086040EA06100E4EF070002104E000201A
:100D5000094E7054481CC1B2FF29F8DB0020064E32
:100D600070540120B3E7FFE7481CC0B20146802958
:100D7000FFF676AF00BFAAE74C490020C430000858
:100D80004800002010B50021084600F0CDF810BD45
:100D900010B52C4B1B6883432A4C2360231D1B6812
:100DA0008343241D2360231D1B688343241D23606C
:100DB000231D1B688343241D236011B101290ED11B
:100DC00005E0204B1B6803431E4C236008E01D4BCD
:100DD0001B1D1B6803431B4C241D236000E000BF48
:100DE00000BF22B1012A0FD0022A27D119E0154BEA
:100DF00008331B680343134C08342360231D1B680E
:100E00008343241D23601AE00E4B08331B68834381
:100E10000C4C08342360231D1B680343241D2360EE
:100E20000DE0084B08331B680343064C083423606D
:100E3000231D1B680343241D236000E000BF00BF87
:100E400010BD000000040140014908607047000027
:100E50001404014001460748006800EA0102054801
:100E60001438006800EA010312B10BB10120704789
:100E70000020FCE71404014070B504460D46E1B2C1
:100E8000054801F0F5FA00BF0721034801F041FBD6
:100E90000028F9D0204670BD0038014070B50546E5
:100EA00000241B48854200D100E00124194931F893
:100EB000140000F077FD184931F8140000F072FDBD
:100EC000164951F82430164951F8240003221821FC
:100ED00000F006F9134951F82430114951F8240063
:100EE0000322042100F0FCF8284601F0C5FA4FF473
:100EF000E131284601F074FA0421284601F018FB7C
:100F00000821284601F01CFB284601F0FDFA70BDBF
:100F100000380140880000206C0000207000002094
:100F2000800000207800002070B504460D46174967
:100F300031F8140000F036FD4FF4C06000F032FDCF
:100F4000134951F82430134951F824000322042195
:100F500000F0C6F8012D17D10F49085D00220221CB
:100F600000F060F90D4A115D0D4A105D00F06CF85B
:100F70000C4951F8240001220021FFF709FF09491B
:100F800051F82400FFF760FF70BD0000CC00002086
:100F9000B00000209400002006010020FF00002087
:100FA000F8000020DC00002010B50446044A52F886
:100FB0002410044A52F8240000F0DCF810BD0000B0
:100FC000B00000209400002041617047016170472B
:100FD00010B540F2036000F0E5FC4FF4C06000F093
:100FE000E1FC022303221821154800F079F80123BF
:100FF00003221821134800F073F840F2036000F058
:10100000D1FC8023032210210E4800F069F804234C
:10101000032248210A4800F063F840F2036000F020
:10102000C1FC402303222821064800F059F84FF460
:10103000807303224821024800F052F810BD0000DE
:1010400000080140000C014010B500228B071C0F66
:101050000F2303FA04F204290EDA204B9B68934312
:101060001E4CA36023469B688C07240F00FA04F4EF
:1010700023431A4CA3602FE008290EDA174BDB68D4
:101080009343164CE3602346DB688C07240F00FA79
:1010900004F42343114CE3601EE00C290EDA0F4BDD
:1010A0001B6993430D4C236123461B698C07240F56
:1010B00000FA04F42343094C23610DE0074B5B69FC
:1010C0009343064C636123465B698C07240F00FA47
:1010D00004F42343014C636110BD00000000014093
:1010E000F0B5044616460025002201F00F0501F078
:1010F000100707B13543002018E0012787401F4043
:1011000097B122684FEA800C0F2707FA0CF7BA4311
:10111000870005FA07F73A43282901D1636102E005
:10112000482900D123612260471CB8B20828E4D3C3
:1011300008201CE0012787401F40B7B16268A0F17A
:1011400008074FEA870C0F2707FA0CF7BA43A0F1FC
:101150000807BF0005FA07F73A43282901D1636160
:1011600002E0482900D123616260471CB8B2102810
:10117000E0D3F0BD02469068084008B101207047F6
:101180000020FCE700F000FC1248FFF787FEFFF7A5
:101190001FFFFFF7F7FD00F031F800F053FE0EA03F
:1011A000FFF732FD10A0FFF72FFD09E0124800788D
:1011B00030B1002010490870FFF74EFD00B100E08B
:1011C000F4E700BFFFF764F9FFF766F801F0FEFBF4
:1011D00000BFFEE700380140426567696E20616428
:1011E00063210D0A0000000074657374206F76653A
:1011F00072210D0A000000008001002010B54FF49C
:10120000C06000F061F8012211461E2000F00AF8CB
:101210004FF4C06000F058F802220121192000F0BC
:1012200001F810BDF0B50B46002100240025244E26
:10123000366806F4E066B6F5E06F02D100BF04251B
:1012400026E01F4E366806F4E066B6F5C06F02D1A0
:10125000012403251CE01A4E366806F4E066B6F554
:10126000A06F02D10224022512E0154E366806F462
:10127000E066B6F5806F02D10324012508E0104E28
:10128000366806F4E066B6F5407F01D104240025F7
:10129000C4F1040603FA06F1C5F104070F26FE4067
:1012A000164031430901074E315400F01F07012653
:1012B000BE404711BF0007F1E027C7F80061F0BD4D
:1012C0000CED00E000E400E002490143024A116035
:1012D000704700000000FA050CED00E02DE9F04138
:1012E00005460E461C4807681C480068001D01F0B2
:1012F0002FF950B91948006890F82C100120884047
:1013000017490968814316480160681C38B936B12D
:1013100012480168091D134801F058F91AE07C19B8
:101320000E4800684460BC4207D20C480168091DA1
:101330000D48006801F030F90CE008480168091D0B
:101340000A48006801F028F909480068844201D27F
:1013500007480460BDE8F08124010020100100204E
:1013600028010020A80300201801002014010020FB
:101370004001002010B5044601F034F9234800680C
:10138000401C224908602248006840B92048046097
:101390000846006801280DD100F050F90AE01D4808
:1013A000006838B91A480068C06AE16A884201D802
:1013B0001748046018480068401C1749086094F8F2
:1013C0002C1001208840154909680843134908601A
:1013D000E16A01EB8101124A02EB8100211D01F05B
:1013E000F5F801F011F90B48006868B10848006889
:1013F000C06AE16A884207D24FF08050094908600C
:10140000BFF34F8FBFF36F8F10BD0000200100208E
:10141000100100202C0100203C01002028010020A8
:10142000F402002004ED00E070B523E001F000FBC1
:101430001348006808B9012000E00020054601F0CB
:10144000CDFDBDB901F0CEF80D48C068C468201DBF
:1014500001F07EF80B480068401E0A4908600A48FF
:101460000068401E0849086001F0CEF8204600F0F0
:1014700057F800BF044800680028D7D170BD0000AD
:1014800094030020200100201C01002070B50446B8
:101490000D46206C70B1216CE0680844E060616822
:1014A000E068884201D32068E0602846226CE16849
:1014B000FEF790FE70BD2DE9F04104460F4615463B
:1014C0004FF00008A66B206C28B37DB93946226C1A
:1014D000A068FEF77FFE216CA0680844A060D4E9F4
:1014E0000110884217D32068A06014E03946226CAE
:1014F000E068FEF76FFE216CE068401AE06021684A
:10150000E068884203D2216C6068401AE060022DD6
:1015100001D106B1761E701CA0634046BDE8F08183
:1015200010B50446206B01F07FF8204601F07CF8EE
:1015300010BD00000A4A22F007000A4A106000228B
:10154000084B5A6044F2F832074B5A6000221A6086
:10155000014644F2F8324A601A460A6070470000B9
:10156000C40300204C0100205401002000BFFFF7FD
:101570005BFF064800680128F9D94FF08050044904
:101580000860BFF34F8FBFF36F8FF0E7F4020020C6
:1015900004ED00E02DE9F04106460D461746984659
:1015A000069C0DB9246000E02760E66325640121F4
:1015B000204601F063FBBDE8F0812DE9FF5F804626
:1015C0000E469146DDE90E7A109CA9F10100216BCF
:1015D00001EB800B2BF0070B002507E0715D04F198
:1015E00034004155705D00B902E06D1C102DF5D33B
:1015F00000BF002143200155052F00D30427E762D7
:10160000201D00F0C6FF04F1180000F0C2FF2461A5
:10161000C7F10500A06164620020606484F848009E
:1016200041465846039A00F00BF92060BAF1000FCA
:1016300001D0CAF80040BDE8FF9F000010B50024AB
:1016400007E004EB84010F4A02EB810000F094FFF5
:10165000641C052CF5D30C4800F08EFF0B4800F0FD
:101660008BFF0B4800F088FF0A4800F085FF0A480E
:1016700000F082FF044809490860044808490860EE
:1016800010BD0000F4020020580300206C0300206D
:101690008003002094030020A803002014010020F0
:1016A0001801002070B5054600F09CFFA86B08B932
:1016B000012400E0002400F0A7FF204670BD0000D8
:1016C0000A490968096809B9012100E0002121B12E
:1016D0004FF0FF31064A116006E004490968C96805
:1016E000C868034A41681160704700001401002077
:1016F0004001002000BFBF2080F31188BFF34F8F4F
:10170000BFF36F8F00BF00BFFEE770B5044600F067
:1017100069FF94F9455010E0606A08B9012000E0C3
:10172000002038B904F1240001F018FC18B101F0D0
:101730002BF900E003E0681E45B2002DECDC00BF91
:10174000FF2084F8450000F05FFF00F04BFF94F9A4
:10175000445010E0206908B9012000E0002048B999
:1017600004F1100001F0FAFB08B101F00DF9681E58
:1017700045B200E001E0002DECDC00BFFF2084F862
:10178000440000F041FF70BD2DE9F04104464FF0E8
:10179000000801F04DF92648006820B9FFF7CAFE9D
:1017A00001202349086044B1083404F0070020B147
:1017B00004F00700C0F108000444002C32D044F2C9
:1017C000F83084422ED21B4F3846056801E02F4680
:1017D0002D686868A04202D228680028F7D1164810
:1017E00085421FD0386800F10808286838606868AA
:1017F000001B102810D92E196868001B70606C60DF
:1018000071680C4800E00068026852688A42FAD3A6
:1018100002683260066000BF084968680968081AF3
:101820000649086001F0DAFB4046BDE8F08100009F
:10183000600100204C010020540100205C010020C8
:10184000001F4FF080730360001F21F0010303604D
:10185000001F034B036014380260203870470000FB
:10186000F51600082DE9F04F8BB0074600200990CF
:101870003EA090E8004CC068CDE905BECDF810A0B0
:1018800007900FF2EC0ADAE9000ACDE9020A0FF23A
:10189000E00ADAE9000ACDE9000A38484068C0F3F6
:1018A00081000A900A9820B1012804D0022829D189
:1018B00003E0334928E0324926E03048406800F42C
:1018C0008038B8F5803F09D12D4C2C48406800F491
:1018D0000039B9F5003F02D1641000E0294C2748D7
:1018E0004068C0F383422548406800F0006008B1BA
:1018F00042F010020F2A01D2921C00E0521C04FB9D
:1019000002F101E01E4900BF00BF1C484068C0F35F
:10191000031504A8465D21FA06F318484068C0F391
:10192000022502A8465D23FA06FC14484068C0F36D
:10193000C2251DF8056023FA06F0089037B1012F83
:1019400006D0022F06D0032F0AD106E0099108E045
:10195000099306E0CDF824C003E00898099000E060
:1019600000BF00BF09980BB0BDE8F08F0000000079
:1019700000000000010203040607080900100240ED
:1019800000127A0000093D0010B540F2076000F037
:1019900009F840F2037000F005F840F20E6000F024
:1019A00001F810BD064A02EB9011096800F01F0310
:1019B00001229A401143024B03EB901211607047D1
:1019C00000100240064A02EB9011096800F01F0364
:1019D00001229A409143024B03EB90121160704731
:1019E00000100240064A02EB9011096800F01F0344
:1019F00001229A401143024B03EB90121160704791
:101A0000001002400146C86880B27047C16070474C
:101A100002469068084008B1012070470020FCE7AA
:101A2000002000212C4A126842F480322A4B1A60AE
:101A300000BF401C284A126802F4003119B94FF661
:101A4000FF729042F5D1244A126802F400320AB9BA
:101A500000BFFEE7204A52681F4B5A601A46526880
:101A60005A601A46526842F480625A601A465268B6
:101A700022F440325A601A46526842F440325A60A8
:101A80001A465268154B1A40134B5A601A46526850
:101A9000134B1A43104B5A601A46126842F0807278
:101AA0001A6000BF0C4A126802F00072002AF9D0D6
:101AB000094A526822F00302074B5A601A465268DC
:101AC00042F002025A6000BF034A526802F0080264
:101AD000002AF9D07047000000100240FFFFC3F752
:101AE0000000280810B5FFF79BFF10BD016841F00A
:101AF0008001016070470246002031B1012906D003
:101B0000022906D0032908D105E0506B06E0906B4E
:101B100004E0D06B02E0106C00E000BF00BF704733
:101B200031B101290CD0022913D0032922D118E0A8
:101B3000836923F00C0383618369134383611AE093
:101B4000836923F440638361836943EA02238361E9
:101B500011E0C36923F00C03C361C3691343C3617C
:101B600009E0C36923F44063C361C36943EA022304
:101B7000C36100E000BF00BF7047000010B531B185
:101B800001293FD002297DD003297CD1BFE0036A1F
:101B900023F001030362036A146823430362036AA8
:101BA00023F002030362036AD488234303626C4B6D
:101BB000984202D06B4B98421FD1036A23F0040372
:101BC0000362036A948823430362036A23F00803D1
:101BD0000362036A148923430362436823F4807316
:101BE00043604368548923434360436823F400738C
:101BF00043604368948923434360836923F003036C
:101C00008361ABE0036A23F010030362036A146884
:101C100043EA04130362036A23F020030362036AA6
:101C2000D48843EA041303624D4B984202D04D4BD3
:101C3000984223D1036A23F040030362036A948825
:101C400043EA04130362036A23F080030362036A16
:101C5000148943EA04130362436823F480634360F6
:101C60004368548943EA84034360436823F4006370
:101C700043604368948943EA84034360836923F49F
:101C8000407301E002E068E0836167E0036A23F4E7
:101C900080730362036A146843EA04230362036ADD
:101CA00023F400730362036AD48843EA04230362C3
:101CB0002B4B984202D02B4B984223D1036A23F43A
:101CC00080630362036A948843EA04230362036A1D
:101CD00023F400630362036A148943EA0423036262
:101CE000436823F4805343604368548943EA0413F0
:101CF0004360436823F4005343604368948943EA94
:101D000004134360C36923F00303C36126E0036A3D
:101D100023F480530362036A146843EA04330362C2
:101D2000036A23F400530362036AD48843EA04334A
:101D300003620B4B984202D00A4B984208D1436889
:101D400023F4804343604368548943EA8413436027
:101D5000C36923F44073C36100E000BF00BF10BD3E
:101D6000002C01400034014031B101290CD002297E
:101D700013D0032922D118E0836923F07003836113
:101D80008369134383611AE0836923F4E043836129
:101D9000836943EA0223836111E0C36923F070037E
:101DA000C361C3691343C36109E0C36923F4E0431A
:101DB000C361C36943EA0223C36100E000BF00BFFF
:101DC000704731B1012906D0022906D0032908D174
:101DD00005E0426306E0826304E0C26302E002645D
:101DE00000E000BF00BF704731B101290CD00229CB
:101DF00013D0032922D118E0836923F008038361FB
:101E00008369134383611AE0836923F40063836168
:101E1000836943EA0223836111E0C36923F0080365
:101E2000C361C3691343C36109E0C36923F4006359
:101E3000C361C36943EA0223C36100E000BF00BF7E
:101E40007047000000B58BB04FF4E060FFF7AAFDCB
:101E500040F20170FFF7A6FD40F20270FFF7A2FD0D
:101E600040F20B60FFF79EFD4FF0804000F0E0F87D
:101E70006B4800F0DDF86B4800F0DAF86A4800F0D3
:101E8000D7F80920ADF80C000020ADF80E00ADF831
:101E9000100040F21B1005900020ADF818008DF8DE
:101EA0001A0003A94FF0804000F03AF90020ADF885
:101EB0002200012007900020ADF82400ADF820009A
:101EC000ADF82600ADF8280007AA01218807FFF722
:101ED00055FE642201218807FFF773FF602201216C
:101EE0008807FFF741FF002201218807FFF77CFFE9
:101EF0004FF08040FFF7FAFD0121880700F05BFA00
:101F00004FF0804000F007F96B20ADF80C00002086
:101F1000ADF80E00ADF81000092005900020ADF8D6
:101F200018008DF81A0003A93E4800F0F9F83D4862
:101F3000FFF7DCFD01213B4800F03DFA394800F095
:101F4000EAF86B20ADF80C000020ADF80E00ADF8FB
:101F50001000072005900020ADF818008DF81A0039
:101F600003A92F4800F0DCF80020ADF82200012082
:101F700007900020ADF82400ADF82000ADF8260051
:101F8000ADF8280007AA02212548FFF7F7FD042233
:101F900002212348FFF715FF602202212048FFF7A6
:101FA000E3FE002202211E48FFF71EFF1C48FFF738
:101FB0009DFD01211A4800F0FEF9194800F0ABF828
:101FC0000A20ADF80C000020ADF80E00ADF81000AE
:101FD00040F2793005900020ADF818008DF81A0015
:101FE00003A9114800F09CF80220ADF8040001207C
:101FF000ADF806000020ADF80800ADF80A0001AA0F
:102000000021094800F0F6F80748FFF76FFD0121AD
:10201000054800F0D0F9044800F078F80BB000BD96
:102020000004004000080040002C0140416270475D
:1020300010B504463349601A8C4244D00CDCB4F12C
:10204000804F1CD03048204410B3B0F5806F28D0AA
:10205000B0F5006F52D12DE0B0F5806F3CD0B0F5F7
:102060008E3F03D0B0F5923F48D13EE040F20B30B6
:10207000FFF7B8FC40F20B30FFF7A4FC3FE04FF451
:102080008060FFF7AFFC4FF48060FFF79BFC36E009
:1020900040F20140FFF7A6FC40F20140FFF792FC3E
:1020A0002DE040F20240FFF79DFC40F20240FFF7B6
:1020B00089FC24E040F20340FFF794FC40F2034027
:1020C000FFF780FC1BE040F20440FFF78BFC40F27E
:1020D0000440FFF777FC12E040F20540FFF782FC76
:1020E00040F20540FFF76EFC09E040F20D30FFF7CB
:1020F00079FC40F20D30FFF765FC00E000BF00BF47
:1021000010BD00000010004000FCFFBF016821F07E
:10211000010101607047016841F0010101607047F1
:102120000A888262264A904220D0B0F1804F1DD0AA
:10213000244A90421AD0244A904217D0234A90420F
:1021400014D0234A904211D0224A90420ED0224A03
:1021500090420BD0214A904208D0214A904205D0AB
:10216000204A904202D0204A90420BD1026822F0CD
:102170007002026002684B881A43026002688B8812
:102180001A4302608A68C262184A90420AD0184A0A
:10219000904207D0026822F44072026002688B8984
:1021A0001A430260064A904202D0094A904201D185
:1021B0008A7B0263426942F001024261704700007B
:1021C000002C01400004004000080040000C0040CA
:1021D00000340140004C01400050014000540140D7
:1021E00000180040001C004000200040001000408B
:1021F0000014004070B504460E46154636B1012E57
:1022000026D0022E48D0032E7DD168E0206A20F02F
:1022100001002062206A20F00A002062206A2988DA
:1022200008432062A06920F00300A061A0696988CA
:102230000843A061A06920F0F000A061A069E988CE
:1022400040EA0110A061206A40F0010020626DE0C8
:10225000206A20F010002062206A20F0A000206296
:10226000206A298840EA01102062A06920F44070A9
:10227000A061A069698840EA0120A061A06920F4FA
:102280007040A061A069E98840EA0130A061206A3D
:1022900040F01000206249E0206A20F48070206243
:1022A000206A20F420602062206A298840EA012008
:1022B0002062E06920F00300E061E069698808437A
:1022C000E061E06920F0F000E061E069E98840EA5F
:1022D0000110E061206A40F48070206226E0206AEC
:1022E00020F480502062206A20F400502062206A8E
:1022F000298840EA01302062E06920F44070E06102
:10230000E069698800E010E040EA0120E061E069EE
:1023100020F47040E061E069E98840EA0130E06162
:10232000206A40F48050206200E000BF00BFAA880D
:1023300031462046FFF7F4FB70BD31B1012910D0C2
:1023400002291BD0032933D125E0036A23F00103BE
:102350000362036A23F00A030362036A13430362FE
:1023600027E0036A23F010030362036A23F0A0034B
:102370000362036A43EA021303621AE0036A23F466
:1023800080730362036A23F420630362036A43EAEF
:10239000022303620DE0036A23F480530362036A9D
:1023A00023F400530362036A43EA0233036200E04A
:1023B00000BF00BF7047C2680A43C260704702692D
:1023C0008A43026170470246D06800EA010310693F
:1023D000084010B10BB1012070470020FCE700005D
:1023E0002DE9F04704460D460027B846B9460026B9
:1023F0001D49601A8C421CD006DC1C48204470B178
:10240000B0F5806F1FD10FE0B0F5806F16D0B0F53A
:102410006C4F18D10320FFF725FA074614E002207D
:10242000FFF720FA07460FE00220FFF71BFA0746E6
:102430000AE00220FFF716FA074605E00220FFF740
:1024400011FA074600E000BF00BF07EB5500B0FBE4
:10245000F5F64FF6F07006EA000806F00F0948EAB4
:102460000900A060BDE8F087004C004000BCFFBF41
:10247000C1F308024260704710B504462049601A53
:102480008C4228D006DC1F48204490B1B0F5806F04
:1024900033D117E0B0F5806F26D0B0F56C4F2CD15A
:1024A00040F20E30FFF79EFA40F20E30FFF78AFA44
:1024B00024E040F21140FFF795FA40F21140FFF797
:1024C00081FA1BE040F21240FFF78CFA40F2124012
:1024D000FFF778FA12E040F21340FFF783FA40F278
:1024E0001340FFF76FFA09E040F21440FFF77AFA61
:1024F00040F21440FFF766FA00E000BF00BF10BDD5
:10250000004C004000BCFFBFC16841F40051C160F5
:10251000704710B5024602EB9110006801F01F04ED
:102520000123A340184008B1012010BD0020FCE7A2
:102530000A460021C16821F004011143C1607047BF
:102540000A460021C16821F008011143C1607047AB
:1025500001460A69D1E901309860D1E90103586068
:102560005068884201D18868506000200861106876
:10257000401E10601068704700F1080141604FF084
:10258000FF31816000F10801C1600161002101603B
:10259000704700210161704710B502460B685C1C52
:1025A0000CB9106907E002F1080000E040684468D7
:1025B00024689C42FAD944684C604C68A1608860E9
:1025C00041600A611468641C146010BD42684A606E
:1025D00093688B60936859609160086103685B1C25
:1025E0000360704700BFBF2080F31188BFF34F8F97
:1025F000BFF36F8F00BF03480068401C01490860AB
:10260000704700006401002006480068401E05492C
:1026100008600846006820B9002080F3118800BFD8
:1026200000BF70476401002070B506463546B6B15C
:10263000083D2C4600F0FCF96168094800E000689C
:10264000026852688A42FAD302682260046005492F
:102650006068096808440349086000F0BFFC70BD69
:102660004C0100205C01002003484FF0E02148614C
:1026700007200861704700003F1901001FE0104863
:102680000078C8B90520FEF78FFCA8B9142000F027
:10269000C7F80520FEF788FC70B95E220121880783
:1026A000FFF78FFB0120074908700748FFF733FD4C
:1026B0004FF4F07000F0B4F8012000F0B1F8DEE75C
:1026C000140000207C010020002C014000BFFDF719
:1026D000E1FF40E0FFF786FF1F480478FFF794FF13
:1026E00032E01E49897A1E4A52F82100FDF70CFF9C
:1026F0001A48006800F00040D8B11848008880B23D
:1027000018490968086015480068000C15490968EF
:1027100008711448006808301249086008460168CA
:102720001148814202D950380E49086000200B49F7
:1027300008600A48807A401C084988720846807AF6
:10274000642801DB002088720448807AA042C8D146
:10275000012000F065F8BDE77D010020DC020020CB
:10276000BC4700203C000020DC02002000220421A5
:10277000012000F0C9F92349086041E037E0224810
:102780004078224909680979884208DB1E48407868
:102790001E4909680979401A1B49487002E0002067
:1027A000194948701848407810B901201849087034
:1027B000154840781749087243200860134800689C
:1027C0000068486011480068006848600F48006869
:1027D00008300E490860084601680F48814202D956
:1027E00050380A4908600C210A48FDF77CFF074869
:1027F00000680A4909688842C1D1012000F010F838
:10280000BCE7000018000020000000203800002075
:1028100014000020B0010020DC0200203C00002059
:1028200070B50446002544B100F002F900212046AD
:10283000FEF754FD00F0D2FB05463DB94FF0805045
:1028400003490860BFF34F8FBFF36F8F70BD000067
:1028500004ED00E008B5002400264FF496700090C7
:10286000202500BF444F00220421012000F04CF934
:10287000424908607EE000231A4669463F480068E6
:1028800000F05EF9012872D10098B0F5617F04D1A3
:10289000002201218807FFF794FA40F214510098B2
:1028A000884204D15E2201210007FFF78AFA002D39
:1028B00052D0681E27FA00F000F0010048B340F241
:1028C0004C510098884204D1002201218807FFF76B
:1028D00078FA40F2EC510098884248D140F2155005
:1028E00027490860681EC5B25E2201218807FFF7EC
:1028F00068FA244850F824004000224941F8240096
:10290000084650F8240040F0010041F82400761CED
:102910002DE040F24C510098884204D10022012160
:102920008807FFF74EFA40F28451009888421ED182
:1029300040F2155012490860681EC5B25E2201219E
:102940008807FFF73EFA0F4850F8240040000D4971
:1029500041F82400761C0AE00098B0F5E16F06D932
:10296000641C142C00D3002400262025024F0120D3
:10297000FFF756FF7FE700003A0014002400002014
:10298000680100203C0200200120014908607047D6
:102990003401002070B505460C4605480168183121
:1029A0002846FFF7F9FD01212046FEF797FC70BD90
:1029B000100100200349096801600349096841606A
:1029C0007047000038010020240100201CB5114888
:1029D00000210B468022CDE900100FA1104800F025
:1029E000FFF90446012C14D100BFBF2080F31188E9
:1029F000BFF34F8FBFF36F8F00BF4FF0FF30094918
:102A0000086001200849086000200849086000F0BB
:102A100047F81CBD4401002049444C45000000001B
:102A20006D150008400100202C0100202401002029
:102A300002480068401C01490860704748010020B6
:102A40001248006818B10120114908601DE00020FB
:102A50000F4908600F480068B0FA80F0C0F11F010C
:102A600001EB81020C4B03EB82004268526842602A
:102A700000F108024368934202D142685268426002
:102A80004268D268054B1A6000BF704748010020B9
:102A90003401002028010020F40200201001002051
:102AA00010B50A48006840F47F00084908600846ED
:102AB000006840F07F400860FFF7D6FD0020044921
:102AC0000860FDF73BFB002010BD000020ED00E09A
:102AD0006401002010B500BFBF2080F31188BFF350
:102AE0004F8FBFF36F8F00BF00F0AAF918B14FF0FE
:102AF00080500449086000BF002080F3118800BFA7
:102B000010BD000004ED00E02DE9F84307460D4636
:102B100090460DB9002601E007FB05F606F14800D6
:102B2000FEF732FE044644B104F1480943464A46E2
:102B3000294638460094FEF72DFD2046BDE8F8836F
:102B40002DE9FF4782B0054689461E464FF0000A30
:102B50002C4600BFFFF746FDD4F83880B8F1000FCF
:102B600036D0E76849462046FEF790FCB6B9A8F192
:102B70000100A063206908B9012000E0002008BB23
:102B800004F1100000F0EAF9E0B14FF080503A494A
:102B90000860BFF34F8FBFF36F8F13E0E760606A89
:102BA00008B9012000E0002060B904F1240000F021
:102BB000D5F938B14FF080502F490860BFF34F8FDF
:102BC000BFF36F8FFFF720FD012006B0BDE8F0874F
:102BD000049818B9FFF718FD0020F6E7BAF1000FC6
:102BE00004D16846FFF7E6FE4FF0010AFFF70CFD3F
:102BF000FFF71EFFFFF7F6FC94F94400401C10B9E4
:102C0000002084F8440094F94500401C10B90020CD
:102C100084F84500FFF7F8FC04A9684600F0B2F814
:102C2000F0B92046FEF73EFDA0B104F1240004995E
:102C3000FFF7B0FE2046FEF768FD00F0CFF9002850
:102C400088D14FF080500C490860BFF34F8FBFF31D
:102C50006F8F7FE72046FEF758FD00F0BFF979E758
:102C60002046FEF752FD00F0B9F92046FEF71AFDA6
:102C70000028EED00020A8E704ED00E070B505467E
:102C80000E462C46FFF7AEFCD4E90F12206801FB7C
:102C9000020060600020A0632068A060E06B401E1E
:102CA000226C216800FB0210E060FF2084F84400E1
:102CB00084F845009EB9206908B9012000E0002091
:102CC000A8B904F1100000F049F980B14FF080502C
:102CD00009490860BFF34F8FBFF36F8F07E004F11E
:102CE0001000FFF749FC04F12400FFF745FCFFF753
:102CF0008BFC012070BD000004ED00E02DE9F05FC9
:102D000005468A4616461F462C4600BFBF21EFF3F4
:102D1000118081F31188BFF34F8FBFF36F8F00BF16
:102D20008146A06BE16B884201D3022F20D194F938
:102D300045B03A4651462046FEF7BDFB0BF1010077
:102D400070B9606A08B9012000E0002068B904F198
:102D5000240000F003F940B13EB10120306004E0EE
:102D60000BF1010040B284F845004FF0010801E08A
:102D70004FF0000800BF89F3118800BF4046BDE84E
:102D8000F09F000070B504460D46FFF72BFC12487B
:102D900002682868401C08B9002619E00F4920681D
:102DA0000968884204D06068904201D801260FE08B
:102DB0006068101A2968884209D228686168511A27
:102DC000401A28602046FFF7F5FD002600E00126A6
:102DD000FFF71AFC304670BD2401002038010020A6
:102DE0002DE9FF4F85B0804689461746DDE912ABD5
:102DF000B800FEF7C9FC064656B14C20FEF7C4FCED
:102E000004460CB1266304E03046FFF70DFC00E0F9
:102E100000247CB10020CDE900ABCDE902403A4668
:102E200049464046089BFEF7C8FB2046FEF7A2FA3B
:102E3000012501E04FF0FF35284609B0BDE8F08FCD
:102E40002DE9F04100273A480068002863D139484D
:102E50000068451C374805608DB93748D0F80080B8
:102E600036480068344908603448C0F80080344867
:102E70000068401C32490860FEF722FC00BF314860
:102E8000006885423BD300BF2B480068006808B942
:102E9000012000E0002020B14FF0FF3029490860F8
:102EA0002CE025480068C068C4686668B54202D254
:102EB0002448066022E0201DFFF74AFBA06A18B1F3
:102EC00004F11800FFF744FB94F82C10012088400F
:102ED0001D49096808431C490860E16A01EB81014A
:102EE0001A4A02EB8100211DFFF770FB1849E06AC6
:102EF0000968C96A8842C7D30127C5E700BF1448DB
:102F00000068C06A00EB8000104951F820000128D9
:102F100000D9012704E00F480068401C0D490860F3
:102F20000D48006800B101273846BDE8F081000077
:102F30004801002024010020140100201801002075
:102F4000380100204001002028010020F402002068
:102F500010010020300100203401002070B5064629
:102F6000F068C46804F11800FFF7F2FA1548006829
:102F7000A8B9201DFFF7ECFA94F82C100120884026
:102F800011490968084310490860E16A01EB8101B1
:102F90000E4A02EB8100211DFFF718FB04E004F14B
:102FA00018010B48FFF712FB0A49E06A0968C96A71
:102FB000884204D9012501200749086000E0002566
:102FC000284670BD4801002028010020F40200209E
:102FD00080030020100100203401002070B500247F
:102FE0000026FFF7FFFA2E480068401E2C490860B3
:102FF0000846006800284FD12A48006800284BD0B6
:1030000024E02948C068C46804F11800FFF7A0FA5A
:10301000201DFFF79DFA94F82C10012088402349C9
:103020000968084321490860E16A01EB8101204AEF
:1030300002EB8100211DFFF7C9FA1E49E06A096809
:10304000C96A884202D301201B49086016480068FB
:1030500008B9012000E000200028D2D00CB1FEF712
:103060002FFB1648056865B100BFFFF7E9FE10B1F8
:103070000120114908606D1E002DF6D100200F4976
:1030800008600D48006838B1012630070C49086017
:10309000BFF34F8FBFF36F8FFFF7B6FA304670BDA7
:1030A000480100202001002080030020280100208A
:1030B000F402002010010020340100203001002023
:1030C00004ED00E001000100010001000100010029
:1030D0000100010001000000F8300008000000209D
:1030E000B00100004002000874310008B001002067
:1030F000204C0000280C0008014D3C100140044AFF
:10310000180432013204290832023D0E0611070963
:103110002904291929041A082C19041E020602067A
:1031200004022901391429484A0C1C790419102970
:103130004C1132204A403F4210191529132942A34D
:103140000306A92C01113A021E11430D0E04530669
:10315000282863F8431AAA0101284996100B0A0B84
:103160000C0D0E0F101112133808C0C8846068349B
:043170001DA7310066
:0400000508000105E9
:00000001FF
