:020000040800F2
:10000000E04B0020B10100087D060008B90400089B
:100010007906000831030008710A0008000000009A
:1000200000000000000000000000000019010008AE
:1000300091040008000000005D0100088D27000801
:10004000CB010008CB010008CB010008CB01000860
:10005000CB010008CB01000895040008CB01000883
:10006000CB010008CB010008CB010008CB01000840
:10007000CB010008CB010008CB010008CB01000830
:10008000CB010008CB010008CB010008CB01000820
:10009000CB010008CB010008CB010008CB01000810
:1000A000CB0100085D070008CB010008CB01000868
:1000B000CB01000801090008CB010008CB010008B2
:1000C000CB010008CB010008CB010008CB010008E0
:1000D000CB010008CB010008CB010008CB010008D0
:1000E000CB010008CB010008CB0100080000000094
:1000F0000000000000000000000000000000000000
:10010000CB010008DFF80CD000F088F80048004769
:10011000B90E0008E04B0020224B19680868B0E8CF
:10012000F00F80F30988BFF36F8F4FF0000080F36A
:1001300011884EF00D0E7047000000000648006860
:10014000006880F3088862B661B6BFF34F8FBFF3D3
:100150006F8F00DF00BF00BF08ED00E0EFF3098004
:10016000BFF36F8F0F4B1A6820E9F00F106008B5CE
:100170004FF0BF0080F31188BFF34F8FBFF36F8F35
:1001800002F0BAFA4FF0000080F31188BDE8084091
:1001900019680868B0E8F00F80F30988BFF36F8F23
:1001A000704700BFE8000020EFF3058070470000B3
:1001B0000648804706480047FEE7FEE7FEE7FEE701
:1001C000FEE7FEE7FEE7FEE7FEE7FEE7F9060008CA
:1001D0000501000840EA01039B0703D009E008C9B4
:1001E000121F08C0042AFAD203E011F8013B00F8FC
:1001F000013B521EF9D27047D2B201E000F8012B48
:10020000491EFBD270470022F6E710B513460A4696
:1002100004461946FFF7F0FF204610BD064C074D77
:1002200006E0E06840F0010394E8070098471034C6
:10023000AC42F6D3FFF76AFF7C2D00089C2D000826
:1002400070B58C1810F8015B15F0070301D110F898
:10025000013B2A1106D110F8012B03E010F8016BC5
:1002600001F8016B5B1EF9D12B0705D40023521E48
:100270000DD401F8013BFAE710F8013BCB1A921CB0
:1002800003E013F8015B01F8015B521EF9D5A142AE
:10029000D8D3002070BD00001CB500200521034606
:1002A0004022CDE9001011A1134802F0F5FB002017
:1002B000022103464022CDE9001010A1124802F0AD
:1002C000EBFB0020042103464022CDE900100FA1E2
:1002D000124802F0E1FB0020032103464022CDE951
:1002E00000100FA1114802F0D7FB1CBD76546173BA
:1002F0006B41747461636B0091230008696E6672D0
:100300006172656400000000352500087654617351
:100310006B426541747461636B000000F523000853
:10032000765461736B436F72650000005D240008B2
:1003300000BFFEE710B500F050F83B2000F067F872
:1003400010BD70B5044600F09BF844F0800000F04A
:10035000B7F9FF2000F0B4F9054600F089F8284607
:1003600070BD2DE9F04107460D4616460EB9002432
:1003700005E0012E03D10920FFF7E3FF0446FFF754
:10038000D9FF0720FFF7DDFF20F0030048B1681C0C
:10039000C1B23F2000F05DF821463F2000F059F83F
:1003A00003E029463F2000F054F82A4639463F2012
:1003B00000F037F8002000F015F800BF032000F02F
:1003C00093FC0028FAD100BF032000F08DFC002828
:1003D000FAD0FFF7AFFFBDE8F08110B5362000F08E
:1003E00016F810BD10B504463CB94621022000F0B5
:1003F00030F8352000F00BF808E0012C06D146213A
:10040000022000F026F8342000F001F810BD10B5ED
:10041000044600F035F8204600F052F900F028F8C4
:1004200010BD2DE9F04105460E46174600F028F8AC
:1004300045F0400000F044F9002404E0305D00F095
:100440003FF9601CC4B2BC42F8DB00F011F8BDE813
:10045000F08170B505460C4600F012F8284600F011
:100460002FF9204600F02CF900F002F870BD0000D2
:1004700010B58021014800F049FC10BD000C01407E
:1004800010B58021014800F03FFC10BD000C014078
:100490007047000010B5012000F07CFB48B16422D9
:1004A0000121880701F017FB01200249087000F0C4
:1004B0006BFB10BD6101002000BFFEE758490860DA
:1004C00000F4004100297DD15649C96800291CD09B
:1004D00054490969B1F5487F18D952490969B1F5FC
:1004E0007A7F13D24F49C968B1F5967F0ED94D492D
:1004F000C968B1F5FA7F09D24A49097D002976D148
:100500000121484A11750021117270E045490969BD
:10051000B1F5E17F16D94349096940F2EE229142D3
:1005200010D24049097D012908D100213D4A1175A9
:100530001146096841F00041116058E00021394A34
:10054000116054E03749097D19B3364909692D29ED
:100550001FD9344909694B291BD23249C9682D2951
:1005600017D93049C9684B2913D22E490968490067
:100570002C4A11601146097A491C11721146096909
:10058000D268294B1A44914231D90021254A11756C
:100590002DE02449097D51B3224909692D2926D925
:1005A000204909694B2922D21E49C96882291ED9CE
:1005B0001C49C968D2291AD21A4909684900194A3E
:1005C000116000E01FE01146096841F0010111606F
:1005D0001146097A491C117211460969D26844F61C
:1005E00020631A44914202D900210E4A11750D4927
:1005F000C96840F6C412914202D90021094AD1606B
:10060000084908610AE0C0F30E01064AD1601146AC
:100610000969B1F5FA6F01D9002111757047000021
:100620004400002060020020400D030000210E4A1B
:1006300011601175D1601161917251725175D18241
:100640001172002008E00021084A42F8301002EB45
:10065000C0021171411CC8B20A28F4DB0349044AE4
:100660001160044A116070476002002010020020EF
:10067000380000203C00002000BFFEE7704700006B
:100680002DE9F04391B004460D4600260027B04600
:10069000B14644216846FFF7B6FD012229462046AF
:1006A000FFF75FFE0120FFF79DFE4FF448700349FE
:1006B00008800126012011B0BDE8F083660100200A
:1006C00010B5044621460B4801F02AF800BF02216C
:1006D000084801F027F80028F9D000BF012105489B
:1006E00001F020F80028F9D0024801F015F8C0B256
:1006F00010BD00000030014010B51448006840F003
:1007000001001249086008464068114908400F4935
:100710004860084600680F4908400C4908600846D0
:10072000006820F480200860084640680A490840B4
:1007300006494860084600680649084003490860C1
:100740004FF41F00886001F057F810BD0010024000
:100750000C00FFE8FFFFF6FEFFFF00F710B50121D8
:10076000624801F0BAFCF8B16148007800F08000FE
:10077000D0B15F48007820F010005D49087008464D
:10078000007800F00F0020B90846007840F04000E3
:1007900008705748007800F00F000E2805DA54481A
:1007A0000078401C524908700AE05148007820F057
:1007B00080004F4908700846007800F0F00008708B
:1007C00002214A4801F089FC002812D0042000F0E0
:1007D0008BFA78B102220021444801F038FC002154
:1007E000424801F0ADFA4248007840F0100040491C
:1007F000087076E000213D4801F007F83D49088087
:1008000000221146394801F022FC3948007800F0F6
:10081000100000285FD03648007800F08000E8B370
:1008200034480088B0F5967F0DDD32480088B0F579
:10083000487F08DA3048006840002F4908600846C1
:100840000068086047E02B480088B0F5AF6F0FDD07
:1008500028480088B0F5E16F0ADA274800684000B0
:10086000254908600846006840F00100086032E051
:100870002048008840F69801884213DD1D48008812
:1008800040F6282188420DDA1C480078401C1B499C
:1008900008701748007800F0F00000E006E0144906
:1008A000087018E000201249087014E01148008810
:1008B00041F2680188420EDD0E48008841F25C2159
:1008C000884208DA0A48007840F080000849087039
:1008D00000200A4908700648007820F010000449FA
:1008E00008700321014801F0F4FB10BD002C014009
:1008F00056010020580100205C010020600100200A
:1009000010B50121514801F0E8FB00287DD0504886
:100910000078A0B34F480068401C4E4908604E481C
:10092000006860B308460068B0F5617F1DD00846D6
:10093000006840F21451884217D04648006840F2DF
:100940004C51884211D04348006840F2EC51884233
:100950000BD04048006840F28451884205D03D48A1
:10096000006840F20971884209D13A4800683B4961
:10097000086000231A463848006802F01BF804207B
:1009800000F0B2F968B336480068282817D3344815
:100990000088C0F30E0032490860084601683148FB
:1009A00002780078401C2F4B18702F4840F8221016
:1009B00018460078282802DB00201946087000201D
:1009C0002749086029480068401C284908600846F3
:1009D000006847F6FF71884232D30020234908603F
:1009E0002EE022480068282819D32048006840F4E7
:1009F00000401E490860084602681A4801780078DD
:100A0000401C184B1870184800E01DE040F82120E9
:100A100018460078282802DB0020194608700020BC
:100A2000124908600E480068401C0D4908600846DD
:100A3000006847F6FF71884202D300200849086029
:100A40000121024801F045FB10BD000000040040F8
:100A50005401002040010020240000204401002017
:100A60005001002055010020404700204C0100208B
:100A700000BFFEE7014A024900F013B8B90B0008B5
:100A80008001002002E008C8121F08C1002AFAD124
:100A900070477047002001E001C1121F002AFBD1FE
:100AA00070472DE9F04116460F460446002503E045
:100AB0003946B047641C6D1C20780028F8D12846C0
:100AC000BDE8F08110B50021084600F0CDF810BD5A
:100AD00010B52C4B1B6883432A4C2360231D1B68D5
:100AE0008343241D2360231D1B688343241D23602F
:100AF000231D1B688343241D236011B101290ED1DE
:100B000005E0204B1B6803431E4C236008E01D4B8F
:100B10001B1D1B6803431B4C241D236000E000BF0A
:100B200000BF22B1012A0FD0022A27D119E0154BAC
:100B300008331B680343134C08342360231D1B68D0
:100B40008343241D23601AE00E4B08331B68834344
:100B50000C4C08342360231D1B680343241D2360B1
:100B60000DE0084B08331B680343064C0834236030
:100B7000231D1B680343241D236000E000BF00BF4A
:100B800010BD0000000401400149086070470000EA
:100B90001404014001460748006800EA01020548C4
:100BA0001438006800EA010312B10BB1012070474C
:100BB0000020FCE71404014070B504460D46E1B284
:100BC000054801F0DFFA00BF0721034801F02BFBC5
:100BD0000028F9D0204670BD0038014070B50546A8
:100BE00000241B48854200D100E00124194931F856
:100BF000140000F061FD184931F8140000F05CFDAC
:100C0000164951F82430164951F8240003221821BE
:100C100000F000F9134951F82430114951F824002B
:100C20000322042100F0F6F8284601F0AFFA4FF451
:100C3000E131284601F05EFA0421284601F002FB6A
:100C40000821284601F006FB284601F0E7FA70BDAE
:100C50000038014084000020680000206C00002063
:100C60007C0000207400002070B504460D46174932
:100C700031F8140000F020FD4FF4C06000F01CFDBE
:100C8000134951F82430134951F824000322042158
:100C900000F0C0F8012D17D10F49085D0022022194
:100CA00000F04AF90D4A115D0D4A105D00F066F83A
:100CB0000C4951F8240001220021FFF709FF0949DE
:100CC00051F82400FFF760FF70BD0000B80000205D
:100CD000A400002090000020E2000020DD000020A1
:100CE000D8000020C400002010B50446044A52F881
:100CF0002410044A52F8240000F0D6F810BD000079
:100D0000A4000020900000204161704701617047FD
:100D100010B540F2026000F0CFFC4FF4C06000F06C
:100D2000CBFC022303221821124800F073F840F292
:100D3000036000F0C1FC8023032210210E4800F064
:100D400069F83023032248210A4800F063F84FF481
:100D5000807303222821074800F05CF840F203600A
:100D600000F0AAFC402303220421034800F052F8BB
:100D700010BD000000080140000C014010B5002229
:100D80008B071C0F0F2303FA04F204290EDA204B01
:100D90009B6893431E4CA36023469B688C07240FDB
:100DA00000FA04F423431A4CA3602FE008290EDA5A
:100DB000174BDB689343164CE3602346DB688C07D4
:100DC000240F00FA04F42343114CE3601EE00C29C5
:100DD0000EDA0F4B1B6993430D4C236123461B69AD
:100DE0008C07240F00FA04F42343094C23610DE01F
:100DF000074B5B699343064C636123465B698C0731
:100E0000240F00FA04F42343014C636110BD000079
:100E100000000140F0B5044616460025002201F00E
:100E20000F0501F0100707B13543002018E0012736
:100E300087401F4097B122684FEA800C0F2707FABE
:100E40000CF7BA43870005FA07F73A43282901D17E
:100E5000636102E0482900D123612260471CB8B2D7
:100E60000828E4D308201CE0012787401F40B7B1C1
:100E70006268A0F108074FEA870C0F2707FA0CF702
:100E8000BA43A0F10807BF0005FA07F73A4328293B
:100E900001D1636102E0482900D123616260471CEF
:100EA000B8B21028E0D3F0BD02469068084008B1FF
:100EB000012070470020FCE700F0F0FB0B48FFF733
:100EC0008DFEFFF725FFFFF7FDFD00F021F800F094
:100ED00043FE07A0FFF7CEFD09A0FFF7CBFDFFF70C
:100EE000DBF901F0CFFB00BFFEE700000038014056
:100EF000426567696E20616463210D0A000000008D
:100F000074657374206F766572210D0A000000000D
:100F100010B54FF4C06000F061F8012211461D20A9
:100F200000F00AF84FF4C06000F058F802220121E6
:100F3000192000F001F810BDF0B50B460021002487
:100F40000025244E366806F4E066B6F5E06F02D15F
:100F500000BF042526E01F4E366806F4E066B6F5AD
:100F6000C06F02D1012403251CE01A4E366806F436
:100F7000E066B6F5A06F02D10224022512E0154EFC
:100F8000366806F4E066B6F5806F02D103240125C9
:100F900008E0104E366806F4E066B6F5407F01D1F1
:100FA00004240025C4F1040603FA06F1C5F1040780
:100FB0000F26FE40164031430901074E315400F020
:100FC0001F070126BE404711BF0007F1E027C7F801
:100FD0000061F0BD0CED00E000E400E002490143D7
:100FE000024A1160704700000000FA050CED00E0B5
:100FF0002DE9F04105460E461C4807681C4800686C
:10100000001D01F02FF950B91948006890F82C1014
:101010000120884017490968814316480160681C0F
:1010200038B936B112480168091D134801F058F962
:101030001AE07C190E4800684460BC4207D20C4894
:101040000168091D0D48006801F030F90CE00848FE
:101050000168091D0A48006801F028F9094800687C
:10106000844201D207480460BDE8F081FC00002002
:10107000E8000020000100202C030020F0000020E8
:10108000EC0000201801002010B5044601F034F9EE
:1010900023480068401C224908602248006840B983
:1010A000204804600846006801280DD100F050F97E
:1010B0000AE01D48006838B91A480068C06AE16A49
:1010C000884201D81748046018480068401C174936
:1010D000086094F82C1001208840154909680843DD
:1010E00013490860E16A01EB8101124A02EB8100B9
:1010F000211D01F0F5F801F011F90B48006868B105
:1011000008480068C06AE16A884207D24FF0805000
:1011100009490860BFF34F8FBFF36F8F10BD000008
:10112000F8000020E8000020040100201401002045
:10113000000100207802002004ED00E070B523E0FB
:1011400001F0D2FA1348006808B9012000E000203D
:10115000054601F09FFDBDB901F0CEF80D48C0680D
:10116000C468201D01F07EF80B480068401E0A4943
:1011700008600A480068401E0849086001F0CEF87F
:10118000204600F057F800BF044800680028D7D177
:1011900070BD000018030020F8000020F4000020BB
:1011A00070B504460D46206C70B1216CE0680844AF
:1011B000E0606168E068884201D32068E06028460A
:1011C000226CE168FFF706F870BD2DE9F041044696
:1011D0000F4615464FF00008A66B206C28B37DB96A
:1011E0003946226CA068FEF7F5FF216CA068084420
:1011F000A060D4E90110884217D32068A06014E0F1
:101200003946226CE068FEF7E5FF216CE068401A81
:10121000E0602168E068884203D2216C6068401A6F
:10122000E060022D01D106B1761E701CA06340461D
:10123000BDE8F08110B50446206B01F07FF8204630
:1012400001F07CF810BD00000A4A22F007000A4AAB
:1012500010600022084B5A6044F2F832074B5A6083
:1012600000221A60014644F2F8324A601A460A60C7
:101270007047000048030020240100202C010020BA
:1012800000BFFFF75BFF064800680128F9D94FF05F
:10129000805004490860BFF34F8FBFF36F8FF0E7B2
:1012A0007802002004ED00E02DE9F04106460D46ED
:1012B00017469846069C0DB9246000E02760E66357
:1012C00025640121204601F035FBBDE8F0812DE9C0
:1012D000FF5F80460E469146DDE90E7A109CA9F12B
:1012E0000100216B01EB800B2BF0070B002507E0C1
:1012F000715D04F134004155705D00B902E06D1C70
:10130000102DF5D300BF002143200155052F00D338
:101310000427E762201D00F0C6FF04F1180000F06A
:10132000C2FF2461C7F10500A0616462002060640F
:1013300084F8480041465846039A00F00BF92060B3
:10134000BAF1000F01D0CAF80040BDE8FF9F0000CD
:1013500010B5002407E004EB84010F4A02EB810082
:1013600000F094FF641C052CF5D30C4800F08EFFB0
:101370000B4800F08BFF0B4800F088FF0A4800F094
:1013800085FF0A4800F082FF0448094908600448C4
:101390000849086010BD000078020020DC0200202F
:1013A000F002002004030020180300202C0300207A
:1013B000EC000020F000002070B5054600F09CFF16
:1013C000A86B08B9012400E0002400F0A7FF204624
:1013D00070BD00000A490968096809B9012100E0E7
:1013E000002121B14FF0FF31064A116006E00449A7
:1013F0000968C968C868034A4168116070470000FD
:10140000EC0000201801002000BFBF2080F31188ED
:10141000BFF34F8FBFF36F8F00BF00BFFEE770B504
:10142000044600F069FF94F9455010E0606A08B97D
:10143000012000E0002038B904F1240001F0EAFBAB
:1014400018B101F0FDF800E003E0681E45B2002D80
:10145000ECDC00BFFF2084F8450000F05FFF00F0E7
:101460004BFF94F9445010E0206908B9012000E0D6
:10147000002048B904F1100001F0CCFB08B101F0E4
:10148000DFF8681E45B200E001E0002DECDC00BF93
:10149000FF2084F8440000F041FF70BD2DE9F041C9
:1014A00004464FF0000801F01FF92648006820B9F3
:1014B000FFF7CAFE01202349086044B1083404F054
:1014C000070020B104F00700C0F108000444002C1C
:1014D00032D044F2F83084422ED21B4F3846056891
:1014E00001E02F462D686868A04202D228680028D3
:1014F000F7D1164885421FD0386800F108082868DF
:1015000038606868001B102810D92E196868001B05
:1015100070606C6071680C4800E000680268526896
:101520008A42FAD302683260066000BF08496868E0
:101530000968081A0649086001F0ACFB4046BDE89E
:10154000F081000038010020240100202C0100203F
:1015500034010020001F4FF080730360001F21F052
:1015600001030360001F034B03601438026020383E
:1015700070470000091400082DE9F04F8BB00746B2
:10158000002009903EA090E8004CC068CDE905BE5F
:10159000CDF810A007900FF2EC0ADAE9000ACDE9C5
:1015A000020A0FF2E00ADAE9000ACDE9000A384837
:1015B0004068C0F381000A900A9820B1012804D045
:1015C000022829D103E0334928E0324926E0304897
:1015D000406800F48038B8F5803F09D12D4C2C4884
:1015E000406800F40039B9F5003F02D1641000E012
:1015F000294C27484068C0F383422548406800F0E2
:10160000006008B142F010020F2A01D2921C00E0E3
:10161000521C04FB02F101E01E4900BF00BF1C4840
:101620004068C0F3031504A8465D21FA06F3184884
:101630004068C0F3022502A8465D23FA06FC144860
:101640004068C0F3C2251DF8056023FA06F0089033
:1016500037B1012F06D0022F06D0032F0AD106E0A2
:10166000099108E0099306E0CDF824C003E008984A
:10167000099000E000BF00BF09980BB0BDE8F08FF3
:101680000000000000000000010203040607080932
:101690000010024000127A0000093D0010B540F22F
:1016A000076000F009F840F2037000F005F840F21E
:1016B0000E6000F001F810BD064A02EB90110968B7
:1016C00000F01F0301229A401143024B03EB9012DA
:1016D0001160704700100240064A02EB9011096841
:1016E00000F01F0301229A409143024B03EB90123A
:1016F0001160704700100240064A02EB9011096821
:1017000000F01F0301229A401143024B03EB901299
:1017100011607047001002400146C86880B27047EF
:10172000C160704702469068084008B101207047C8
:101730000020FCE7002000212C4A126842F480328D
:101740002A4B1A6000BF401C284A126802F400317C
:1017500019B94FF6FF729042F5D1244A126802F48B
:1017600000320AB900BFFEE7204A52681F4B5A6098
:101770001A4652685A601A46526842F480625A60A9
:101780001A46526822F440325A601A46526842F4AD
:1017900040325A601A465268154B1A40134B5A6031
:1017A0001A465268134B1A43104B5A601A46126875
:1017B00042F080721A6000BF0C4A126802F0007298
:1017C000002AF9D0094A526822F00302074B5A60F6
:1017D0001A46526842F002025A6000BF034A526839
:1017E00002F00802002AF9D0704700000010024001
:1017F000FFFFC3F70000280810B5FFF79BFF10BDDF
:10180000016841F08001016070470246002031B15B
:10181000012906D0022906D0032908D105E0506B22
:1018200006E0906B04E0D06B02E0106C00E000BFBB
:1018300000BF704731B101290CD0022913D0032910
:1018400022D118E0836923F00C0383618369134379
:1018500083611AE0836923F440638361836943EA07
:101860000223836111E0C36923F00C03C361C369E0
:101870001343C36109E0C36923F44063C361C369CF
:1018800043EA0223C36100E000BF00BF70470000CD
:1018900010B531B101293FD002297DD003297CD177
:1018A000BFE0036A23F001030362036A1468234361
:1018B0000362036A23F002030362036AD4882343AA
:1018C00003626C4B984202D06B4B98421FD1036A63
:1018D00023F004030362036A948823430362036AC8
:1018E00023F008030362036A1489234303624368F5
:1018F00023F48073436043685489234343604368FF
:1019000023F40073436043689489234343608369ED
:1019100023F003038361ABE0036A23F01003036247
:10192000036A146843EA04130362036A23F0200382
:101930000362036AD48843EA041303624D4B98425E
:1019400002D04D4B984223D1036A23F04003036237
:10195000036A948843EA04130362036A23F0800352
:101960000362036A148943EA04130362436823F49D
:10197000806343604368548943EA84034360436857
:1019800023F4006343604368948943EA840343601B
:10199000836923F4407301E002E068E0836167E05B
:1019A000036A23F480730362036A146843EA04231E
:1019B0000362036A23F400730362036AD48843EA70
:1019C000042303622B4B984202D02B4B984223D125
:1019D000036A23F480630362036A948843EA04235E
:1019E0000362036A23F400630362036A148943EA0F
:1019F00004230362436823F480534360436854899B
:101A000043EA04134360436823F40053436043688C
:101A1000948943EA04134360C36923F00303C36159
:101A200026E0036A23F480530362036A146843EADE
:101A300004330362036A23F400530362036AD48805
:101A400043EA043303620B4B984202D00A4B98429C
:101A500008D1436823F4804343604368548943EAD0
:101A600084134360C36923F44073C36100E000BF83
:101A700000BF10BD002C01400034014031B10129EC
:101A80000CD0022913D0032922D118E0836923F056
:101A9000700383618369134383611AE0836923F4CC
:101AA000E0438361836943EA0223836111E0C369F0
:101AB00023F07003C361C3691343C36109E0C369C1
:101AC00023F4E043C361C36943EA0223C36100E036
:101AD00000BF00BF704731B1012906D0022906D0EE
:101AE000032908D105E0426306E0826304E0C26393
:101AF00002E0026400E000BF00BF704731B101297D
:101B00000CD0022913D0032922D118E0836923F0D5
:101B1000080383618369134383611AE0836923F4B3
:101B200000638361836943EA0223836111E0C3692F
:101B300023F00803C361C3691343C36109E0C369A8
:101B400023F40063C361C36943EA0223C36100E075
:101B500000BF00BF7047000000B58BB04FF4E060DD
:101B6000FFF7AAFD40F20170FFF7A6FD40F20270F8
:101B7000FFF7A2FD40F20B60FFF79EFD4FF08040A3
:101B800000F0E0F86B4800F0DDF86B4800F0DAF8A0
:101B90006A4800F0D7F80920ADF80C000020ADF835
:101BA0000E00ADF8100040F21B1005900020ADF8BB
:101BB00018008DF81A0003A94FF0804000F03AF9A0
:101BC0000020ADF82200012007900020ADF824008D
:101BD000ADF82000ADF82600ADF8280007AA0121D5
:101BE0008807FFF755FE002201218807FFF773FFE2
:101BF000602201218807FFF741FF002201218807A9
:101C0000FFF77CFF4FF08040FFF7FAFD01218807C6
:101C100000F05BFA4FF0804000F007F96B20ADF860
:101C20000C000020ADF80E00ADF810000920059062
:101C30000020ADF818008DF81A0003A93D4800F007
:101C4000F9F83C48FFF7DCFD01213A4800F03DFA85
:101C5000384800F0EAF80620ADF80C000020ADF896
:101C60000E00ADF81000FE2005900020ADF8180021
:101C70008DF81A0003A9304800F0DCF80020ADF818
:101C80002200012007900020ADF82400ADF82000CC
:101C9000ADF82600ADF8280007AA01212648FFF775
:101CA000F7FD002201212448FFF715FF60220121E2
:101CB0002148FFF7E3FE002201211F48FFF71EFF26
:101CC0001D48FFF79DFD01211B4800F0FEF91A4851
:101CD00000F0A6F80A20ADF80C000020ADF80E00C8
:101CE000ADF8100040F2793005900020ADF81800F2
:101CF0008DF81A0003A9114800F09CF80220ADF8F5
:101D000004000120ADF806000020ADF80800ADF891
:101D10000A0001AA0021094800F0F6F80748FFF779
:101D20006FFD0121054800F0D0F9044800F078F873
:101D30000BB000BD0004004000080040002C014032
:101D40004162704710B504463349601A8C4244D052
:101D50000CDCB4F1804F1CD03048204410B3B0F5F7
:101D6000806F28D0B0F5006F52D12DE0B0F5806FB4
:101D70003CD0B0F58E3F03D0B0F5923F48D13EE065
:101D800040F20B30FFF7B8FC40F20B30FFF7A4FC39
:101D90003FE04FF48060FFF7AFFC4FF48060FFF747
:101DA0009BFC36E040F20140FFF7A6FC40F2014008
:101DB000FFF792FC2DE040F20240FFF79DFC40F25D
:101DC0000240FFF789FC24E040F20340FFF794FC57
:101DD00040F20340FFF780FC1BE040F20440FFF7B5
:101DE0008BFC40F20440FFF777FC12E040F2054024
:101DF000FFF782FC40F20540FFF76EFC09E040F27D
:101E00000D30FFF779FC40F20D30FFF765FC00E084
:101E100000BF00BF10BD00000010004000FCFFBF6D
:101E2000016821F0010101607047016841F0010182
:101E3000016070470A888262264A904220D0B0F141
:101E4000804F1DD0244A90421AD0244A904217D085
:101E5000234A904214D0234A904211D0224A904201
:101E60000ED0224A90420BD0214A904208D0214AFB
:101E7000904205D0204A904202D0204A90420BD195
:101E8000026822F07002026002684B881A43026006
:101E900002688B881A4302608A68C262184A9042BC
:101EA0000AD0184A904207D0026822F440720260B9
:101EB00002688B891A430260064A904202D0094A9E
:101EC000904201D18A7B0263426942F00102426181
:101ED00070470000002C0140000400400008004052
:101EE000000C004000340140004C01400050014013
:101EF0000054014000180040001C00400020004039
:101F0000001000400014004070B504460E4615460F
:101F100036B1012E26D0022E48D0032E7DD168E0A6
:101F2000206A20F001002062206A20F00A0020626E
:101F3000206A298808432062A06920F00300A0617C
:101F4000A06969880843A061A06920F0F000A06141
:101F5000A069E98840EA0110A061206A40F0010010
:101F600020626DE0206A20F010002062206A20F0DC
:101F7000A0002062206A298840EA01102062A0693E
:101F800020F44070A061A069698840EA0120A06146
:101F9000A06920F47040A061A069E98840EA01309E
:101FA000A061206A40F01000206249E0206A20F41D
:101FB00080702062206A20F420602062206A2988D4
:101FC00040EA01202062E06920F00300E061E0695E
:101FD00069880843E061E06920F0F000E061E069B1
:101FE000E98840EA0110E061206A40F480702062D4
:101FF00026E0206A20F480502062206A20F40050FD
:102000002062206A298840EA01302062E06920F4D9
:102010004070E061E069698800E010E040EA01207A
:10202000E061E06920F47040E061E069E98840EA3D
:102030000130E061206A40F48050206200E000BF7F
:1020400000BFAA8831462046FFF7F4FB70BD31B1CE
:10205000012910D002291BD0032933D125E0036ABE
:1020600023F001030362036A23F00A030362036A95
:102070001343036227E0036A23F010030362036A39
:1020800023F0A0030362036A43EA021303621AE027
:10209000036A23F480730362036A23F420630362F8
:1020A000036A43EA022303620DE0036A23F48053C8
:1020B0000362036A23F400530362036A43EA0233B0
:1020C000036200E000BF00BF7047C2680A43C260FD
:1020D000704702698A43026170470246D06800EA8D
:1020E00001031069084010B10BB1012070470020B6
:1020F000FCE700002DE9F04704460D460027B846EE
:10210000B94600261D49601A8C421CD006DC1C48CA
:10211000204470B1B0F5806F1FD10FE0B0F5806F33
:1021200016D0B0F56C4F18D10320FFF725FA0746FB
:1021300014E00220FFF720FA07460FE00220FFF725
:102140001BFA07460AE00220FFF716FA074605E0E9
:102150000220FFF711FA074600E000BF00BF07EBBF
:102160005500B0FBF5F64FF6F07006EA000806F0F1
:102170000F0948EA0900A060BDE8F087004C004064
:1021800000BCFFBFC1F308024260704710B50446AF
:102190002049601A8C4228D006DC1F48204490B1A8
:1021A000B0F5806F33D117E0B0F5806F26D0B0F571
:1021B0006C4F2CD140F20E30FFF79EFA40F20E30F9
:1021C000FFF78AFA24E040F21140FFF795FA40F257
:1021D0001140FFF781FA1BE040F21240FFF78CFA42
:1021E00040F21240FFF778FA12E040F21340FFF796
:1021F00083FA40F21340FFF76FFA09E040F214400F
:10220000FFF77AFA40F21440FFF766FA00E000BFE9
:1022100000BF10BD004C004000BCFFBFC16841F4CE
:102220000051C160704710B5024602EB9110006882
:1022300001F01F040123A340184008B1012010BD84
:102240000020FCE70A460021C16821F00401114387
:10225000C16070470A460021C16821F0080111439E
:10226000C160704701460A69D1E901309860D1E93F
:10227000010358605068884201D18868506000208E
:1022800008611068401E10601068704700F1080176
:1022900041604FF0FF31816000F10801C1600161D0
:1022A00000210160704700210161704710B50246AE
:1022B0000B685C1C0CB9106907E002F1080000E033
:1022C0004068446824689C42FAD944684C604C6871
:1022D000A160886041600A611468641C146010BDCC
:1022E00042684A6093688B609368596091600861A6
:1022F00003685B1C0360704700BFBF2080F3118838
:10230000BFF34F8FBFF36F8F00BF03480068401CBF
:1023100001490860704700003C0100200648006841
:10232000401E054908600846006820B9002080F377
:10233000118800BF00BF70473C01002070B5064601
:102340003546B6B1083D2C4600F0CEF96168094823
:1023500000E00068026852688A42FAD3026822608C
:10236000046005496068096808440349086000F092
:1023700091FC70BD240100203401002003484FF07F
:10238000E021486107200861704700003F19010003
:102390001EE010480078C0B90320FEF7A5FCA0B9E4
:1023A0005E2201218807FFF796FB01200A49087089
:1023B0000A48FFF73AFD0A48FFF737FD09A0FEF784
:1023C00059FB4FF4757000F09BF8012000F098F86D
:1023D000DFE7000014000020540100200008004046
:1023E000002C014049276D205461736B3232320D4D
:1023F0000A000000FEF71AF929E0FFF77DFF1448F4
:102400000478FFF78BFF1BE01249897A124A52F8D1
:102410002100FEF753F80F48006800F0004020B19B
:1024200000BF00BF00200B4908600A48807A401CAA
:10243000084988720846807A282801DB00208872C3
:102440000448807AA042DFD10A2000F059F8D4E78E
:102450005501002060020020404700203AE02CE0B7
:102460001D4840781D4909680979884208DB1A48E7
:1024700040781A4909680979401A1749487002E0FA
:102480000020154948701448407810B900201449BC
:1024900008701148407813490872134800680860B2
:1024A0000E480068006848600C210E48FEF7E8F806
:1024B0000A480068083009490860084800680B4964
:1024C00009688842CCD10AA0FEF7D4FA4FF47A709A
:1024D00000F016F8C3E700000000002038000020DC
:1024E0001400002084010020180000203C0000207F
:1024F00049276D205461736B33333333330D0A0036
:1025000070B50446002544B100F0EEF800212046E5
:10251000FEF76EFD00F0BEFB05463DB94FF0805062
:1025200003490860BFF34F8FBFF36F8F70BD00008A
:1025300004ED00E008B54FF496700090082400BF49
:102540003B48057800220421012000F039F939497F
:1025500008606BE000231A4669463648006800F0C0
:102560004BF901285FD10098B0F5617F04D10022BA
:1025700001218807FFF7AFFA40F214510098884212
:1025800004D15E2201210007FFF7A5FADCB3601E2B
:1025900045FA00F000F00100D0B140F24C51009833
:1025A000884204D1002201218807FFF794FA40F203
:1025B000EC510098884236D140F215501E4908600F
:1025C000601EC4B25E2201218807FFF784FA2AE068
:1025D00040F24C510098884204D100220121880722
:1025E000FFF779FA40F28451009888421BD140F2FB
:1025F000155011490860601EC4B25E22012188078F
:10260000FFF769FA0FE0FFE70098B0F5E16F0AD92C
:1026100008240020094908700749086000220121A8
:102620008807FFF758FA0120FFF76AFF92E70000DA
:102630001C00002024000020400100205401002044
:1026400001200149086070470C01002070B5054663
:102650000C460548016818312846FFF727FE01217E
:102660002046FEF7C5FC70BDE8000020034909685C
:1026700001600349096841607047000010010020B3
:10268000FC0000201CB5114800210B468022CDE93A
:1026900000100FA1104800F0FFF90446012C14D1DE
:1026A00000BFBF2080F31188BFF34F8FBFF36F8F40
:1026B00000BF4FF0FF300949086001200849086059
:1026C00000200849086000F047F81CBD1C010020EC
:1026D00049444C4500000000811200081801002008
:1026E00004010020FC00002002480068401C014951
:1026F00008607047200100201248006818B10120CE
:10270000114908601DE000200F4908600F4800686B
:10271000B0FA80F0C0F11F0101EB81020C4B03EB1A
:10272000820042685268426000F1080243689342A6
:1027300002D14268526842604268D268054B1A6012
:1027400000BF7047200100200C0100200001002084
:1027500078020020E800002010B50A48006840F424
:102760007F00084908600846006840F07F40086024
:10277000FFF704FE002004490860FDF7DFFC00209D
:1027800010BD000020ED00E03C01002010B500BFAE
:10279000BF2080F31188BFF34F8FBFF36F8F00BF4F
:1027A00000F0AAF918B14FF080500449086000BF4A
:1027B000002080F3118800BF10BD000004ED00E090
:1027C0002DE9F84307460D4690460DB9002601E075
:1027D00007FB05F606F14800FEF760FE044644B12B
:1027E00004F1480943464A46294638460094FEF714
:1027F0005BFD2046BDE8F8832DE9FF4782B0054622
:1028000089461E464FF0000A2C4600BFFFF774FDB4
:10281000D4F83880B8F1000F36D0E7684946204632
:10282000FEF7BEFCB6B9A8F10100A063206908B9A3
:10283000012000E0002008BB04F1100000F0EAF9DC
:10284000E0B14FF080503A490860BFF34F8FBFF3BB
:102850006F8F13E0E760606A08B9012000E0002094
:1028600060B904F1240000F0D5F938B14FF0805080
:102870002F490860BFF34F8FBFF36F8FFFF74EFDF7
:10288000012006B0BDE8F087049818B9FFF746FDAF
:102890000020F6E7BAF1000F04D16846FFF7E6FE24
:1028A0004FF0010AFFF73AFDFFF71EFFFFF724FD87
:1028B00094F94400401C10B9002084F8440094F9B5
:1028C0004500401C10B9002084F84500FFF726FDA4
:1028D00004A9684600F0B2F8F0B92046FEF76CFD96
:1028E000A0B104F124000499FFF7B0FE2046FEF7E2
:1028F00096FD00F0CFF9002888D14FF080500C49A8
:102900000860BFF34F8FBFF36F8F7FE72046FEF75E
:1029100086FD00F0BFF979E72046FEF780FD00F064
:10292000B9F92046FEF748FD0028EED00020A8E7C0
:1029300004ED00E070B505460E462C46FFF7DCFCC2
:10294000D4E90F12206801FB020060600020A06340
:102950002068A060E06B401E226C216800FB021022
:10296000E060FF2084F8440084F845009EB92069A7
:1029700008B9012000E00020A8B904F1100000F01F
:1029800049F980B14FF0805009490860BFF34F8F7B
:10299000BFF36F8F07E004F11000FFF777FC04F13D
:1029A0002400FFF773FCFFF7B9FC012070BD0000A5
:1029B00004ED00E02DE9F05F05468A4616461F4605
:1029C0002C4600BFBF21EFF3118081F31188BFF3C4
:1029D0004F8FBFF36F8F00BF8146A06BE16B8842C2
:1029E00001D3022F20D194F945B03A4651462046F2
:1029F000FEF7EBFB0BF1010070B9606A08B901202A
:102A000000E0002068B904F1240000F003F940B1AF
:102A10003EB10120306004E00BF1010040B284F8C7
:102A200045004FF0010801E04FF0000800BF89F3B6
:102A3000118800BF4046BDE8F09F000070B5044615
:102A40000D46FFF759FC124802682868401C08B977
:102A5000002619E00F4920680968884204D06068A0
:102A6000904201D801260FE06068101A2968884258
:102A700009D228686168511A401A28602046FFF779
:102A8000F5FD002600E00126FFF748FC304670BD4A
:102A9000FC000020100100202DE9FF4F85B080468A
:102AA00089461746DDE912ABB800FEF7F7FC06468B
:102AB00056B14C20FEF7F2FC04460CB1266304E04C
:102AC0003046FFF73BFC00E000247CB10020CDE95C
:102AD00000ABCDE902403A4649464046089BFEF726
:102AE000F6FB2046FEF7D0FA012501E04FF0FF3556
:102AF000284609B0BDE8F08F2DE9F04100273A489B
:102B00000068002863D139480068451C37480560D3
:102B10008DB93748D0F800803648006834490860DD
:102B20003448C0F8008034480068401C32490860CE
:102B3000FEF750FC00BF3148006885423BD300BF20
:102B40002B480068006808B9012000E0002020B18F
:102B50004FF0FF30294908602CE025480068C06824
:102B6000C4686668B54202D22448066022E0201D8F
:102B7000FFF778FBA06A18B104F11800FFF772FBA9
:102B800094F82C10012088401D49096808431C490D
:102B90000860E16A01EB81011A4A02EB8100211D04
:102BA000FFF79EFB1849E06A0968C96A8842C7D3E3
:102BB0000127C5E700BF14480068C06A00EB800029
:102BC000104951F82000012800D9012704E00F48DE
:102BD0000068401C0D4908600D48006800B10127DD
:102BE0003846BDE8F081000020010020FC000020F4
:102BF000EC000020F000002010010020180100204F
:102C00000001002078020020E800002008010020D8
:102C10000C01002070B50646F068C46804F1180085
:102C2000FFF720FB15480068A8B9201DFFF71AFB25
:102C300094F82C1001208840114909680843104974
:102C40000860E16A01EB81010E4A02EB8100211D5F
:102C5000FFF746FB04E004F118010B48FFF740FBC7
:102C60000A49E06A0968C96A884204D90125012035
:102C70000749086000E00025284670BD20010020BB
:102C8000000100207802002004030020E80000205A
:102C90000C01002070B500240026FFF72DFB2E4804
:102CA0000068401E2C4908600846006800284FD183
:102CB0002A48006800284BD024E02948C068C4682E
:102CC00004F11800FFF7CEFA201DFFF7CBFA94F8B5
:102CD0002C100120884023490968084321490860D5
:102CE000E16A01EB8101204A02EB8100211DFFF71F
:102CF000F7FA1E49E06A0968C96A884202D30120CE
:102D00001B4908601648006808B9012000E000204F
:102D10000028D2D00CB1FEF75DFB1648056865B1FE
:102D200000BFFFF7E9FE10B10120114908606D1ED8
:102D3000002DF6D100200F4908600D48006838B119
:102D4000012630070C490860BFF34F8FBFF36F8F28
:102D5000FFF7E4FA304670BD20010020F8000020A3
:102D6000040300200001002078020020E800002079
:102D70000C0100200801002004ED00E09C2D00085B
:102D8000000000208401000040020008142E00080A
:102D9000840100205C4A0000940A0008011C022CF7
:102DA0008F3C100140044A180432013204290832D1
:102DB000023D0E061107092904291929041A082CB5
:102DC00019041E0206020604022901391429484A80
:102DD0000C1C290429441132204A40072A104719A3
:102DE00030630306A920912A0216230D0E044F0614
:102DF000282863F8431AAA01012439A011100B0AEC
:102E00000B0C0D0E0F101112131808C0C884606847
:042E1000341D9D517F
:0400000508000105E9
:00000001FF
